{
	"Decentralized Autonomous Venture Capital Fund (DAVC)/sol1.sol": {
		"Governance": {
			"abi": [
				{
					"inputs": [
						{
							"internalType": "address",
							"name": "tokenAddress",
							"type": "address"
						}
					],
					"stateMutability": "nonpayable",
					"type": "constructor"
				},
				{
					"anonymous": false,
					"inputs": [
						{
							"indexed": false,
							"internalType": "uint256",
							"name": "proposalId",
							"type": "uint256"
						},
						{
							"indexed": false,
							"internalType": "address",
							"name": "projectAddress",
							"type": "address"
						},
						{
							"indexed": false,
							"internalType": "string",
							"name": "description",
							"type": "string"
						}
					],
					"name": "ProposalCreated",
					"type": "event"
				},
				{
					"anonymous": false,
					"inputs": [
						{
							"indexed": false,
							"internalType": "uint256",
							"name": "proposalId",
							"type": "uint256"
						},
						{
							"indexed": false,
							"internalType": "address",
							"name": "voter",
							"type": "address"
						},
						{
							"indexed": false,
							"internalType": "bool",
							"name": "inFavor",
							"type": "bool"
						}
					],
					"name": "Voted",
					"type": "event"
				},
				{
					"inputs": [
						{
							"internalType": "address",
							"name": "project",
							"type": "address"
						},
						{
							"internalType": "string",
							"name": "description",
							"type": "string"
						}
					],
					"name": "createProposal",
					"outputs": [],
					"stateMutability": "nonpayable",
					"type": "function"
				},
				{
					"inputs": [
						{
							"internalType": "uint256",
							"name": "proposalId",
							"type": "uint256"
						}
					],
					"name": "finalizeProposal",
					"outputs": [],
					"stateMutability": "nonpayable",
					"type": "function"
				},
				{
					"inputs": [
						{
							"internalType": "uint256",
							"name": "",
							"type": "uint256"
						},
						{
							"internalType": "address",
							"name": "",
							"type": "address"
						}
					],
					"name": "hasVoted",
					"outputs": [
						{
							"internalType": "bool",
							"name": "",
							"type": "bool"
						}
					],
					"stateMutability": "view",
					"type": "function"
				},
				{
					"inputs": [],
					"name": "owner",
					"outputs": [
						{
							"internalType": "address",
							"name": "",
							"type": "address"
						}
					],
					"stateMutability": "view",
					"type": "function"
				},
				{
					"inputs": [],
					"name": "proposalCount",
					"outputs": [
						{
							"internalType": "uint256",
							"name": "",
							"type": "uint256"
						}
					],
					"stateMutability": "view",
					"type": "function"
				},
				{
					"inputs": [
						{
							"internalType": "uint256",
							"name": "",
							"type": "uint256"
						}
					],
					"name": "proposals",
					"outputs": [
						{
							"internalType": "address",
							"name": "projectAddress",
							"type": "address"
						},
						{
							"internalType": "string",
							"name": "projectDescription",
							"type": "string"
						},
						{
							"internalType": "uint256",
							"name": "votesFor",
							"type": "uint256"
						},
						{
							"internalType": "uint256",
							"name": "votesAgainst",
							"type": "uint256"
						},
						{
							"internalType": "bool",
							"name": "active",
							"type": "bool"
						},
						{
							"internalType": "uint256",
							"name": "deadline",
							"type": "uint256"
						}
					],
					"stateMutability": "view",
					"type": "function"
				},
				{
					"inputs": [],
					"name": "quorumThreshold",
					"outputs": [
						{
							"internalType": "uint256",
							"name": "",
							"type": "uint256"
						}
					],
					"stateMutability": "view",
					"type": "function"
				},
				{
					"inputs": [],
					"name": "token",
					"outputs": [
						{
							"internalType": "contract IERC20",
							"name": "",
							"type": "address"
						}
					],
					"stateMutability": "view",
					"type": "function"
				},
				{
					"inputs": [
						{
							"internalType": "address",
							"name": "newOwner",
							"type": "address"
						}
					],
					"name": "transferOwnership",
					"outputs": [],
					"stateMutability": "nonpayable",
					"type": "function"
				},
				{
					"inputs": [
						{
							"internalType": "uint256",
							"name": "proposalId",
							"type": "uint256"
						},
						{
							"internalType": "bool",
							"name": "voteFor",
							"type": "bool"
						}
					],
					"name": "vote",
					"outputs": [],
					"stateMutability": "nonpayable",
					"type": "function"
				},
				{
					"inputs": [
						{
							"internalType": "address",
							"name": "",
							"type": "address"
						}
					],
					"name": "voters",
					"outputs": [
						{
							"internalType": "bool",
							"name": "",
							"type": "bool"
						}
					],
					"stateMutability": "view",
					"type": "function"
				},
				{
					"inputs": [],
					"name": "votingPeriod",
					"outputs": [
						{
							"internalType": "uint256",
							"name": "",
							"type": "uint256"
						}
					],
					"stateMutability": "view",
					"type": "function"
				}
			],
			"devdoc": {
				"kind": "dev",
				"methods": {},
				"version": 1
			},
			"evm": {
				"assembly": "    /* \"Decentralized Autonomous Venture Capital Fund (DAVC)/sol1.sol\":887:3921  contract Governance is Ownable {... */\n  mstore(0x40, 0x80)\n    /* \"Decentralized Autonomous Venture Capital Fund (DAVC)/sol1.sol\":1408:1414  7 days */\n  0x093a80\n    /* \"Decentralized Autonomous Venture Capital Fund (DAVC)/sol1.sol\":1378:1414  uint256 public votingPeriod = 7 days */\n  0x06\n  sstore\n    /* \"Decentralized Autonomous Venture Capital Fund (DAVC)/sol1.sol\":1454:1467  1000 * 10**18 */\n  0x3635c9adc5dea00000\n    /* \"Decentralized Autonomous Venture Capital Fund (DAVC)/sol1.sol\":1421:1467  uint256 public quorumThreshold = 1000 * 10**18 */\n  0x07\n  sstore\n    /* \"Decentralized Autonomous Venture Capital Fund (DAVC)/sol1.sol\":1679:1760  constructor(address tokenAddress) {... */\n  callvalue\n  dup1\n  iszero\n  tag_1\n  jumpi\n  0x00\n  dup1\n  revert\ntag_1:\n  pop\n  mload(0x40)\n  sub(codesize, bytecodeSize)\n  dup1\n  bytecodeSize\n  dup4\n  codecopy\n  dup2\n  dup2\n  add\n  0x40\n  mstore\n  dup2\n  add\n  swap1\n  tag_2\n  swap2\n  swap1\n  tag_3\n  jump\t// in\ntag_2:\n    /* \"Decentralized Autonomous Venture Capital Fund (DAVC)/sol1.sol\":594:604  msg.sender */\n  caller\n    /* \"Decentralized Autonomous Venture Capital Fund (DAVC)/sol1.sol\":586:591  owner */\n  0x00\n  dup1\n    /* \"Decentralized Autonomous Venture Capital Fund (DAVC)/sol1.sol\":586:604  owner = msg.sender */\n  0x0100\n  exp\n  dup2\n  sload\n  dup2\n  0xffffffffffffffffffffffffffffffffffffffff\n  mul\n  not\n  and\n  swap1\n  dup4\n  0xffffffffffffffffffffffffffffffffffffffff\n  and\n  mul\n  or\n  swap1\n  sstore\n  pop\n    /* \"Decentralized Autonomous Venture Capital Fund (DAVC)/sol1.sol\":1739:1751  tokenAddress */\n  dup1\n    /* \"Decentralized Autonomous Venture Capital Fund (DAVC)/sol1.sol\":1724:1729  token */\n  0x03\n  0x00\n    /* \"Decentralized Autonomous Venture Capital Fund (DAVC)/sol1.sol\":1724:1752  token = IERC20(tokenAddress) */\n  0x0100\n  exp\n  dup2\n  sload\n  dup2\n  0xffffffffffffffffffffffffffffffffffffffff\n  mul\n  not\n  and\n  swap1\n  dup4\n  0xffffffffffffffffffffffffffffffffffffffff\n  and\n  mul\n  or\n  swap1\n  sstore\n  pop\n    /* \"Decentralized Autonomous Venture Capital Fund (DAVC)/sol1.sol\":1679:1760  constructor(address tokenAddress) {... */\n  pop\n    /* \"Decentralized Autonomous Venture Capital Fund (DAVC)/sol1.sol\":887:3921  contract Governance is Ownable {... */\n  jump(tag_8)\n    /* \"#utility.yul\":88:205   */\ntag_10:\n    /* \"#utility.yul\":197:198   */\n  0x00\n    /* \"#utility.yul\":194:195   */\n  dup1\n    /* \"#utility.yul\":187:199   */\n  revert\n    /* \"#utility.yul\":334:460   */\ntag_12:\n    /* \"#utility.yul\":371:378   */\n  0x00\n    /* \"#utility.yul\":411:453   */\n  0xffffffffffffffffffffffffffffffffffffffff\n    /* \"#utility.yul\":404:409   */\n  dup3\n    /* \"#utility.yul\":400:454   */\n  and\n    /* \"#utility.yul\":389:454   */\n  swap1\n  pop\n    /* \"#utility.yul\":334:460   */\n  swap2\n  swap1\n  pop\n  jump\t// out\n    /* \"#utility.yul\":466:562   */\ntag_13:\n    /* \"#utility.yul\":503:510   */\n  0x00\n    /* \"#utility.yul\":532:556   */\n  tag_22\n    /* \"#utility.yul\":550:555   */\n  dup3\n    /* \"#utility.yul\":532:556   */\n  tag_12\n  jump\t// in\ntag_22:\n    /* \"#utility.yul\":521:556   */\n  swap1\n  pop\n    /* \"#utility.yul\":466:562   */\n  swap2\n  swap1\n  pop\n  jump\t// out\n    /* \"#utility.yul\":568:690   */\ntag_14:\n    /* \"#utility.yul\":641:665   */\n  tag_24\n    /* \"#utility.yul\":659:664   */\n  dup2\n    /* \"#utility.yul\":641:665   */\n  tag_13\n  jump\t// in\ntag_24:\n    /* \"#utility.yul\":634:639   */\n  dup2\n    /* \"#utility.yul\":631:666   */\n  eq\n    /* \"#utility.yul\":621:684   */\n  tag_25\n  jumpi\n    /* \"#utility.yul\":680:681   */\n  0x00\n    /* \"#utility.yul\":677:678   */\n  dup1\n    /* \"#utility.yul\":670:682   */\n  revert\n    /* \"#utility.yul\":621:684   */\ntag_25:\n    /* \"#utility.yul\":568:690   */\n  pop\n  jump\t// out\n    /* \"#utility.yul\":696:839   */\ntag_15:\n    /* \"#utility.yul\":753:758   */\n  0x00\n    /* \"#utility.yul\":784:790   */\n  dup2\n    /* \"#utility.yul\":778:791   */\n  mload\n    /* \"#utility.yul\":769:791   */\n  swap1\n  pop\n    /* \"#utility.yul\":800:833   */\n  tag_27\n    /* \"#utility.yul\":827:832   */\n  dup2\n    /* \"#utility.yul\":800:833   */\n  tag_14\n  jump\t// in\ntag_27:\n    /* \"#utility.yul\":696:839   */\n  swap3\n  swap2\n  pop\n  pop\n  jump\t// out\n    /* \"#utility.yul\":845:1196   */\ntag_3:\n    /* \"#utility.yul\":915:921   */\n  0x00\n    /* \"#utility.yul\":964:966   */\n  0x20\n    /* \"#utility.yul\":952:961   */\n  dup3\n    /* \"#utility.yul\":943:950   */\n  dup5\n    /* \"#utility.yul\":939:962   */\n  sub\n    /* \"#utility.yul\":935:967   */\n  slt\n    /* \"#utility.yul\":932:1051   */\n  iszero\n  tag_29\n  jumpi\n    /* \"#utility.yul\":970:1049   */\n  tag_30\n  tag_10\n  jump\t// in\ntag_30:\n    /* \"#utility.yul\":932:1051   */\ntag_29:\n    /* \"#utility.yul\":1090:1091   */\n  0x00\n    /* \"#utility.yul\":1115:1179   */\n  tag_31\n    /* \"#utility.yul\":1171:1178   */\n  dup5\n    /* \"#utility.yul\":1162:1168   */\n  dup3\n    /* \"#utility.yul\":1151:1160   */\n  dup6\n    /* \"#utility.yul\":1147:1169   */\n  add\n    /* \"#utility.yul\":1115:1179   */\n  tag_15\n  jump\t// in\ntag_31:\n    /* \"#utility.yul\":1105:1179   */\n  swap2\n  pop\n    /* \"#utility.yul\":1061:1189   */\n  pop\n    /* \"#utility.yul\":845:1196   */\n  swap3\n  swap2\n  pop\n  pop\n  jump\t// out\n    /* \"Decentralized Autonomous Venture Capital Fund (DAVC)/sol1.sol\":887:3921  contract Governance is Ownable {... */\ntag_8:\n  dataSize(sub_0)\n  dup1\n  dataOffset(sub_0)\n  0x00\n  codecopy\n  0x00\n  return\nstop\n\nsub_0: assembly {\n        /* \"Decentralized Autonomous Venture Capital Fund (DAVC)/sol1.sol\":887:3921  contract Governance is Ownable {... */\n      mstore(0x40, 0x80)\n      callvalue\n      dup1\n      iszero\n      tag_1\n      jumpi\n      0x00\n      dup1\n      revert\n    tag_1:\n      pop\n      jumpi(tag_2, lt(calldatasize, 0x04))\n      shr(0xe0, calldataload(0x00))\n      dup1\n      0x8da5cb5b\n      gt\n      tag_15\n      jumpi\n      dup1\n      0x8da5cb5b\n      eq\n      tag_9\n      jumpi\n      dup1\n      0xa3ec138d\n      eq\n      tag_10\n      jumpi\n      dup1\n      0xc9d27afe\n      eq\n      tag_11\n      jumpi\n      dup1\n      0xda35c664\n      eq\n      tag_12\n      jumpi\n      dup1\n      0xf2fde38b\n      eq\n      tag_13\n      jumpi\n      dup1\n      0xfc0c546a\n      eq\n      tag_14\n      jumpi\n      jump(tag_2)\n    tag_15:\n      dup1\n      0x013cf08b\n      eq\n      tag_3\n      jumpi\n      dup1\n      0x02a251a3\n      eq\n      tag_4\n      jumpi\n      dup1\n      0x1f4f7d29\n      eq\n      tag_5\n      jumpi\n      dup1\n      0x43859632\n      eq\n      tag_6\n      jumpi\n      dup1\n      0x5652077c\n      eq\n      tag_7\n      jumpi\n      dup1\n      0x7b7a91dd\n      eq\n      tag_8\n      jumpi\n    tag_2:\n      0x00\n      dup1\n      revert\n        /* \"Decentralized Autonomous Venture Capital Fund (DAVC)/sol1.sol\":1133:1160  Proposal[] public proposals */\n    tag_3:\n      tag_16\n      0x04\n      dup1\n      calldatasize\n      sub\n      dup2\n      add\n      swap1\n      tag_17\n      swap2\n      swap1\n      tag_18\n      jump\t// in\n    tag_17:\n      tag_19\n      jump\t// in\n    tag_16:\n      mload(0x40)\n      tag_20\n      swap7\n      swap6\n      swap5\n      swap4\n      swap3\n      swap2\n      swap1\n      tag_21\n      jump\t// in\n    tag_20:\n      mload(0x40)\n      dup1\n      swap2\n      sub\n      swap1\n      return\n        /* \"Decentralized Autonomous Venture Capital Fund (DAVC)/sol1.sol\":1378:1414  uint256 public votingPeriod = 7 days */\n    tag_4:\n      tag_22\n      tag_23\n      jump\t// in\n    tag_22:\n      mload(0x40)\n      tag_24\n      swap2\n      swap1\n      tag_25\n      jump\t// in\n    tag_24:\n      mload(0x40)\n      dup1\n      swap2\n      sub\n      swap1\n      return\n        /* \"Decentralized Autonomous Venture Capital Fund (DAVC)/sol1.sol\":1768:2227  function createProposal(address project, string memory description) public onlyOwner {... */\n    tag_5:\n      tag_26\n      0x04\n      dup1\n      calldatasize\n      sub\n      dup2\n      add\n      swap1\n      tag_27\n      swap2\n      swap1\n      tag_28\n      jump\t// in\n    tag_27:\n      tag_29\n      jump\t// in\n    tag_26:\n      stop\n        /* \"Decentralized Autonomous Venture Capital Fund (DAVC)/sol1.sol\":1275:1335  mapping(uint256 => mapping(address => bool)) public hasVoted */\n    tag_6:\n      tag_30\n      0x04\n      dup1\n      calldatasize\n      sub\n      dup2\n      add\n      swap1\n      tag_31\n      swap2\n      swap1\n      tag_32\n      jump\t// in\n    tag_31:\n      tag_33\n      jump\t// in\n    tag_30:\n      mload(0x40)\n      tag_34\n      swap2\n      swap1\n      tag_35\n      jump\t// in\n    tag_34:\n      mload(0x40)\n      dup1\n      swap2\n      sub\n      swap1\n      return\n        /* \"Decentralized Autonomous Venture Capital Fund (DAVC)/sol1.sol\":2998:3751  function finalizeProposal(uint256 proposalId) public onlyOwner {... */\n    tag_7:\n      tag_36\n      0x04\n      dup1\n      calldatasize\n      sub\n      dup2\n      add\n      swap1\n      tag_37\n      swap2\n      swap1\n      tag_18\n      jump\t// in\n    tag_37:\n      tag_38\n      jump\t// in\n    tag_36:\n      stop\n        /* \"Decentralized Autonomous Venture Capital Fund (DAVC)/sol1.sol\":1421:1467  uint256 public quorumThreshold = 1000 * 10**18 */\n    tag_8:\n      tag_39\n      tag_40\n      jump\t// in\n    tag_39:\n      mload(0x40)\n      tag_41\n      swap2\n      swap1\n      tag_25\n      jump\t// in\n    tag_41:\n      mload(0x40)\n      dup1\n      swap2\n      sub\n      swap1\n      return\n        /* \"Decentralized Autonomous Venture Capital Fund (DAVC)/sol1.sol\":532:552  address public owner */\n    tag_9:\n      tag_42\n      tag_43\n      jump\t// in\n    tag_42:\n      mload(0x40)\n      tag_44\n      swap2\n      swap1\n      tag_45\n      jump\t// in\n    tag_44:\n      mload(0x40)\n      dup1\n      swap2\n      sub\n      swap1\n      return\n        /* \"Decentralized Autonomous Venture Capital Fund (DAVC)/sol1.sol\":1230:1268  mapping(address => bool) public voters */\n    tag_10:\n      tag_46\n      0x04\n      dup1\n      calldatasize\n      sub\n      dup2\n      add\n      swap1\n      tag_47\n      swap2\n      swap1\n      tag_48\n      jump\t// in\n    tag_47:\n      tag_49\n      jump\t// in\n    tag_46:\n      mload(0x40)\n      tag_50\n      swap2\n      swap1\n      tag_35\n      jump\t// in\n    tag_50:\n      mload(0x40)\n      dup1\n      swap2\n      sub\n      swap1\n      return\n        /* \"Decentralized Autonomous Venture Capital Fund (DAVC)/sol1.sol\":2235:2990  function vote(uint256 proposalId, bool voteFor) public {... */\n    tag_11:\n      tag_51\n      0x04\n      dup1\n      calldatasize\n      sub\n      dup2\n      add\n      swap1\n      tag_52\n      swap2\n      swap1\n      tag_53\n      jump\t// in\n    tag_52:\n      tag_54\n      jump\t// in\n    tag_51:\n      stop\n        /* \"Decentralized Autonomous Venture Capital Fund (DAVC)/sol1.sol\":1167:1195  uint256 public proposalCount */\n    tag_12:\n      tag_55\n      tag_56\n      jump\t// in\n    tag_55:\n      mload(0x40)\n      tag_57\n      swap2\n      swap1\n      tag_25\n      jump\t// in\n    tag_57:\n      mload(0x40)\n      dup1\n      swap2\n      sub\n      swap1\n      return\n        /* \"Decentralized Autonomous Venture Capital Fund (DAVC)/sol1.sol\":734:831  function transferOwnership(address newOwner) public onlyOwner {... */\n    tag_13:\n      tag_58\n      0x04\n      dup1\n      calldatasize\n      sub\n      dup2\n      add\n      swap1\n      tag_59\n      swap2\n      swap1\n      tag_48\n      jump\t// in\n    tag_59:\n      tag_60\n      jump\t// in\n    tag_58:\n      stop\n        /* \"Decentralized Autonomous Venture Capital Fund (DAVC)/sol1.sol\":1202:1221  IERC20 public token */\n    tag_14:\n      tag_61\n      tag_62\n      jump\t// in\n    tag_61:\n      mload(0x40)\n      tag_63\n      swap2\n      swap1\n      tag_64\n      jump\t// in\n    tag_63:\n      mload(0x40)\n      dup1\n      swap2\n      sub\n      swap1\n      return\n        /* \"Decentralized Autonomous Venture Capital Fund (DAVC)/sol1.sol\":1133:1160  Proposal[] public proposals */\n    tag_19:\n      0x01\n      dup2\n      dup2\n      sload\n      dup2\n      lt\n      tag_65\n      jumpi\n      0x00\n      dup1\n      revert\n    tag_65:\n      swap1\n      0x00\n      mstore\n      keccak256(0x00, 0x20)\n      swap1\n      0x06\n      mul\n      add\n      0x00\n      swap2\n      pop\n      swap1\n      pop\n      dup1\n      0x00\n      add\n      0x00\n      swap1\n      sload\n      swap1\n      0x0100\n      exp\n      swap1\n      div\n      0xffffffffffffffffffffffffffffffffffffffff\n      and\n      swap1\n      dup1\n      0x01\n      add\n      dup1\n      sload\n      tag_67\n      swap1\n      tag_68\n      jump\t// in\n    tag_67:\n      dup1\n      0x1f\n      add\n      0x20\n      dup1\n      swap2\n      div\n      mul\n      0x20\n      add\n      mload(0x40)\n      swap1\n      dup2\n      add\n      0x40\n      mstore\n      dup1\n      swap3\n      swap2\n      swap1\n      dup2\n      dup2\n      mstore\n      0x20\n      add\n      dup3\n      dup1\n      sload\n      tag_69\n      swap1\n      tag_68\n      jump\t// in\n    tag_69:\n      dup1\n      iszero\n      tag_70\n      jumpi\n      dup1\n      0x1f\n      lt\n      tag_71\n      jumpi\n      0x0100\n      dup1\n      dup4\n      sload\n      div\n      mul\n      dup4\n      mstore\n      swap2\n      0x20\n      add\n      swap2\n      jump(tag_70)\n    tag_71:\n      dup3\n      add\n      swap2\n      swap1\n      0x00\n      mstore\n      keccak256(0x00, 0x20)\n      swap1\n    tag_72:\n      dup2\n      sload\n      dup2\n      mstore\n      swap1\n      0x01\n      add\n      swap1\n      0x20\n      add\n      dup1\n      dup4\n      gt\n      tag_72\n      jumpi\n      dup3\n      swap1\n      sub\n      0x1f\n      and\n      dup3\n      add\n      swap2\n    tag_70:\n      pop\n      pop\n      pop\n      pop\n      pop\n      swap1\n      dup1\n      0x02\n      add\n      sload\n      swap1\n      dup1\n      0x03\n      add\n      sload\n      swap1\n      dup1\n      0x04\n      add\n      0x00\n      swap1\n      sload\n      swap1\n      0x0100\n      exp\n      swap1\n      div\n      0xff\n      and\n      swap1\n      dup1\n      0x05\n      add\n      sload\n      swap1\n      pop\n      dup7\n      jump\t// out\n        /* \"Decentralized Autonomous Venture Capital Fund (DAVC)/sol1.sol\":1378:1414  uint256 public votingPeriod = 7 days */\n    tag_23:\n      sload(0x06)\n      dup2\n      jump\t// out\n        /* \"Decentralized Autonomous Venture Capital Fund (DAVC)/sol1.sol\":1768:2227  function createProposal(address project, string memory description) public onlyOwner {... */\n    tag_29:\n        /* \"Decentralized Autonomous Venture Capital Fund (DAVC)/sol1.sol\":674:679  owner */\n      0x00\n      dup1\n      sload\n      swap1\n      0x0100\n      exp\n      swap1\n      div\n      0xffffffffffffffffffffffffffffffffffffffff\n      and\n        /* \"Decentralized Autonomous Venture Capital Fund (DAVC)/sol1.sol\":660:679  msg.sender == owner */\n      0xffffffffffffffffffffffffffffffffffffffff\n      and\n        /* \"Decentralized Autonomous Venture Capital Fund (DAVC)/sol1.sol\":660:670  msg.sender */\n      caller\n        /* \"Decentralized Autonomous Venture Capital Fund (DAVC)/sol1.sol\":660:679  msg.sender == owner */\n      0xffffffffffffffffffffffffffffffffffffffff\n      and\n      eq\n        /* \"Decentralized Autonomous Venture Capital Fund (DAVC)/sol1.sol\":652:706  require(msg.sender == owner, \"Not the contract owner\") */\n      tag_74\n      jumpi\n      mload(0x40)\n      0x08c379a000000000000000000000000000000000000000000000000000000000\n      dup2\n      mstore\n      0x04\n      add\n      tag_75\n      swap1\n      tag_76\n      jump\t// in\n    tag_75:\n      mload(0x40)\n      dup1\n      swap2\n      sub\n      swap1\n      revert\n    tag_74:\n        /* \"Decentralized Autonomous Venture Capital Fund (DAVC)/sol1.sol\":1864:1873  proposals */\n      0x01\n        /* \"Decentralized Autonomous Venture Capital Fund (DAVC)/sol1.sol\":1879:2122  Proposal({... */\n      mload(0x40)\n      dup1\n      0xc0\n      add\n      0x40\n      mstore\n      dup1\n        /* \"Decentralized Autonomous Venture Capital Fund (DAVC)/sol1.sol\":1919:1926  project */\n      dup5\n        /* \"Decentralized Autonomous Venture Capital Fund (DAVC)/sol1.sol\":1879:2122  Proposal({... */\n      0xffffffffffffffffffffffffffffffffffffffff\n      and\n      dup2\n      mstore\n      0x20\n      add\n        /* \"Decentralized Autonomous Venture Capital Fund (DAVC)/sol1.sol\":1961:1972  description */\n      dup4\n        /* \"Decentralized Autonomous Venture Capital Fund (DAVC)/sol1.sol\":1879:2122  Proposal({... */\n      dup2\n      mstore\n      0x20\n      add\n        /* \"Decentralized Autonomous Venture Capital Fund (DAVC)/sol1.sol\":1997:1998  0 */\n      0x00\n        /* \"Decentralized Autonomous Venture Capital Fund (DAVC)/sol1.sol\":1879:2122  Proposal({... */\n      dup2\n      mstore\n      0x20\n      add\n        /* \"Decentralized Autonomous Venture Capital Fund (DAVC)/sol1.sol\":2027:2028  0 */\n      0x00\n        /* \"Decentralized Autonomous Venture Capital Fund (DAVC)/sol1.sol\":1879:2122  Proposal({... */\n      dup2\n      mstore\n      0x20\n      add\n        /* \"Decentralized Autonomous Venture Capital Fund (DAVC)/sol1.sol\":2051:2055  true */\n      0x01\n        /* \"Decentralized Autonomous Venture Capital Fund (DAVC)/sol1.sol\":1879:2122  Proposal({... */\n      iszero\n      iszero\n      dup2\n      mstore\n      0x20\n      add\n        /* \"Decentralized Autonomous Venture Capital Fund (DAVC)/sol1.sol\":2098:2110  votingPeriod */\n      sload(0x06)\n        /* \"Decentralized Autonomous Venture Capital Fund (DAVC)/sol1.sol\":2080:2095  block.timestamp */\n      timestamp\n        /* \"Decentralized Autonomous Venture Capital Fund (DAVC)/sol1.sol\":2080:2110  block.timestamp + votingPeriod */\n      tag_78\n      swap2\n      swap1\n      tag_79\n      jump\t// in\n    tag_78:\n        /* \"Decentralized Autonomous Venture Capital Fund (DAVC)/sol1.sol\":1879:2122  Proposal({... */\n      dup2\n      mstore\n      pop\n        /* \"Decentralized Autonomous Venture Capital Fund (DAVC)/sol1.sol\":1864:2123  proposals.push(Proposal({... */\n      swap1\n      dup1\n      0x01\n      dup2\n      sload\n      add\n      dup1\n      dup3\n      sstore\n      dup1\n      swap2\n      pop\n      pop\n      0x01\n      swap1\n      sub\n      swap1\n      0x00\n      mstore\n      keccak256(0x00, 0x20)\n      swap1\n      0x06\n      mul\n      add\n      0x00\n      swap1\n      swap2\n      swap1\n      swap2\n      swap1\n      swap2\n      pop\n      0x00\n      dup3\n      add\n      mload\n      dup2\n      0x00\n      add\n      exp(0x0100, 0x00)\n      dup2\n      sload\n      dup2\n      0xffffffffffffffffffffffffffffffffffffffff\n      mul\n      not\n      and\n      swap1\n      dup4\n      0xffffffffffffffffffffffffffffffffffffffff\n      and\n      mul\n      or\n      swap1\n      sstore\n      pop\n      0x20\n      dup3\n      add\n      mload\n      dup2\n      0x01\n      add\n      swap1\n      dup2\n      tag_81\n      swap2\n      swap1\n      tag_82\n      jump\t// in\n    tag_81:\n      pop\n      0x40\n      dup3\n      add\n      mload\n      dup2\n      0x02\n      add\n      sstore\n      0x60\n      dup3\n      add\n      mload\n      dup2\n      0x03\n      add\n      sstore\n      0x80\n      dup3\n      add\n      mload\n      dup2\n      0x04\n      add\n      exp(0x0100, 0x00)\n      dup2\n      sload\n      dup2\n      0xff\n      mul\n      not\n      and\n      swap1\n      dup4\n      iszero\n      iszero\n      mul\n      or\n      swap1\n      sstore\n      pop\n      0xa0\n      dup3\n      add\n      mload\n      dup2\n      0x05\n      add\n      sstore\n      pop\n      pop\n        /* \"Decentralized Autonomous Venture Capital Fund (DAVC)/sol1.sol\":2141:2193  ProposalCreated(proposalCount, project, description) */\n      0x7585f467599d0f008985f231af99293be388626ac16ca59505c2f8f88969cd63\n        /* \"Decentralized Autonomous Venture Capital Fund (DAVC)/sol1.sol\":2157:2170  proposalCount */\n      sload(0x02)\n        /* \"Decentralized Autonomous Venture Capital Fund (DAVC)/sol1.sol\":2172:2179  project */\n      dup4\n        /* \"Decentralized Autonomous Venture Capital Fund (DAVC)/sol1.sol\":2181:2192  description */\n      dup4\n        /* \"Decentralized Autonomous Venture Capital Fund (DAVC)/sol1.sol\":2141:2193  ProposalCreated(proposalCount, project, description) */\n      mload(0x40)\n      tag_83\n      swap4\n      swap3\n      swap2\n      swap1\n      tag_84\n      jump\t// in\n    tag_83:\n      mload(0x40)\n      dup1\n      swap2\n      sub\n      swap1\n      log1\n        /* \"Decentralized Autonomous Venture Capital Fund (DAVC)/sol1.sol\":2204:2217  proposalCount */\n      0x02\n      0x00\n        /* \"Decentralized Autonomous Venture Capital Fund (DAVC)/sol1.sol\":2204:2219  proposalCount++ */\n      dup2\n      sload\n      dup1\n      swap3\n      swap2\n      swap1\n      tag_85\n      swap1\n      tag_86\n      jump\t// in\n    tag_85:\n      swap2\n      swap1\n      pop\n      sstore\n      pop\n        /* \"Decentralized Autonomous Venture Capital Fund (DAVC)/sol1.sol\":1768:2227  function createProposal(address project, string memory description) public onlyOwner {... */\n      pop\n      pop\n      jump\t// out\n        /* \"Decentralized Autonomous Venture Capital Fund (DAVC)/sol1.sol\":1275:1335  mapping(uint256 => mapping(address => bool)) public hasVoted */\n    tag_33:\n      mstore(0x20, 0x05)\n      dup2\n      0x00\n      mstore\n      mstore(0x20, keccak256(0x00, 0x40))\n      dup1\n      0x00\n      mstore\n      keccak256(0x00, 0x40)\n      0x00\n      swap2\n      pop\n      swap2\n      pop\n      swap1\n      sload\n      swap1\n      0x0100\n      exp\n      swap1\n      div\n      0xff\n      and\n      dup2\n      jump\t// out\n        /* \"Decentralized Autonomous Venture Capital Fund (DAVC)/sol1.sol\":2998:3751  function finalizeProposal(uint256 proposalId) public onlyOwner {... */\n    tag_38:\n        /* \"Decentralized Autonomous Venture Capital Fund (DAVC)/sol1.sol\":674:679  owner */\n      0x00\n      dup1\n      sload\n      swap1\n      0x0100\n      exp\n      swap1\n      div\n      0xffffffffffffffffffffffffffffffffffffffff\n      and\n        /* \"Decentralized Autonomous Venture Capital Fund (DAVC)/sol1.sol\":660:679  msg.sender == owner */\n      0xffffffffffffffffffffffffffffffffffffffff\n      and\n        /* \"Decentralized Autonomous Venture Capital Fund (DAVC)/sol1.sol\":660:670  msg.sender */\n      caller\n        /* \"Decentralized Autonomous Venture Capital Fund (DAVC)/sol1.sol\":660:679  msg.sender == owner */\n      0xffffffffffffffffffffffffffffffffffffffff\n      and\n      eq\n        /* \"Decentralized Autonomous Venture Capital Fund (DAVC)/sol1.sol\":652:706  require(msg.sender == owner, \"Not the contract owner\") */\n      tag_88\n      jumpi\n      mload(0x40)\n      0x08c379a000000000000000000000000000000000000000000000000000000000\n      dup2\n      mstore\n      0x04\n      add\n      tag_89\n      swap1\n      tag_76\n      jump\t// in\n    tag_89:\n      mload(0x40)\n      dup1\n      swap2\n      sub\n      swap1\n      revert\n    tag_88:\n        /* \"Decentralized Autonomous Venture Capital Fund (DAVC)/sol1.sol\":3080:3089  proposals */\n      0x01\n        /* \"Decentralized Autonomous Venture Capital Fund (DAVC)/sol1.sol\":3090:3100  proposalId */\n      dup2\n        /* \"Decentralized Autonomous Venture Capital Fund (DAVC)/sol1.sol\":3080:3101  proposals[proposalId] */\n      dup2\n      sload\n      dup2\n      lt\n      tag_91\n      jumpi\n      tag_92\n      tag_93\n      jump\t// in\n    tag_92:\n    tag_91:\n      swap1\n      0x00\n      mstore\n      keccak256(0x00, 0x20)\n      swap1\n      0x06\n      mul\n      add\n        /* \"Decentralized Autonomous Venture Capital Fund (DAVC)/sol1.sol\":3080:3108  proposals[proposalId].active */\n      0x04\n      add\n      0x00\n      swap1\n      sload\n      swap1\n      0x0100\n      exp\n      swap1\n      div\n      0xff\n      and\n        /* \"Decentralized Autonomous Venture Capital Fund (DAVC)/sol1.sol\":3072:3139  require(proposals[proposalId].active, \"Proposal already finalized\") */\n      tag_95\n      jumpi\n      mload(0x40)\n      0x08c379a000000000000000000000000000000000000000000000000000000000\n      dup2\n      mstore\n      0x04\n      add\n      tag_96\n      swap1\n      tag_97\n      jump\t// in\n    tag_96:\n      mload(0x40)\n      dup1\n      swap2\n      sub\n      swap1\n      revert\n    tag_95:\n        /* \"Decentralized Autonomous Venture Capital Fund (DAVC)/sol1.sol\":3176:3185  proposals */\n      0x01\n        /* \"Decentralized Autonomous Venture Capital Fund (DAVC)/sol1.sol\":3186:3196  proposalId */\n      dup2\n        /* \"Decentralized Autonomous Venture Capital Fund (DAVC)/sol1.sol\":3176:3197  proposals[proposalId] */\n      dup2\n      sload\n      dup2\n      lt\n      tag_98\n      jumpi\n      tag_99\n      tag_93\n      jump\t// in\n    tag_99:\n    tag_98:\n      swap1\n      0x00\n      mstore\n      keccak256(0x00, 0x20)\n      swap1\n      0x06\n      mul\n      add\n        /* \"Decentralized Autonomous Venture Capital Fund (DAVC)/sol1.sol\":3176:3206  proposals[proposalId].deadline */\n      0x05\n      add\n      sload\n        /* \"Decentralized Autonomous Venture Capital Fund (DAVC)/sol1.sol\":3158:3173  block.timestamp */\n      timestamp\n        /* \"Decentralized Autonomous Venture Capital Fund (DAVC)/sol1.sol\":3158:3206  block.timestamp > proposals[proposalId].deadline */\n      gt\n        /* \"Decentralized Autonomous Venture Capital Fund (DAVC)/sol1.sol\":3150:3233  require(block.timestamp > proposals[proposalId].deadline, \"Voting period not over\") */\n      tag_101\n      jumpi\n      mload(0x40)\n      0x08c379a000000000000000000000000000000000000000000000000000000000\n      dup2\n      mstore\n      0x04\n      add\n      tag_102\n      swap1\n      tag_103\n      jump\t// in\n    tag_102:\n      mload(0x40)\n      dup1\n      swap2\n      sub\n      swap1\n      revert\n    tag_101:\n        /* \"Decentralized Autonomous Venture Capital Fund (DAVC)/sol1.sol\":3246:3264  uint256 totalVotes */\n      0x00\n        /* \"Decentralized Autonomous Venture Capital Fund (DAVC)/sol1.sol\":3300:3309  proposals */\n      0x01\n        /* \"Decentralized Autonomous Venture Capital Fund (DAVC)/sol1.sol\":3310:3320  proposalId */\n      dup3\n        /* \"Decentralized Autonomous Venture Capital Fund (DAVC)/sol1.sol\":3300:3321  proposals[proposalId] */\n      dup2\n      sload\n      dup2\n      lt\n      tag_104\n      jumpi\n      tag_105\n      tag_93\n      jump\t// in\n    tag_105:\n    tag_104:\n      swap1\n      0x00\n      mstore\n      keccak256(0x00, 0x20)\n      swap1\n      0x06\n      mul\n      add\n        /* \"Decentralized Autonomous Venture Capital Fund (DAVC)/sol1.sol\":3300:3334  proposals[proposalId].votesAgainst */\n      0x03\n      add\n      sload\n        /* \"Decentralized Autonomous Venture Capital Fund (DAVC)/sol1.sol\":3267:3276  proposals */\n      0x01\n        /* \"Decentralized Autonomous Venture Capital Fund (DAVC)/sol1.sol\":3277:3287  proposalId */\n      dup4\n        /* \"Decentralized Autonomous Venture Capital Fund (DAVC)/sol1.sol\":3267:3288  proposals[proposalId] */\n      dup2\n      sload\n      dup2\n      lt\n      tag_107\n      jumpi\n      tag_108\n      tag_93\n      jump\t// in\n    tag_108:\n    tag_107:\n      swap1\n      0x00\n      mstore\n      keccak256(0x00, 0x20)\n      swap1\n      0x06\n      mul\n      add\n        /* \"Decentralized Autonomous Venture Capital Fund (DAVC)/sol1.sol\":3267:3297  proposals[proposalId].votesFor */\n      0x02\n      add\n      sload\n        /* \"Decentralized Autonomous Venture Capital Fund (DAVC)/sol1.sol\":3267:3334  proposals[proposalId].votesFor + proposals[proposalId].votesAgainst */\n      tag_110\n      swap2\n      swap1\n      tag_79\n      jump\t// in\n    tag_110:\n        /* \"Decentralized Autonomous Venture Capital Fund (DAVC)/sol1.sol\":3246:3334  uint256 totalVotes = proposals[proposalId].votesFor + proposals[proposalId].votesAgainst */\n      swap1\n      pop\n        /* \"Decentralized Autonomous Venture Capital Fund (DAVC)/sol1.sol\":3367:3382  quorumThreshold */\n      sload(0x07)\n        /* \"Decentralized Autonomous Venture Capital Fund (DAVC)/sol1.sol\":3353:3363  totalVotes */\n      dup2\n        /* \"Decentralized Autonomous Venture Capital Fund (DAVC)/sol1.sol\":3353:3382  totalVotes >= quorumThreshold */\n      lt\n      iszero\n        /* \"Decentralized Autonomous Venture Capital Fund (DAVC)/sol1.sol\":3345:3420  require(totalVotes >= quorumThreshold, \"Not enough votes to pass proposal\") */\n      tag_111\n      jumpi\n      mload(0x40)\n      0x08c379a000000000000000000000000000000000000000000000000000000000\n      dup2\n      mstore\n      0x04\n      add\n      tag_112\n      swap1\n      tag_113\n      jump\t// in\n    tag_112:\n      mload(0x40)\n      dup1\n      swap2\n      sub\n      swap1\n      revert\n    tag_111:\n        /* \"Decentralized Autonomous Venture Capital Fund (DAVC)/sol1.sol\":3470:3479  proposals */\n      0x01\n        /* \"Decentralized Autonomous Venture Capital Fund (DAVC)/sol1.sol\":3480:3490  proposalId */\n      dup3\n        /* \"Decentralized Autonomous Venture Capital Fund (DAVC)/sol1.sol\":3470:3491  proposals[proposalId] */\n      dup2\n      sload\n      dup2\n      lt\n      tag_114\n      jumpi\n      tag_115\n      tag_93\n      jump\t// in\n    tag_115:\n    tag_114:\n      swap1\n      0x00\n      mstore\n      keccak256(0x00, 0x20)\n      swap1\n      0x06\n      mul\n      add\n        /* \"Decentralized Autonomous Venture Capital Fund (DAVC)/sol1.sol\":3470:3504  proposals[proposalId].votesAgainst */\n      0x03\n      add\n      sload\n        /* \"Decentralized Autonomous Venture Capital Fund (DAVC)/sol1.sol\":3437:3446  proposals */\n      0x01\n        /* \"Decentralized Autonomous Venture Capital Fund (DAVC)/sol1.sol\":3447:3457  proposalId */\n      dup4\n        /* \"Decentralized Autonomous Venture Capital Fund (DAVC)/sol1.sol\":3437:3458  proposals[proposalId] */\n      dup2\n      sload\n      dup2\n      lt\n      tag_117\n      jumpi\n      tag_118\n      tag_93\n      jump\t// in\n    tag_118:\n    tag_117:\n      swap1\n      0x00\n      mstore\n      keccak256(0x00, 0x20)\n      swap1\n      0x06\n      mul\n      add\n        /* \"Decentralized Autonomous Venture Capital Fund (DAVC)/sol1.sol\":3437:3467  proposals[proposalId].votesFor */\n      0x02\n      add\n      sload\n        /* \"Decentralized Autonomous Venture Capital Fund (DAVC)/sol1.sol\":3437:3504  proposals[proposalId].votesFor > proposals[proposalId].votesAgainst */\n      gt\n        /* \"Decentralized Autonomous Venture Capital Fund (DAVC)/sol1.sol\":3433:3744  if (proposals[proposalId].votesFor > proposals[proposalId].votesAgainst) {... */\n      iszero\n      tag_120\n      jumpi\n        /* \"Decentralized Autonomous Venture Capital Fund (DAVC)/sol1.sol\":3552:3557  false */\n      0x00\n        /* \"Decentralized Autonomous Venture Capital Fund (DAVC)/sol1.sol\":3521:3530  proposals */\n      0x01\n        /* \"Decentralized Autonomous Venture Capital Fund (DAVC)/sol1.sol\":3531:3541  proposalId */\n      dup4\n        /* \"Decentralized Autonomous Venture Capital Fund (DAVC)/sol1.sol\":3521:3542  proposals[proposalId] */\n      dup2\n      sload\n      dup2\n      lt\n      tag_121\n      jumpi\n      tag_122\n      tag_93\n      jump\t// in\n    tag_122:\n    tag_121:\n      swap1\n      0x00\n      mstore\n      keccak256(0x00, 0x20)\n      swap1\n      0x06\n      mul\n      add\n        /* \"Decentralized Autonomous Venture Capital Fund (DAVC)/sol1.sol\":3521:3549  proposals[proposalId].active */\n      0x04\n      add\n      0x00\n        /* \"Decentralized Autonomous Venture Capital Fund (DAVC)/sol1.sol\":3521:3557  proposals[proposalId].active = false */\n      0x0100\n      exp\n      dup2\n      sload\n      dup2\n      0xff\n      mul\n      not\n      and\n      swap1\n      dup4\n      iszero\n      iszero\n      mul\n      or\n      swap1\n      sstore\n      pop\n        /* \"Decentralized Autonomous Venture Capital Fund (DAVC)/sol1.sol\":3590:3643  investInProject(proposals[proposalId].projectAddress) */\n      tag_124\n        /* \"Decentralized Autonomous Venture Capital Fund (DAVC)/sol1.sol\":3606:3615  proposals */\n      0x01\n        /* \"Decentralized Autonomous Venture Capital Fund (DAVC)/sol1.sol\":3616:3626  proposalId */\n      dup4\n        /* \"Decentralized Autonomous Venture Capital Fund (DAVC)/sol1.sol\":3606:3627  proposals[proposalId] */\n      dup2\n      sload\n      dup2\n      lt\n      tag_125\n      jumpi\n      tag_126\n      tag_93\n      jump\t// in\n    tag_126:\n    tag_125:\n      swap1\n      0x00\n      mstore\n      keccak256(0x00, 0x20)\n      swap1\n      0x06\n      mul\n      add\n        /* \"Decentralized Autonomous Venture Capital Fund (DAVC)/sol1.sol\":3606:3642  proposals[proposalId].projectAddress */\n      0x00\n      add\n      0x00\n      swap1\n      sload\n      swap1\n      0x0100\n      exp\n      swap1\n      div\n      0xffffffffffffffffffffffffffffffffffffffff\n      and\n        /* \"Decentralized Autonomous Venture Capital Fund (DAVC)/sol1.sol\":3590:3605  investInProject */\n      tag_128\n        /* \"Decentralized Autonomous Venture Capital Fund (DAVC)/sol1.sol\":3590:3643  investInProject(proposals[proposalId].projectAddress) */\n      jump\t// in\n    tag_124:\n        /* \"Decentralized Autonomous Venture Capital Fund (DAVC)/sol1.sol\":3433:3744  if (proposals[proposalId].votesFor > proposals[proposalId].votesAgainst) {... */\n      jump(tag_129)\n    tag_120:\n        /* \"Decentralized Autonomous Venture Capital Fund (DAVC)/sol1.sol\":3707:3712  false */\n      0x00\n        /* \"Decentralized Autonomous Venture Capital Fund (DAVC)/sol1.sol\":3676:3685  proposals */\n      0x01\n        /* \"Decentralized Autonomous Venture Capital Fund (DAVC)/sol1.sol\":3686:3696  proposalId */\n      dup4\n        /* \"Decentralized Autonomous Venture Capital Fund (DAVC)/sol1.sol\":3676:3697  proposals[proposalId] */\n      dup2\n      sload\n      dup2\n      lt\n      tag_130\n      jumpi\n      tag_131\n      tag_93\n      jump\t// in\n    tag_131:\n    tag_130:\n      swap1\n      0x00\n      mstore\n      keccak256(0x00, 0x20)\n      swap1\n      0x06\n      mul\n      add\n        /* \"Decentralized Autonomous Venture Capital Fund (DAVC)/sol1.sol\":3676:3704  proposals[proposalId].active */\n      0x04\n      add\n      0x00\n        /* \"Decentralized Autonomous Venture Capital Fund (DAVC)/sol1.sol\":3676:3712  proposals[proposalId].active = false */\n      0x0100\n      exp\n      dup2\n      sload\n      dup2\n      0xff\n      mul\n      not\n      and\n      swap1\n      dup4\n      iszero\n      iszero\n      mul\n      or\n      swap1\n      sstore\n      pop\n        /* \"Decentralized Autonomous Venture Capital Fund (DAVC)/sol1.sol\":3433:3744  if (proposals[proposalId].votesFor > proposals[proposalId].votesAgainst) {... */\n    tag_129:\n        /* \"Decentralized Autonomous Venture Capital Fund (DAVC)/sol1.sol\":3061:3751  {... */\n      pop\n        /* \"Decentralized Autonomous Venture Capital Fund (DAVC)/sol1.sol\":2998:3751  function finalizeProposal(uint256 proposalId) public onlyOwner {... */\n      pop\n      jump\t// out\n        /* \"Decentralized Autonomous Venture Capital Fund (DAVC)/sol1.sol\":1421:1467  uint256 public quorumThreshold = 1000 * 10**18 */\n    tag_40:\n      sload(0x07)\n      dup2\n      jump\t// out\n        /* \"Decentralized Autonomous Venture Capital Fund (DAVC)/sol1.sol\":532:552  address public owner */\n    tag_43:\n      0x00\n      dup1\n      sload\n      swap1\n      0x0100\n      exp\n      swap1\n      div\n      0xffffffffffffffffffffffffffffffffffffffff\n      and\n      dup2\n      jump\t// out\n        /* \"Decentralized Autonomous Venture Capital Fund (DAVC)/sol1.sol\":1230:1268  mapping(address => bool) public voters */\n    tag_49:\n      mstore(0x20, 0x04)\n      dup1\n      0x00\n      mstore\n      keccak256(0x00, 0x40)\n      0x00\n      swap2\n      pop\n      sload\n      swap1\n      0x0100\n      exp\n      swap1\n      div\n      0xff\n      and\n      dup2\n      jump\t// out\n        /* \"Decentralized Autonomous Venture Capital Fund (DAVC)/sol1.sol\":2235:2990  function vote(uint256 proposalId, bool voteFor) public {... */\n    tag_54:\n        /* \"Decentralized Autonomous Venture Capital Fund (DAVC)/sol1.sol\":2309:2318  proposals */\n      0x01\n        /* \"Decentralized Autonomous Venture Capital Fund (DAVC)/sol1.sol\":2319:2329  proposalId */\n      dup3\n        /* \"Decentralized Autonomous Venture Capital Fund (DAVC)/sol1.sol\":2309:2330  proposals[proposalId] */\n      dup2\n      sload\n      dup2\n      lt\n      tag_134\n      jumpi\n      tag_135\n      tag_93\n      jump\t// in\n    tag_135:\n    tag_134:\n      swap1\n      0x00\n      mstore\n      keccak256(0x00, 0x20)\n      swap1\n      0x06\n      mul\n      add\n        /* \"Decentralized Autonomous Venture Capital Fund (DAVC)/sol1.sol\":2309:2337  proposals[proposalId].active */\n      0x04\n      add\n      0x00\n      swap1\n      sload\n      swap1\n      0x0100\n      exp\n      swap1\n      div\n      0xff\n      and\n        /* \"Decentralized Autonomous Venture Capital Fund (DAVC)/sol1.sol\":2301:2364  require(proposals[proposalId].active, \"Proposal is not active\") */\n      tag_137\n      jumpi\n      mload(0x40)\n      0x08c379a000000000000000000000000000000000000000000000000000000000\n      dup2\n      mstore\n      0x04\n      add\n      tag_138\n      swap1\n      tag_139\n      jump\t// in\n    tag_138:\n      mload(0x40)\n      dup1\n      swap2\n      sub\n      swap1\n      revert\n    tag_137:\n        /* \"Decentralized Autonomous Venture Capital Fund (DAVC)/sol1.sol\":2402:2411  proposals */\n      0x01\n        /* \"Decentralized Autonomous Venture Capital Fund (DAVC)/sol1.sol\":2412:2422  proposalId */\n      dup3\n        /* \"Decentralized Autonomous Venture Capital Fund (DAVC)/sol1.sol\":2402:2423  proposals[proposalId] */\n      dup2\n      sload\n      dup2\n      lt\n      tag_140\n      jumpi\n      tag_141\n      tag_93\n      jump\t// in\n    tag_141:\n    tag_140:\n      swap1\n      0x00\n      mstore\n      keccak256(0x00, 0x20)\n      swap1\n      0x06\n      mul\n      add\n        /* \"Decentralized Autonomous Venture Capital Fund (DAVC)/sol1.sol\":2402:2432  proposals[proposalId].deadline */\n      0x05\n      add\n      sload\n        /* \"Decentralized Autonomous Venture Capital Fund (DAVC)/sol1.sol\":2383:2398  block.timestamp */\n      timestamp\n        /* \"Decentralized Autonomous Venture Capital Fund (DAVC)/sol1.sol\":2383:2432  block.timestamp <= proposals[proposalId].deadline */\n      gt\n      iszero\n        /* \"Decentralized Autonomous Venture Capital Fund (DAVC)/sol1.sol\":2375:2460  require(block.timestamp <= proposals[proposalId].deadline, \"Voting period has ended\") */\n      tag_143\n      jumpi\n      mload(0x40)\n      0x08c379a000000000000000000000000000000000000000000000000000000000\n      dup2\n      mstore\n      0x04\n      add\n      tag_144\n      swap1\n      tag_145\n      jump\t// in\n    tag_144:\n      mload(0x40)\n      dup1\n      swap2\n      sub\n      swap1\n      revert\n    tag_143:\n        /* \"Decentralized Autonomous Venture Capital Fund (DAVC)/sol1.sol\":2480:2488  hasVoted */\n      0x05\n        /* \"Decentralized Autonomous Venture Capital Fund (DAVC)/sol1.sol\":2480:2500  hasVoted[proposalId] */\n      0x00\n        /* \"Decentralized Autonomous Venture Capital Fund (DAVC)/sol1.sol\":2489:2499  proposalId */\n      dup4\n        /* \"Decentralized Autonomous Venture Capital Fund (DAVC)/sol1.sol\":2480:2500  hasVoted[proposalId] */\n      dup2\n      mstore\n      0x20\n      add\n      swap1\n      dup2\n      mstore\n      0x20\n      add\n      0x00\n      keccak256\n        /* \"Decentralized Autonomous Venture Capital Fund (DAVC)/sol1.sol\":2480:2512  hasVoted[proposalId][msg.sender] */\n      0x00\n        /* \"Decentralized Autonomous Venture Capital Fund (DAVC)/sol1.sol\":2501:2511  msg.sender */\n      caller\n        /* \"Decentralized Autonomous Venture Capital Fund (DAVC)/sol1.sol\":2480:2512  hasVoted[proposalId][msg.sender] */\n      0xffffffffffffffffffffffffffffffffffffffff\n      and\n      0xffffffffffffffffffffffffffffffffffffffff\n      and\n      dup2\n      mstore\n      0x20\n      add\n      swap1\n      dup2\n      mstore\n      0x20\n      add\n      0x00\n      keccak256\n      0x00\n      swap1\n      sload\n      swap1\n      0x0100\n      exp\n      swap1\n      div\n      0xff\n      and\n        /* \"Decentralized Autonomous Venture Capital Fund (DAVC)/sol1.sol\":2479:2512  !hasVoted[proposalId][msg.sender] */\n      iszero\n        /* \"Decentralized Autonomous Venture Capital Fund (DAVC)/sol1.sol\":2471:2530  require(!hasVoted[proposalId][msg.sender], \"Already voted\") */\n      tag_146\n      jumpi\n      mload(0x40)\n      0x08c379a000000000000000000000000000000000000000000000000000000000\n      dup2\n      mstore\n      0x04\n      add\n      tag_147\n      swap1\n      tag_148\n      jump\t// in\n    tag_147:\n      mload(0x40)\n      dup1\n      swap2\n      sub\n      swap1\n      revert\n    tag_146:\n        /* \"Decentralized Autonomous Venture Capital Fund (DAVC)/sol1.sol\":2543:2563  uint256 voterBalance */\n      0x00\n        /* \"Decentralized Autonomous Venture Capital Fund (DAVC)/sol1.sol\":2566:2571  token */\n      0x03\n      0x00\n      swap1\n      sload\n      swap1\n      0x0100\n      exp\n      swap1\n      div\n      0xffffffffffffffffffffffffffffffffffffffff\n      and\n        /* \"Decentralized Autonomous Venture Capital Fund (DAVC)/sol1.sol\":2566:2581  token.balanceOf */\n      0xffffffffffffffffffffffffffffffffffffffff\n      and\n      0x70a08231\n        /* \"Decentralized Autonomous Venture Capital Fund (DAVC)/sol1.sol\":2582:2592  msg.sender */\n      caller\n        /* \"Decentralized Autonomous Venture Capital Fund (DAVC)/sol1.sol\":2566:2593  token.balanceOf(msg.sender) */\n      mload(0x40)\n      dup3\n      0xffffffff\n      and\n      0xe0\n      shl\n      dup2\n      mstore\n      0x04\n      add\n      tag_149\n      swap2\n      swap1\n      tag_45\n      jump\t// in\n    tag_149:\n      0x20\n      mload(0x40)\n      dup1\n      dup4\n      sub\n      dup2\n      dup7\n      gas\n      staticcall\n      iszero\n      dup1\n      iszero\n      tag_151\n      jumpi\n      returndatasize\n      0x00\n      dup1\n      returndatacopy\n      revert(0x00, returndatasize)\n    tag_151:\n      pop\n      pop\n      pop\n      pop\n      mload(0x40)\n      returndatasize\n      not(0x1f)\n      0x1f\n      dup3\n      add\n      and\n      dup3\n      add\n      dup1\n      0x40\n      mstore\n      pop\n      dup2\n      add\n      swap1\n      tag_152\n      swap2\n      swap1\n      tag_153\n      jump\t// in\n    tag_152:\n        /* \"Decentralized Autonomous Venture Capital Fund (DAVC)/sol1.sol\":2543:2593  uint256 voterBalance = token.balanceOf(msg.sender) */\n      swap1\n      pop\n        /* \"Decentralized Autonomous Venture Capital Fund (DAVC)/sol1.sol\":2627:2628  0 */\n      0x00\n        /* \"Decentralized Autonomous Venture Capital Fund (DAVC)/sol1.sol\":2612:2624  voterBalance */\n      dup2\n        /* \"Decentralized Autonomous Venture Capital Fund (DAVC)/sol1.sol\":2612:2628  voterBalance > 0 */\n      gt\n        /* \"Decentralized Autonomous Venture Capital Fund (DAVC)/sol1.sol\":2604:2657  require(voterBalance > 0, \"Must hold tokens to vote\") */\n      tag_154\n      jumpi\n      mload(0x40)\n      0x08c379a000000000000000000000000000000000000000000000000000000000\n      dup2\n      mstore\n      0x04\n      add\n      tag_155\n      swap1\n      tag_156\n      jump\t// in\n    tag_155:\n      mload(0x40)\n      dup1\n      swap2\n      sub\n      swap1\n      revert\n    tag_154:\n        /* \"Decentralized Autonomous Venture Capital Fund (DAVC)/sol1.sol\":2674:2681  voteFor */\n      dup2\n        /* \"Decentralized Autonomous Venture Capital Fund (DAVC)/sol1.sol\":2670:2839  if (voteFor) {... */\n      iszero\n      tag_157\n      jumpi\n        /* \"Decentralized Autonomous Venture Capital Fund (DAVC)/sol1.sol\":2732:2744  voterBalance */\n      dup1\n        /* \"Decentralized Autonomous Venture Capital Fund (DAVC)/sol1.sol\":2698:2707  proposals */\n      0x01\n        /* \"Decentralized Autonomous Venture Capital Fund (DAVC)/sol1.sol\":2708:2718  proposalId */\n      dup5\n        /* \"Decentralized Autonomous Venture Capital Fund (DAVC)/sol1.sol\":2698:2719  proposals[proposalId] */\n      dup2\n      sload\n      dup2\n      lt\n      tag_158\n      jumpi\n      tag_159\n      tag_93\n      jump\t// in\n    tag_159:\n    tag_158:\n      swap1\n      0x00\n      mstore\n      keccak256(0x00, 0x20)\n      swap1\n      0x06\n      mul\n      add\n        /* \"Decentralized Autonomous Venture Capital Fund (DAVC)/sol1.sol\":2698:2728  proposals[proposalId].votesFor */\n      0x02\n      add\n      0x00\n        /* \"Decentralized Autonomous Venture Capital Fund (DAVC)/sol1.sol\":2698:2744  proposals[proposalId].votesFor += voterBalance */\n      dup3\n      dup3\n      sload\n      tag_161\n      swap2\n      swap1\n      tag_79\n      jump\t// in\n    tag_161:\n      swap3\n      pop\n      pop\n      dup2\n      swap1\n      sstore\n      pop\n        /* \"Decentralized Autonomous Venture Capital Fund (DAVC)/sol1.sol\":2670:2839  if (voteFor) {... */\n      jump(tag_162)\n    tag_157:\n        /* \"Decentralized Autonomous Venture Capital Fund (DAVC)/sol1.sol\":2815:2827  voterBalance */\n      dup1\n        /* \"Decentralized Autonomous Venture Capital Fund (DAVC)/sol1.sol\":2777:2786  proposals */\n      0x01\n        /* \"Decentralized Autonomous Venture Capital Fund (DAVC)/sol1.sol\":2787:2797  proposalId */\n      dup5\n        /* \"Decentralized Autonomous Venture Capital Fund (DAVC)/sol1.sol\":2777:2798  proposals[proposalId] */\n      dup2\n      sload\n      dup2\n      lt\n      tag_163\n      jumpi\n      tag_164\n      tag_93\n      jump\t// in\n    tag_164:\n    tag_163:\n      swap1\n      0x00\n      mstore\n      keccak256(0x00, 0x20)\n      swap1\n      0x06\n      mul\n      add\n        /* \"Decentralized Autonomous Venture Capital Fund (DAVC)/sol1.sol\":2777:2811  proposals[proposalId].votesAgainst */\n      0x03\n      add\n      0x00\n        /* \"Decentralized Autonomous Venture Capital Fund (DAVC)/sol1.sol\":2777:2827  proposals[proposalId].votesAgainst += voterBalance */\n      dup3\n      dup3\n      sload\n      tag_166\n      swap2\n      swap1\n      tag_79\n      jump\t// in\n    tag_166:\n      swap3\n      pop\n      pop\n      dup2\n      swap1\n      sstore\n      pop\n        /* \"Decentralized Autonomous Venture Capital Fund (DAVC)/sol1.sol\":2670:2839  if (voteFor) {... */\n    tag_162:\n        /* \"Decentralized Autonomous Venture Capital Fund (DAVC)/sol1.sol\":2886:2890  true */\n      0x01\n        /* \"Decentralized Autonomous Venture Capital Fund (DAVC)/sol1.sol\":2851:2859  hasVoted */\n      0x05\n        /* \"Decentralized Autonomous Venture Capital Fund (DAVC)/sol1.sol\":2851:2871  hasVoted[proposalId] */\n      0x00\n        /* \"Decentralized Autonomous Venture Capital Fund (DAVC)/sol1.sol\":2860:2870  proposalId */\n      dup6\n        /* \"Decentralized Autonomous Venture Capital Fund (DAVC)/sol1.sol\":2851:2871  hasVoted[proposalId] */\n      dup2\n      mstore\n      0x20\n      add\n      swap1\n      dup2\n      mstore\n      0x20\n      add\n      0x00\n      keccak256\n        /* \"Decentralized Autonomous Venture Capital Fund (DAVC)/sol1.sol\":2851:2883  hasVoted[proposalId][msg.sender] */\n      0x00\n        /* \"Decentralized Autonomous Venture Capital Fund (DAVC)/sol1.sol\":2872:2882  msg.sender */\n      caller\n        /* \"Decentralized Autonomous Venture Capital Fund (DAVC)/sol1.sol\":2851:2883  hasVoted[proposalId][msg.sender] */\n      0xffffffffffffffffffffffffffffffffffffffff\n      and\n      0xffffffffffffffffffffffffffffffffffffffff\n      and\n      dup2\n      mstore\n      0x20\n      add\n      swap1\n      dup2\n      mstore\n      0x20\n      add\n      0x00\n      keccak256\n      0x00\n        /* \"Decentralized Autonomous Venture Capital Fund (DAVC)/sol1.sol\":2851:2890  hasVoted[proposalId][msg.sender] = true */\n      0x0100\n      exp\n      dup2\n      sload\n      dup2\n      0xff\n      mul\n      not\n      and\n      swap1\n      dup4\n      iszero\n      iszero\n      mul\n      or\n      swap1\n      sstore\n      pop\n        /* \"Decentralized Autonomous Venture Capital Fund (DAVC)/sol1.sol\":2922:2926  true */\n      0x01\n        /* \"Decentralized Autonomous Venture Capital Fund (DAVC)/sol1.sol\":2901:2907  voters */\n      0x04\n        /* \"Decentralized Autonomous Venture Capital Fund (DAVC)/sol1.sol\":2901:2919  voters[msg.sender] */\n      0x00\n        /* \"Decentralized Autonomous Venture Capital Fund (DAVC)/sol1.sol\":2908:2918  msg.sender */\n      caller\n        /* \"Decentralized Autonomous Venture Capital Fund (DAVC)/sol1.sol\":2901:2919  voters[msg.sender] */\n      0xffffffffffffffffffffffffffffffffffffffff\n      and\n      0xffffffffffffffffffffffffffffffffffffffff\n      and\n      dup2\n      mstore\n      0x20\n      add\n      swap1\n      dup2\n      mstore\n      0x20\n      add\n      0x00\n      keccak256\n      0x00\n        /* \"Decentralized Autonomous Venture Capital Fund (DAVC)/sol1.sol\":2901:2926  voters[msg.sender] = true */\n      0x0100\n      exp\n      dup2\n      sload\n      dup2\n      0xff\n      mul\n      not\n      and\n      swap1\n      dup4\n      iszero\n      iszero\n      mul\n      or\n      swap1\n      sstore\n      pop\n        /* \"Decentralized Autonomous Venture Capital Fund (DAVC)/sol1.sol\":2944:2982  Voted(proposalId, msg.sender, voteFor) */\n      0xf2913dbe661ee2acc4a046d8fbcdc792373bda34c41c6086484b5345e5785e5f\n        /* \"Decentralized Autonomous Venture Capital Fund (DAVC)/sol1.sol\":2950:2960  proposalId */\n      dup4\n        /* \"Decentralized Autonomous Venture Capital Fund (DAVC)/sol1.sol\":2962:2972  msg.sender */\n      caller\n        /* \"Decentralized Autonomous Venture Capital Fund (DAVC)/sol1.sol\":2974:2981  voteFor */\n      dup5\n        /* \"Decentralized Autonomous Venture Capital Fund (DAVC)/sol1.sol\":2944:2982  Voted(proposalId, msg.sender, voteFor) */\n      mload(0x40)\n      tag_167\n      swap4\n      swap3\n      swap2\n      swap1\n      tag_168\n      jump\t// in\n    tag_167:\n      mload(0x40)\n      dup1\n      swap2\n      sub\n      swap1\n      log1\n        /* \"Decentralized Autonomous Venture Capital Fund (DAVC)/sol1.sol\":2290:2990  {... */\n      pop\n        /* \"Decentralized Autonomous Venture Capital Fund (DAVC)/sol1.sol\":2235:2990  function vote(uint256 proposalId, bool voteFor) public {... */\n      pop\n      pop\n      jump\t// out\n        /* \"Decentralized Autonomous Venture Capital Fund (DAVC)/sol1.sol\":1167:1195  uint256 public proposalCount */\n    tag_56:\n      sload(0x02)\n      dup2\n      jump\t// out\n        /* \"Decentralized Autonomous Venture Capital Fund (DAVC)/sol1.sol\":734:831  function transferOwnership(address newOwner) public onlyOwner {... */\n    tag_60:\n        /* \"Decentralized Autonomous Venture Capital Fund (DAVC)/sol1.sol\":674:679  owner */\n      0x00\n      dup1\n      sload\n      swap1\n      0x0100\n      exp\n      swap1\n      div\n      0xffffffffffffffffffffffffffffffffffffffff\n      and\n        /* \"Decentralized Autonomous Venture Capital Fund (DAVC)/sol1.sol\":660:679  msg.sender == owner */\n      0xffffffffffffffffffffffffffffffffffffffff\n      and\n        /* \"Decentralized Autonomous Venture Capital Fund (DAVC)/sol1.sol\":660:670  msg.sender */\n      caller\n        /* \"Decentralized Autonomous Venture Capital Fund (DAVC)/sol1.sol\":660:679  msg.sender == owner */\n      0xffffffffffffffffffffffffffffffffffffffff\n      and\n      eq\n        /* \"Decentralized Autonomous Venture Capital Fund (DAVC)/sol1.sol\":652:706  require(msg.sender == owner, \"Not the contract owner\") */\n      tag_170\n      jumpi\n      mload(0x40)\n      0x08c379a000000000000000000000000000000000000000000000000000000000\n      dup2\n      mstore\n      0x04\n      add\n      tag_171\n      swap1\n      tag_76\n      jump\t// in\n    tag_171:\n      mload(0x40)\n      dup1\n      swap2\n      sub\n      swap1\n      revert\n    tag_170:\n        /* \"Decentralized Autonomous Venture Capital Fund (DAVC)/sol1.sol\":815:823  newOwner */\n      dup1\n        /* \"Decentralized Autonomous Venture Capital Fund (DAVC)/sol1.sol\":807:812  owner */\n      0x00\n      dup1\n        /* \"Decentralized Autonomous Venture Capital Fund (DAVC)/sol1.sol\":807:823  owner = newOwner */\n      0x0100\n      exp\n      dup2\n      sload\n      dup2\n      0xffffffffffffffffffffffffffffffffffffffff\n      mul\n      not\n      and\n      swap1\n      dup4\n      0xffffffffffffffffffffffffffffffffffffffff\n      and\n      mul\n      or\n      swap1\n      sstore\n      pop\n        /* \"Decentralized Autonomous Venture Capital Fund (DAVC)/sol1.sol\":734:831  function transferOwnership(address newOwner) public onlyOwner {... */\n      pop\n      jump\t// out\n        /* \"Decentralized Autonomous Venture Capital Fund (DAVC)/sol1.sol\":1202:1221  IERC20 public token */\n    tag_62:\n      0x03\n      0x00\n      swap1\n      sload\n      swap1\n      0x0100\n      exp\n      swap1\n      div\n      0xffffffffffffffffffffffffffffffffffffffff\n      and\n      dup2\n      jump\t// out\n        /* \"Decentralized Autonomous Venture Capital Fund (DAVC)/sol1.sol\":3759:3918  function investInProject(address project) internal {... */\n    tag_128:\n      pop\n      jump\t// out\n        /* \"#utility.yul\":7:82   */\n    tag_174:\n        /* \"#utility.yul\":40:46   */\n      0x00\n        /* \"#utility.yul\":73:75   */\n      0x40\n        /* \"#utility.yul\":67:76   */\n      mload\n        /* \"#utility.yul\":57:76   */\n      swap1\n      pop\n        /* \"#utility.yul\":7:82   */\n      swap1\n      jump\t// out\n        /* \"#utility.yul\":88:205   */\n    tag_175:\n        /* \"#utility.yul\":197:198   */\n      0x00\n        /* \"#utility.yul\":194:195   */\n      dup1\n        /* \"#utility.yul\":187:199   */\n      revert\n        /* \"#utility.yul\":211:328   */\n    tag_176:\n        /* \"#utility.yul\":320:321   */\n      0x00\n        /* \"#utility.yul\":317:318   */\n      dup1\n        /* \"#utility.yul\":310:322   */\n      revert\n        /* \"#utility.yul\":334:411   */\n    tag_177:\n        /* \"#utility.yul\":371:378   */\n      0x00\n        /* \"#utility.yul\":400:405   */\n      dup2\n        /* \"#utility.yul\":389:405   */\n      swap1\n      pop\n        /* \"#utility.yul\":334:411   */\n      swap2\n      swap1\n      pop\n      jump\t// out\n        /* \"#utility.yul\":417:539   */\n    tag_178:\n        /* \"#utility.yul\":490:514   */\n      tag_248\n        /* \"#utility.yul\":508:513   */\n      dup2\n        /* \"#utility.yul\":490:514   */\n      tag_177\n      jump\t// in\n    tag_248:\n        /* \"#utility.yul\":483:488   */\n      dup2\n        /* \"#utility.yul\":480:515   */\n      eq\n        /* \"#utility.yul\":470:533   */\n      tag_249\n      jumpi\n        /* \"#utility.yul\":529:530   */\n      0x00\n        /* \"#utility.yul\":526:527   */\n      dup1\n        /* \"#utility.yul\":519:531   */\n      revert\n        /* \"#utility.yul\":470:533   */\n    tag_249:\n        /* \"#utility.yul\":417:539   */\n      pop\n      jump\t// out\n        /* \"#utility.yul\":545:684   */\n    tag_179:\n        /* \"#utility.yul\":591:596   */\n      0x00\n        /* \"#utility.yul\":629:635   */\n      dup2\n        /* \"#utility.yul\":616:636   */\n      calldataload\n        /* \"#utility.yul\":607:636   */\n      swap1\n      pop\n        /* \"#utility.yul\":645:678   */\n      tag_251\n        /* \"#utility.yul\":672:677   */\n      dup2\n        /* \"#utility.yul\":645:678   */\n      tag_178\n      jump\t// in\n    tag_251:\n        /* \"#utility.yul\":545:684   */\n      swap3\n      swap2\n      pop\n      pop\n      jump\t// out\n        /* \"#utility.yul\":690:1019   */\n    tag_18:\n        /* \"#utility.yul\":749:755   */\n      0x00\n        /* \"#utility.yul\":798:800   */\n      0x20\n        /* \"#utility.yul\":786:795   */\n      dup3\n        /* \"#utility.yul\":777:784   */\n      dup5\n        /* \"#utility.yul\":773:796   */\n      sub\n        /* \"#utility.yul\":769:801   */\n      slt\n        /* \"#utility.yul\":766:885   */\n      iszero\n      tag_253\n      jumpi\n        /* \"#utility.yul\":804:883   */\n      tag_254\n      tag_175\n      jump\t// in\n    tag_254:\n        /* \"#utility.yul\":766:885   */\n    tag_253:\n        /* \"#utility.yul\":924:925   */\n      0x00\n        /* \"#utility.yul\":949:1002   */\n      tag_255\n        /* \"#utility.yul\":994:1001   */\n      dup5\n        /* \"#utility.yul\":985:991   */\n      dup3\n        /* \"#utility.yul\":974:983   */\n      dup6\n        /* \"#utility.yul\":970:992   */\n      add\n        /* \"#utility.yul\":949:1002   */\n      tag_179\n      jump\t// in\n    tag_255:\n        /* \"#utility.yul\":939:1002   */\n      swap2\n      pop\n        /* \"#utility.yul\":895:1012   */\n      pop\n        /* \"#utility.yul\":690:1019   */\n      swap3\n      swap2\n      pop\n      pop\n      jump\t// out\n        /* \"#utility.yul\":1025:1151   */\n    tag_180:\n        /* \"#utility.yul\":1062:1069   */\n      0x00\n        /* \"#utility.yul\":1102:1144   */\n      0xffffffffffffffffffffffffffffffffffffffff\n        /* \"#utility.yul\":1095:1100   */\n      dup3\n        /* \"#utility.yul\":1091:1145   */\n      and\n        /* \"#utility.yul\":1080:1145   */\n      swap1\n      pop\n        /* \"#utility.yul\":1025:1151   */\n      swap2\n      swap1\n      pop\n      jump\t// out\n        /* \"#utility.yul\":1157:1253   */\n    tag_181:\n        /* \"#utility.yul\":1194:1201   */\n      0x00\n        /* \"#utility.yul\":1223:1247   */\n      tag_258\n        /* \"#utility.yul\":1241:1246   */\n      dup3\n        /* \"#utility.yul\":1223:1247   */\n      tag_180\n      jump\t// in\n    tag_258:\n        /* \"#utility.yul\":1212:1247   */\n      swap1\n      pop\n        /* \"#utility.yul\":1157:1253   */\n      swap2\n      swap1\n      pop\n      jump\t// out\n        /* \"#utility.yul\":1259:1377   */\n    tag_182:\n        /* \"#utility.yul\":1346:1370   */\n      tag_260\n        /* \"#utility.yul\":1364:1369   */\n      dup2\n        /* \"#utility.yul\":1346:1370   */\n      tag_181\n      jump\t// in\n    tag_260:\n        /* \"#utility.yul\":1341:1344   */\n      dup3\n        /* \"#utility.yul\":1334:1371   */\n      mstore\n        /* \"#utility.yul\":1259:1377   */\n      pop\n      pop\n      jump\t// out\n        /* \"#utility.yul\":1383:1482   */\n    tag_183:\n        /* \"#utility.yul\":1435:1441   */\n      0x00\n        /* \"#utility.yul\":1469:1474   */\n      dup2\n        /* \"#utility.yul\":1463:1475   */\n      mload\n        /* \"#utility.yul\":1453:1475   */\n      swap1\n      pop\n        /* \"#utility.yul\":1383:1482   */\n      swap2\n      swap1\n      pop\n      jump\t// out\n        /* \"#utility.yul\":1488:1657   */\n    tag_184:\n        /* \"#utility.yul\":1572:1583   */\n      0x00\n        /* \"#utility.yul\":1606:1612   */\n      dup3\n        /* \"#utility.yul\":1601:1604   */\n      dup3\n        /* \"#utility.yul\":1594:1613   */\n      mstore\n        /* \"#utility.yul\":1646:1650   */\n      0x20\n        /* \"#utility.yul\":1641:1644   */\n      dup3\n        /* \"#utility.yul\":1637:1651   */\n      add\n        /* \"#utility.yul\":1622:1651   */\n      swap1\n      pop\n        /* \"#utility.yul\":1488:1657   */\n      swap3\n      swap2\n      pop\n      pop\n      jump\t// out\n        /* \"#utility.yul\":1663:1802   */\n    tag_185:\n        /* \"#utility.yul\":1752:1758   */\n      dup3\n        /* \"#utility.yul\":1747:1750   */\n      dup2\n        /* \"#utility.yul\":1742:1745   */\n      dup4\n        /* \"#utility.yul\":1736:1759   */\n      mcopy\n        /* \"#utility.yul\":1793:1794   */\n      0x00\n        /* \"#utility.yul\":1784:1790   */\n      dup4\n        /* \"#utility.yul\":1779:1782   */\n      dup4\n        /* \"#utility.yul\":1775:1791   */\n      add\n        /* \"#utility.yul\":1768:1795   */\n      mstore\n        /* \"#utility.yul\":1663:1802   */\n      pop\n      pop\n      pop\n      jump\t// out\n        /* \"#utility.yul\":1808:1910   */\n    tag_186:\n        /* \"#utility.yul\":1849:1855   */\n      0x00\n        /* \"#utility.yul\":1900:1902   */\n      0x1f\n        /* \"#utility.yul\":1896:1903   */\n      not\n        /* \"#utility.yul\":1891:1893   */\n      0x1f\n        /* \"#utility.yul\":1884:1889   */\n      dup4\n        /* \"#utility.yul\":1880:1894   */\n      add\n        /* \"#utility.yul\":1876:1904   */\n      and\n        /* \"#utility.yul\":1866:1904   */\n      swap1\n      pop\n        /* \"#utility.yul\":1808:1910   */\n      swap2\n      swap1\n      pop\n      jump\t// out\n        /* \"#utility.yul\":1916:2293   */\n    tag_187:\n        /* \"#utility.yul\":2004:2007   */\n      0x00\n        /* \"#utility.yul\":2032:2071   */\n      tag_266\n        /* \"#utility.yul\":2065:2070   */\n      dup3\n        /* \"#utility.yul\":2032:2071   */\n      tag_183\n      jump\t// in\n    tag_266:\n        /* \"#utility.yul\":2087:2158   */\n      tag_267\n        /* \"#utility.yul\":2151:2157   */\n      dup2\n        /* \"#utility.yul\":2146:2149   */\n      dup6\n        /* \"#utility.yul\":2087:2158   */\n      tag_184\n      jump\t// in\n    tag_267:\n        /* \"#utility.yul\":2080:2158   */\n      swap4\n      pop\n        /* \"#utility.yul\":2167:2232   */\n      tag_268\n        /* \"#utility.yul\":2225:2231   */\n      dup2\n        /* \"#utility.yul\":2220:2223   */\n      dup6\n        /* \"#utility.yul\":2213:2217   */\n      0x20\n        /* \"#utility.yul\":2206:2211   */\n      dup7\n        /* \"#utility.yul\":2202:2218   */\n      add\n        /* \"#utility.yul\":2167:2232   */\n      tag_185\n      jump\t// in\n    tag_268:\n        /* \"#utility.yul\":2257:2286   */\n      tag_269\n        /* \"#utility.yul\":2279:2285   */\n      dup2\n        /* \"#utility.yul\":2257:2286   */\n      tag_186\n      jump\t// in\n    tag_269:\n        /* \"#utility.yul\":2252:2255   */\n      dup5\n        /* \"#utility.yul\":2248:2287   */\n      add\n        /* \"#utility.yul\":2241:2287   */\n      swap2\n      pop\n        /* \"#utility.yul\":2008:2293   */\n      pop\n        /* \"#utility.yul\":1916:2293   */\n      swap3\n      swap2\n      pop\n      pop\n      jump\t// out\n        /* \"#utility.yul\":2299:2417   */\n    tag_188:\n        /* \"#utility.yul\":2386:2410   */\n      tag_271\n        /* \"#utility.yul\":2404:2409   */\n      dup2\n        /* \"#utility.yul\":2386:2410   */\n      tag_177\n      jump\t// in\n    tag_271:\n        /* \"#utility.yul\":2381:2384   */\n      dup3\n        /* \"#utility.yul\":2374:2411   */\n      mstore\n        /* \"#utility.yul\":2299:2417   */\n      pop\n      pop\n      jump\t// out\n        /* \"#utility.yul\":2423:2513   */\n    tag_189:\n        /* \"#utility.yul\":2457:2464   */\n      0x00\n        /* \"#utility.yul\":2500:2505   */\n      dup2\n        /* \"#utility.yul\":2493:2506   */\n      iszero\n        /* \"#utility.yul\":2486:2507   */\n      iszero\n        /* \"#utility.yul\":2475:2507   */\n      swap1\n      pop\n        /* \"#utility.yul\":2423:2513   */\n      swap2\n      swap1\n      pop\n      jump\t// out\n        /* \"#utility.yul\":2519:2628   */\n    tag_190:\n        /* \"#utility.yul\":2600:2621   */\n      tag_274\n        /* \"#utility.yul\":2615:2620   */\n      dup2\n        /* \"#utility.yul\":2600:2621   */\n      tag_189\n      jump\t// in\n    tag_274:\n        /* \"#utility.yul\":2595:2598   */\n      dup3\n        /* \"#utility.yul\":2588:2622   */\n      mstore\n        /* \"#utility.yul\":2519:2628   */\n      pop\n      pop\n      jump\t// out\n        /* \"#utility.yul\":2634:3488   */\n    tag_21:\n        /* \"#utility.yul\":2881:2885   */\n      0x00\n        /* \"#utility.yul\":2919:2922   */\n      0xc0\n        /* \"#utility.yul\":2908:2917   */\n      dup3\n        /* \"#utility.yul\":2904:2923   */\n      add\n        /* \"#utility.yul\":2896:2923   */\n      swap1\n      pop\n        /* \"#utility.yul\":2933:3004   */\n      tag_276\n        /* \"#utility.yul\":3001:3002   */\n      0x00\n        /* \"#utility.yul\":2990:2999   */\n      dup4\n        /* \"#utility.yul\":2986:3003   */\n      add\n        /* \"#utility.yul\":2977:2983   */\n      dup10\n        /* \"#utility.yul\":2933:3004   */\n      tag_182\n      jump\t// in\n    tag_276:\n        /* \"#utility.yul\":3051:3060   */\n      dup2\n        /* \"#utility.yul\":3045:3049   */\n      dup2\n        /* \"#utility.yul\":3041:3061   */\n      sub\n        /* \"#utility.yul\":3036:3038   */\n      0x20\n        /* \"#utility.yul\":3025:3034   */\n      dup4\n        /* \"#utility.yul\":3021:3039   */\n      add\n        /* \"#utility.yul\":3014:3062   */\n      mstore\n        /* \"#utility.yul\":3079:3157   */\n      tag_277\n        /* \"#utility.yul\":3152:3156   */\n      dup2\n        /* \"#utility.yul\":3143:3149   */\n      dup9\n        /* \"#utility.yul\":3079:3157   */\n      tag_187\n      jump\t// in\n    tag_277:\n        /* \"#utility.yul\":3071:3157   */\n      swap1\n      pop\n        /* \"#utility.yul\":3167:3239   */\n      tag_278\n        /* \"#utility.yul\":3235:3237   */\n      0x40\n        /* \"#utility.yul\":3224:3233   */\n      dup4\n        /* \"#utility.yul\":3220:3238   */\n      add\n        /* \"#utility.yul\":3211:3217   */\n      dup8\n        /* \"#utility.yul\":3167:3239   */\n      tag_188\n      jump\t// in\n    tag_278:\n        /* \"#utility.yul\":3249:3321   */\n      tag_279\n        /* \"#utility.yul\":3317:3319   */\n      0x60\n        /* \"#utility.yul\":3306:3315   */\n      dup4\n        /* \"#utility.yul\":3302:3320   */\n      add\n        /* \"#utility.yul\":3293:3299   */\n      dup7\n        /* \"#utility.yul\":3249:3321   */\n      tag_188\n      jump\t// in\n    tag_279:\n        /* \"#utility.yul\":3331:3398   */\n      tag_280\n        /* \"#utility.yul\":3393:3396   */\n      0x80\n        /* \"#utility.yul\":3382:3391   */\n      dup4\n        /* \"#utility.yul\":3378:3397   */\n      add\n        /* \"#utility.yul\":3369:3375   */\n      dup6\n        /* \"#utility.yul\":3331:3398   */\n      tag_190\n      jump\t// in\n    tag_280:\n        /* \"#utility.yul\":3408:3481   */\n      tag_281\n        /* \"#utility.yul\":3476:3479   */\n      0xa0\n        /* \"#utility.yul\":3465:3474   */\n      dup4\n        /* \"#utility.yul\":3461:3480   */\n      add\n        /* \"#utility.yul\":3452:3458   */\n      dup5\n        /* \"#utility.yul\":3408:3481   */\n      tag_188\n      jump\t// in\n    tag_281:\n        /* \"#utility.yul\":2634:3488   */\n      swap8\n      swap7\n      pop\n      pop\n      pop\n      pop\n      pop\n      pop\n      pop\n      jump\t// out\n        /* \"#utility.yul\":3494:3716   */\n    tag_25:\n        /* \"#utility.yul\":3587:3591   */\n      0x00\n        /* \"#utility.yul\":3625:3627   */\n      0x20\n        /* \"#utility.yul\":3614:3623   */\n      dup3\n        /* \"#utility.yul\":3610:3628   */\n      add\n        /* \"#utility.yul\":3602:3628   */\n      swap1\n      pop\n        /* \"#utility.yul\":3638:3709   */\n      tag_283\n        /* \"#utility.yul\":3706:3707   */\n      0x00\n        /* \"#utility.yul\":3695:3704   */\n      dup4\n        /* \"#utility.yul\":3691:3708   */\n      add\n        /* \"#utility.yul\":3682:3688   */\n      dup5\n        /* \"#utility.yul\":3638:3709   */\n      tag_188\n      jump\t// in\n    tag_283:\n        /* \"#utility.yul\":3494:3716   */\n      swap3\n      swap2\n      pop\n      pop\n      jump\t// out\n        /* \"#utility.yul\":3722:3844   */\n    tag_191:\n        /* \"#utility.yul\":3795:3819   */\n      tag_285\n        /* \"#utility.yul\":3813:3818   */\n      dup2\n        /* \"#utility.yul\":3795:3819   */\n      tag_181\n      jump\t// in\n    tag_285:\n        /* \"#utility.yul\":3788:3793   */\n      dup2\n        /* \"#utility.yul\":3785:3820   */\n      eq\n        /* \"#utility.yul\":3775:3838   */\n      tag_286\n      jumpi\n        /* \"#utility.yul\":3834:3835   */\n      0x00\n        /* \"#utility.yul\":3831:3832   */\n      dup1\n        /* \"#utility.yul\":3824:3836   */\n      revert\n        /* \"#utility.yul\":3775:3838   */\n    tag_286:\n        /* \"#utility.yul\":3722:3844   */\n      pop\n      jump\t// out\n        /* \"#utility.yul\":3850:3989   */\n    tag_192:\n        /* \"#utility.yul\":3896:3901   */\n      0x00\n        /* \"#utility.yul\":3934:3940   */\n      dup2\n        /* \"#utility.yul\":3921:3941   */\n      calldataload\n        /* \"#utility.yul\":3912:3941   */\n      swap1\n      pop\n        /* \"#utility.yul\":3950:3983   */\n      tag_288\n        /* \"#utility.yul\":3977:3982   */\n      dup2\n        /* \"#utility.yul\":3950:3983   */\n      tag_191\n      jump\t// in\n    tag_288:\n        /* \"#utility.yul\":3850:3989   */\n      swap3\n      swap2\n      pop\n      pop\n      jump\t// out\n        /* \"#utility.yul\":3995:4112   */\n    tag_193:\n        /* \"#utility.yul\":4104:4105   */\n      0x00\n        /* \"#utility.yul\":4101:4102   */\n      dup1\n        /* \"#utility.yul\":4094:4106   */\n      revert\n        /* \"#utility.yul\":4118:4235   */\n    tag_194:\n        /* \"#utility.yul\":4227:4228   */\n      0x00\n        /* \"#utility.yul\":4224:4225   */\n      dup1\n        /* \"#utility.yul\":4217:4229   */\n      revert\n        /* \"#utility.yul\":4241:4421   */\n    tag_195:\n        /* \"#utility.yul\":4289:4366   */\n      0x4e487b7100000000000000000000000000000000000000000000000000000000\n        /* \"#utility.yul\":4286:4287   */\n      0x00\n        /* \"#utility.yul\":4279:4367   */\n      mstore\n        /* \"#utility.yul\":4386:4390   */\n      0x41\n        /* \"#utility.yul\":4383:4384   */\n      0x04\n        /* \"#utility.yul\":4376:4391   */\n      mstore\n        /* \"#utility.yul\":4410:4414   */\n      0x24\n        /* \"#utility.yul\":4407:4408   */\n      0x00\n        /* \"#utility.yul\":4400:4415   */\n      revert\n        /* \"#utility.yul\":4427:4708   */\n    tag_196:\n        /* \"#utility.yul\":4510:4537   */\n      tag_293\n        /* \"#utility.yul\":4532:4536   */\n      dup3\n        /* \"#utility.yul\":4510:4537   */\n      tag_186\n      jump\t// in\n    tag_293:\n        /* \"#utility.yul\":4502:4508   */\n      dup2\n        /* \"#utility.yul\":4498:4538   */\n      add\n        /* \"#utility.yul\":4640:4646   */\n      dup2\n        /* \"#utility.yul\":4628:4638   */\n      dup2\n        /* \"#utility.yul\":4625:4647   */\n      lt\n        /* \"#utility.yul\":4604:4622   */\n      0xffffffffffffffff\n        /* \"#utility.yul\":4592:4602   */\n      dup3\n        /* \"#utility.yul\":4589:4623   */\n      gt\n        /* \"#utility.yul\":4586:4648   */\n      or\n        /* \"#utility.yul\":4583:4671   */\n      iszero\n      tag_294\n      jumpi\n        /* \"#utility.yul\":4651:4669   */\n      tag_295\n      tag_195\n      jump\t// in\n    tag_295:\n        /* \"#utility.yul\":4583:4671   */\n    tag_294:\n        /* \"#utility.yul\":4691:4701   */\n      dup1\n        /* \"#utility.yul\":4687:4689   */\n      0x40\n        /* \"#utility.yul\":4680:4702   */\n      mstore\n        /* \"#utility.yul\":4470:4708   */\n      pop\n        /* \"#utility.yul\":4427:4708   */\n      pop\n      pop\n      jump\t// out\n        /* \"#utility.yul\":4714:4843   */\n    tag_197:\n        /* \"#utility.yul\":4748:4754   */\n      0x00\n        /* \"#utility.yul\":4775:4795   */\n      tag_297\n      tag_174\n      jump\t// in\n    tag_297:\n        /* \"#utility.yul\":4765:4795   */\n      swap1\n      pop\n        /* \"#utility.yul\":4804:4837   */\n      tag_298\n        /* \"#utility.yul\":4832:4836   */\n      dup3\n        /* \"#utility.yul\":4824:4830   */\n      dup3\n        /* \"#utility.yul\":4804:4837   */\n      tag_196\n      jump\t// in\n    tag_298:\n        /* \"#utility.yul\":4714:4843   */\n      swap2\n      swap1\n      pop\n      jump\t// out\n        /* \"#utility.yul\":4849:5157   */\n    tag_198:\n        /* \"#utility.yul\":4911:4915   */\n      0x00\n        /* \"#utility.yul\":5001:5019   */\n      0xffffffffffffffff\n        /* \"#utility.yul\":4993:4999   */\n      dup3\n        /* \"#utility.yul\":4990:5020   */\n      gt\n        /* \"#utility.yul\":4987:5043   */\n      iszero\n      tag_300\n      jumpi\n        /* \"#utility.yul\":5023:5041   */\n      tag_301\n      tag_195\n      jump\t// in\n    tag_301:\n        /* \"#utility.yul\":4987:5043   */\n    tag_300:\n        /* \"#utility.yul\":5061:5090   */\n      tag_302\n        /* \"#utility.yul\":5083:5089   */\n      dup3\n        /* \"#utility.yul\":5061:5090   */\n      tag_186\n      jump\t// in\n    tag_302:\n        /* \"#utility.yul\":5053:5090   */\n      swap1\n      pop\n        /* \"#utility.yul\":5145:5149   */\n      0x20\n        /* \"#utility.yul\":5139:5143   */\n      dup2\n        /* \"#utility.yul\":5135:5150   */\n      add\n        /* \"#utility.yul\":5127:5150   */\n      swap1\n      pop\n        /* \"#utility.yul\":4849:5157   */\n      swap2\n      swap1\n      pop\n      jump\t// out\n        /* \"#utility.yul\":5163:5311   */\n    tag_199:\n        /* \"#utility.yul\":5261:5267   */\n      dup3\n        /* \"#utility.yul\":5256:5259   */\n      dup2\n        /* \"#utility.yul\":5251:5254   */\n      dup4\n        /* \"#utility.yul\":5238:5268   */\n      calldatacopy\n        /* \"#utility.yul\":5302:5303   */\n      0x00\n        /* \"#utility.yul\":5293:5299   */\n      dup4\n        /* \"#utility.yul\":5288:5291   */\n      dup4\n        /* \"#utility.yul\":5284:5300   */\n      add\n        /* \"#utility.yul\":5277:5304   */\n      mstore\n        /* \"#utility.yul\":5163:5311   */\n      pop\n      pop\n      pop\n      jump\t// out\n        /* \"#utility.yul\":5317:5742   */\n    tag_200:\n        /* \"#utility.yul\":5395:5400   */\n      0x00\n        /* \"#utility.yul\":5420:5486   */\n      tag_305\n        /* \"#utility.yul\":5436:5485   */\n      tag_306\n        /* \"#utility.yul\":5478:5484   */\n      dup5\n        /* \"#utility.yul\":5436:5485   */\n      tag_198\n      jump\t// in\n    tag_306:\n        /* \"#utility.yul\":5420:5486   */\n      tag_197\n      jump\t// in\n    tag_305:\n        /* \"#utility.yul\":5411:5486   */\n      swap1\n      pop\n        /* \"#utility.yul\":5509:5515   */\n      dup3\n        /* \"#utility.yul\":5502:5507   */\n      dup2\n        /* \"#utility.yul\":5495:5516   */\n      mstore\n        /* \"#utility.yul\":5547:5551   */\n      0x20\n        /* \"#utility.yul\":5540:5545   */\n      dup2\n        /* \"#utility.yul\":5536:5552   */\n      add\n        /* \"#utility.yul\":5585:5588   */\n      dup5\n        /* \"#utility.yul\":5576:5582   */\n      dup5\n        /* \"#utility.yul\":5571:5574   */\n      dup5\n        /* \"#utility.yul\":5567:5583   */\n      add\n        /* \"#utility.yul\":5564:5589   */\n      gt\n        /* \"#utility.yul\":5561:5673   */\n      iszero\n      tag_307\n      jumpi\n        /* \"#utility.yul\":5592:5671   */\n      tag_308\n      tag_194\n      jump\t// in\n    tag_308:\n        /* \"#utility.yul\":5561:5673   */\n    tag_307:\n        /* \"#utility.yul\":5682:5736   */\n      tag_309\n        /* \"#utility.yul\":5729:5735   */\n      dup5\n        /* \"#utility.yul\":5724:5727   */\n      dup3\n        /* \"#utility.yul\":5719:5722   */\n      dup6\n        /* \"#utility.yul\":5682:5736   */\n      tag_199\n      jump\t// in\n    tag_309:\n        /* \"#utility.yul\":5401:5742   */\n      pop\n        /* \"#utility.yul\":5317:5742   */\n      swap4\n      swap3\n      pop\n      pop\n      pop\n      jump\t// out\n        /* \"#utility.yul\":5762:6102   */\n    tag_201:\n        /* \"#utility.yul\":5818:5823   */\n      0x00\n        /* \"#utility.yul\":5867:5870   */\n      dup3\n        /* \"#utility.yul\":5860:5864   */\n      0x1f\n        /* \"#utility.yul\":5852:5858   */\n      dup4\n        /* \"#utility.yul\":5848:5865   */\n      add\n        /* \"#utility.yul\":5844:5871   */\n      slt\n        /* \"#utility.yul\":5834:5956   */\n      tag_311\n      jumpi\n        /* \"#utility.yul\":5875:5954   */\n      tag_312\n      tag_193\n      jump\t// in\n    tag_312:\n        /* \"#utility.yul\":5834:5956   */\n    tag_311:\n        /* \"#utility.yul\":5992:5998   */\n      dup2\n        /* \"#utility.yul\":5979:5999   */\n      calldataload\n        /* \"#utility.yul\":6017:6096   */\n      tag_313\n        /* \"#utility.yul\":6092:6095   */\n      dup5\n        /* \"#utility.yul\":6084:6090   */\n      dup3\n        /* \"#utility.yul\":6077:6081   */\n      0x20\n        /* \"#utility.yul\":6069:6075   */\n      dup7\n        /* \"#utility.yul\":6065:6082   */\n      add\n        /* \"#utility.yul\":6017:6096   */\n      tag_200\n      jump\t// in\n    tag_313:\n        /* \"#utility.yul\":6008:6096   */\n      swap2\n      pop\n        /* \"#utility.yul\":5824:6102   */\n      pop\n        /* \"#utility.yul\":5762:6102   */\n      swap3\n      swap2\n      pop\n      pop\n      jump\t// out\n        /* \"#utility.yul\":6108:6762   */\n    tag_28:\n        /* \"#utility.yul\":6186:6192   */\n      0x00\n        /* \"#utility.yul\":6194:6200   */\n      dup1\n        /* \"#utility.yul\":6243:6245   */\n      0x40\n        /* \"#utility.yul\":6231:6240   */\n      dup4\n        /* \"#utility.yul\":6222:6229   */\n      dup6\n        /* \"#utility.yul\":6218:6241   */\n      sub\n        /* \"#utility.yul\":6214:6246   */\n      slt\n        /* \"#utility.yul\":6211:6330   */\n      iszero\n      tag_315\n      jumpi\n        /* \"#utility.yul\":6249:6328   */\n      tag_316\n      tag_175\n      jump\t// in\n    tag_316:\n        /* \"#utility.yul\":6211:6330   */\n    tag_315:\n        /* \"#utility.yul\":6369:6370   */\n      0x00\n        /* \"#utility.yul\":6394:6447   */\n      tag_317\n        /* \"#utility.yul\":6439:6446   */\n      dup6\n        /* \"#utility.yul\":6430:6436   */\n      dup3\n        /* \"#utility.yul\":6419:6428   */\n      dup7\n        /* \"#utility.yul\":6415:6437   */\n      add\n        /* \"#utility.yul\":6394:6447   */\n      tag_192\n      jump\t// in\n    tag_317:\n        /* \"#utility.yul\":6384:6447   */\n      swap3\n      pop\n        /* \"#utility.yul\":6340:6457   */\n      pop\n        /* \"#utility.yul\":6524:6526   */\n      0x20\n        /* \"#utility.yul\":6513:6522   */\n      dup4\n        /* \"#utility.yul\":6509:6527   */\n      add\n        /* \"#utility.yul\":6496:6528   */\n      calldataload\n        /* \"#utility.yul\":6555:6573   */\n      0xffffffffffffffff\n        /* \"#utility.yul\":6547:6553   */\n      dup2\n        /* \"#utility.yul\":6544:6574   */\n      gt\n        /* \"#utility.yul\":6541:6658   */\n      iszero\n      tag_318\n      jumpi\n        /* \"#utility.yul\":6577:6656   */\n      tag_319\n      tag_176\n      jump\t// in\n    tag_319:\n        /* \"#utility.yul\":6541:6658   */\n    tag_318:\n        /* \"#utility.yul\":6682:6745   */\n      tag_320\n        /* \"#utility.yul\":6737:6744   */\n      dup6\n        /* \"#utility.yul\":6728:6734   */\n      dup3\n        /* \"#utility.yul\":6717:6726   */\n      dup7\n        /* \"#utility.yul\":6713:6735   */\n      add\n        /* \"#utility.yul\":6682:6745   */\n      tag_201\n      jump\t// in\n    tag_320:\n        /* \"#utility.yul\":6672:6745   */\n      swap2\n      pop\n        /* \"#utility.yul\":6467:6755   */\n      pop\n        /* \"#utility.yul\":6108:6762   */\n      swap3\n      pop\n      swap3\n      swap1\n      pop\n      jump\t// out\n        /* \"#utility.yul\":6768:7242   */\n    tag_32:\n        /* \"#utility.yul\":6836:6842   */\n      0x00\n        /* \"#utility.yul\":6844:6850   */\n      dup1\n        /* \"#utility.yul\":6893:6895   */\n      0x40\n        /* \"#utility.yul\":6881:6890   */\n      dup4\n        /* \"#utility.yul\":6872:6879   */\n      dup6\n        /* \"#utility.yul\":6868:6891   */\n      sub\n        /* \"#utility.yul\":6864:6896   */\n      slt\n        /* \"#utility.yul\":6861:6980   */\n      iszero\n      tag_322\n      jumpi\n        /* \"#utility.yul\":6899:6978   */\n      tag_323\n      tag_175\n      jump\t// in\n    tag_323:\n        /* \"#utility.yul\":6861:6980   */\n    tag_322:\n        /* \"#utility.yul\":7019:7020   */\n      0x00\n        /* \"#utility.yul\":7044:7097   */\n      tag_324\n        /* \"#utility.yul\":7089:7096   */\n      dup6\n        /* \"#utility.yul\":7080:7086   */\n      dup3\n        /* \"#utility.yul\":7069:7078   */\n      dup7\n        /* \"#utility.yul\":7065:7087   */\n      add\n        /* \"#utility.yul\":7044:7097   */\n      tag_179\n      jump\t// in\n    tag_324:\n        /* \"#utility.yul\":7034:7097   */\n      swap3\n      pop\n        /* \"#utility.yul\":6990:7107   */\n      pop\n        /* \"#utility.yul\":7146:7148   */\n      0x20\n        /* \"#utility.yul\":7172:7225   */\n      tag_325\n        /* \"#utility.yul\":7217:7224   */\n      dup6\n        /* \"#utility.yul\":7208:7214   */\n      dup3\n        /* \"#utility.yul\":7197:7206   */\n      dup7\n        /* \"#utility.yul\":7193:7215   */\n      add\n        /* \"#utility.yul\":7172:7225   */\n      tag_192\n      jump\t// in\n    tag_325:\n        /* \"#utility.yul\":7162:7225   */\n      swap2\n      pop\n        /* \"#utility.yul\":7117:7235   */\n      pop\n        /* \"#utility.yul\":6768:7242   */\n      swap3\n      pop\n      swap3\n      swap1\n      pop\n      jump\t// out\n        /* \"#utility.yul\":7248:7458   */\n    tag_35:\n        /* \"#utility.yul\":7335:7339   */\n      0x00\n        /* \"#utility.yul\":7373:7375   */\n      0x20\n        /* \"#utility.yul\":7362:7371   */\n      dup3\n        /* \"#utility.yul\":7358:7376   */\n      add\n        /* \"#utility.yul\":7350:7376   */\n      swap1\n      pop\n        /* \"#utility.yul\":7386:7451   */\n      tag_327\n        /* \"#utility.yul\":7448:7449   */\n      0x00\n        /* \"#utility.yul\":7437:7446   */\n      dup4\n        /* \"#utility.yul\":7433:7450   */\n      add\n        /* \"#utility.yul\":7424:7430   */\n      dup5\n        /* \"#utility.yul\":7386:7451   */\n      tag_190\n      jump\t// in\n    tag_327:\n        /* \"#utility.yul\":7248:7458   */\n      swap3\n      swap2\n      pop\n      pop\n      jump\t// out\n        /* \"#utility.yul\":7464:7686   */\n    tag_45:\n        /* \"#utility.yul\":7557:7561   */\n      0x00\n        /* \"#utility.yul\":7595:7597   */\n      0x20\n        /* \"#utility.yul\":7584:7593   */\n      dup3\n        /* \"#utility.yul\":7580:7598   */\n      add\n        /* \"#utility.yul\":7572:7598   */\n      swap1\n      pop\n        /* \"#utility.yul\":7608:7679   */\n      tag_329\n        /* \"#utility.yul\":7676:7677   */\n      0x00\n        /* \"#utility.yul\":7665:7674   */\n      dup4\n        /* \"#utility.yul\":7661:7678   */\n      add\n        /* \"#utility.yul\":7652:7658   */\n      dup5\n        /* \"#utility.yul\":7608:7679   */\n      tag_182\n      jump\t// in\n    tag_329:\n        /* \"#utility.yul\":7464:7686   */\n      swap3\n      swap2\n      pop\n      pop\n      jump\t// out\n        /* \"#utility.yul\":7692:8021   */\n    tag_48:\n        /* \"#utility.yul\":7751:7757   */\n      0x00\n        /* \"#utility.yul\":7800:7802   */\n      0x20\n        /* \"#utility.yul\":7788:7797   */\n      dup3\n        /* \"#utility.yul\":7779:7786   */\n      dup5\n        /* \"#utility.yul\":7775:7798   */\n      sub\n        /* \"#utility.yul\":7771:7803   */\n      slt\n        /* \"#utility.yul\":7768:7887   */\n      iszero\n      tag_331\n      jumpi\n        /* \"#utility.yul\":7806:7885   */\n      tag_332\n      tag_175\n      jump\t// in\n    tag_332:\n        /* \"#utility.yul\":7768:7887   */\n    tag_331:\n        /* \"#utility.yul\":7926:7927   */\n      0x00\n        /* \"#utility.yul\":7951:8004   */\n      tag_333\n        /* \"#utility.yul\":7996:8003   */\n      dup5\n        /* \"#utility.yul\":7987:7993   */\n      dup3\n        /* \"#utility.yul\":7976:7985   */\n      dup6\n        /* \"#utility.yul\":7972:7994   */\n      add\n        /* \"#utility.yul\":7951:8004   */\n      tag_192\n      jump\t// in\n    tag_333:\n        /* \"#utility.yul\":7941:8004   */\n      swap2\n      pop\n        /* \"#utility.yul\":7897:8014   */\n      pop\n        /* \"#utility.yul\":7692:8021   */\n      swap3\n      swap2\n      pop\n      pop\n      jump\t// out\n        /* \"#utility.yul\":8027:8143   */\n    tag_202:\n        /* \"#utility.yul\":8097:8118   */\n      tag_335\n        /* \"#utility.yul\":8112:8117   */\n      dup2\n        /* \"#utility.yul\":8097:8118   */\n      tag_189\n      jump\t// in\n    tag_335:\n        /* \"#utility.yul\":8090:8095   */\n      dup2\n        /* \"#utility.yul\":8087:8119   */\n      eq\n        /* \"#utility.yul\":8077:8137   */\n      tag_336\n      jumpi\n        /* \"#utility.yul\":8133:8134   */\n      0x00\n        /* \"#utility.yul\":8130:8131   */\n      dup1\n        /* \"#utility.yul\":8123:8135   */\n      revert\n        /* \"#utility.yul\":8077:8137   */\n    tag_336:\n        /* \"#utility.yul\":8027:8143   */\n      pop\n      jump\t// out\n        /* \"#utility.yul\":8149:8282   */\n    tag_203:\n        /* \"#utility.yul\":8192:8197   */\n      0x00\n        /* \"#utility.yul\":8230:8236   */\n      dup2\n        /* \"#utility.yul\":8217:8237   */\n      calldataload\n        /* \"#utility.yul\":8208:8237   */\n      swap1\n      pop\n        /* \"#utility.yul\":8246:8276   */\n      tag_338\n        /* \"#utility.yul\":8270:8275   */\n      dup2\n        /* \"#utility.yul\":8246:8276   */\n      tag_202\n      jump\t// in\n    tag_338:\n        /* \"#utility.yul\":8149:8282   */\n      swap3\n      swap2\n      pop\n      pop\n      jump\t// out\n        /* \"#utility.yul\":8288:8756   */\n    tag_53:\n        /* \"#utility.yul\":8353:8359   */\n      0x00\n        /* \"#utility.yul\":8361:8367   */\n      dup1\n        /* \"#utility.yul\":8410:8412   */\n      0x40\n        /* \"#utility.yul\":8398:8407   */\n      dup4\n        /* \"#utility.yul\":8389:8396   */\n      dup6\n        /* \"#utility.yul\":8385:8408   */\n      sub\n        /* \"#utility.yul\":8381:8413   */\n      slt\n        /* \"#utility.yul\":8378:8497   */\n      iszero\n      tag_340\n      jumpi\n        /* \"#utility.yul\":8416:8495   */\n      tag_341\n      tag_175\n      jump\t// in\n    tag_341:\n        /* \"#utility.yul\":8378:8497   */\n    tag_340:\n        /* \"#utility.yul\":8536:8537   */\n      0x00\n        /* \"#utility.yul\":8561:8614   */\n      tag_342\n        /* \"#utility.yul\":8606:8613   */\n      dup6\n        /* \"#utility.yul\":8597:8603   */\n      dup3\n        /* \"#utility.yul\":8586:8595   */\n      dup7\n        /* \"#utility.yul\":8582:8604   */\n      add\n        /* \"#utility.yul\":8561:8614   */\n      tag_179\n      jump\t// in\n    tag_342:\n        /* \"#utility.yul\":8551:8614   */\n      swap3\n      pop\n        /* \"#utility.yul\":8507:8624   */\n      pop\n        /* \"#utility.yul\":8663:8665   */\n      0x20\n        /* \"#utility.yul\":8689:8739   */\n      tag_343\n        /* \"#utility.yul\":8731:8738   */\n      dup6\n        /* \"#utility.yul\":8722:8728   */\n      dup3\n        /* \"#utility.yul\":8711:8720   */\n      dup7\n        /* \"#utility.yul\":8707:8729   */\n      add\n        /* \"#utility.yul\":8689:8739   */\n      tag_203\n      jump\t// in\n    tag_343:\n        /* \"#utility.yul\":8679:8739   */\n      swap2\n      pop\n        /* \"#utility.yul\":8634:8749   */\n      pop\n        /* \"#utility.yul\":8288:8756   */\n      swap3\n      pop\n      swap3\n      swap1\n      pop\n      jump\t// out\n        /* \"#utility.yul\":8762:8822   */\n    tag_204:\n        /* \"#utility.yul\":8790:8793   */\n      0x00\n        /* \"#utility.yul\":8811:8816   */\n      dup2\n        /* \"#utility.yul\":8804:8816   */\n      swap1\n      pop\n        /* \"#utility.yul\":8762:8822   */\n      swap2\n      swap1\n      pop\n      jump\t// out\n        /* \"#utility.yul\":8828:8970   */\n    tag_205:\n        /* \"#utility.yul\":8878:8887   */\n      0x00\n        /* \"#utility.yul\":8911:8964   */\n      tag_346\n        /* \"#utility.yul\":8929:8963   */\n      tag_347\n        /* \"#utility.yul\":8938:8962   */\n      tag_348\n        /* \"#utility.yul\":8956:8961   */\n      dup5\n        /* \"#utility.yul\":8938:8962   */\n      tag_180\n      jump\t// in\n    tag_348:\n        /* \"#utility.yul\":8929:8963   */\n      tag_204\n      jump\t// in\n    tag_347:\n        /* \"#utility.yul\":8911:8964   */\n      tag_180\n      jump\t// in\n    tag_346:\n        /* \"#utility.yul\":8898:8964   */\n      swap1\n      pop\n        /* \"#utility.yul\":8828:8970   */\n      swap2\n      swap1\n      pop\n      jump\t// out\n        /* \"#utility.yul\":8976:9102   */\n    tag_206:\n        /* \"#utility.yul\":9026:9035   */\n      0x00\n        /* \"#utility.yul\":9059:9096   */\n      tag_350\n        /* \"#utility.yul\":9090:9095   */\n      dup3\n        /* \"#utility.yul\":9059:9096   */\n      tag_205\n      jump\t// in\n    tag_350:\n        /* \"#utility.yul\":9046:9096   */\n      swap1\n      pop\n        /* \"#utility.yul\":8976:9102   */\n      swap2\n      swap1\n      pop\n      jump\t// out\n        /* \"#utility.yul\":9108:9247   */\n    tag_207:\n        /* \"#utility.yul\":9171:9180   */\n      0x00\n        /* \"#utility.yul\":9204:9241   */\n      tag_352\n        /* \"#utility.yul\":9235:9240   */\n      dup3\n        /* \"#utility.yul\":9204:9241   */\n      tag_206\n      jump\t// in\n    tag_352:\n        /* \"#utility.yul\":9191:9241   */\n      swap1\n      pop\n        /* \"#utility.yul\":9108:9247   */\n      swap2\n      swap1\n      pop\n      jump\t// out\n        /* \"#utility.yul\":9253:9410   */\n    tag_208:\n        /* \"#utility.yul\":9353:9403   */\n      tag_354\n        /* \"#utility.yul\":9397:9402   */\n      dup2\n        /* \"#utility.yul\":9353:9403   */\n      tag_207\n      jump\t// in\n    tag_354:\n        /* \"#utility.yul\":9348:9351   */\n      dup3\n        /* \"#utility.yul\":9341:9404   */\n      mstore\n        /* \"#utility.yul\":9253:9410   */\n      pop\n      pop\n      jump\t// out\n        /* \"#utility.yul\":9416:9664   */\n    tag_64:\n        /* \"#utility.yul\":9522:9526   */\n      0x00\n        /* \"#utility.yul\":9560:9562   */\n      0x20\n        /* \"#utility.yul\":9549:9558   */\n      dup3\n        /* \"#utility.yul\":9545:9563   */\n      add\n        /* \"#utility.yul\":9537:9563   */\n      swap1\n      pop\n        /* \"#utility.yul\":9573:9657   */\n      tag_356\n        /* \"#utility.yul\":9654:9655   */\n      0x00\n        /* \"#utility.yul\":9643:9652   */\n      dup4\n        /* \"#utility.yul\":9639:9656   */\n      add\n        /* \"#utility.yul\":9630:9636   */\n      dup5\n        /* \"#utility.yul\":9573:9657   */\n      tag_208\n      jump\t// in\n    tag_356:\n        /* \"#utility.yul\":9416:9664   */\n      swap3\n      swap2\n      pop\n      pop\n      jump\t// out\n        /* \"#utility.yul\":9670:9850   */\n    tag_209:\n        /* \"#utility.yul\":9718:9795   */\n      0x4e487b7100000000000000000000000000000000000000000000000000000000\n        /* \"#utility.yul\":9715:9716   */\n      0x00\n        /* \"#utility.yul\":9708:9796   */\n      mstore\n        /* \"#utility.yul\":9815:9819   */\n      0x22\n        /* \"#utility.yul\":9812:9813   */\n      0x04\n        /* \"#utility.yul\":9805:9820   */\n      mstore\n        /* \"#utility.yul\":9839:9843   */\n      0x24\n        /* \"#utility.yul\":9836:9837   */\n      0x00\n        /* \"#utility.yul\":9829:9844   */\n      revert\n        /* \"#utility.yul\":9856:10176   */\n    tag_68:\n        /* \"#utility.yul\":9900:9906   */\n      0x00\n        /* \"#utility.yul\":9937:9938   */\n      0x02\n        /* \"#utility.yul\":9931:9935   */\n      dup3\n        /* \"#utility.yul\":9927:9939   */\n      div\n        /* \"#utility.yul\":9917:9939   */\n      swap1\n      pop\n        /* \"#utility.yul\":9984:9985   */\n      0x01\n        /* \"#utility.yul\":9978:9982   */\n      dup3\n        /* \"#utility.yul\":9974:9986   */\n      and\n        /* \"#utility.yul\":10005:10023   */\n      dup1\n        /* \"#utility.yul\":9995:10076   */\n      tag_359\n      jumpi\n        /* \"#utility.yul\":10061:10065   */\n      0x7f\n        /* \"#utility.yul\":10053:10059   */\n      dup3\n        /* \"#utility.yul\":10049:10066   */\n      and\n        /* \"#utility.yul\":10039:10066   */\n      swap2\n      pop\n        /* \"#utility.yul\":9995:10076   */\n    tag_359:\n        /* \"#utility.yul\":10123:10125   */\n      0x20\n        /* \"#utility.yul\":10115:10121   */\n      dup3\n        /* \"#utility.yul\":10112:10126   */\n      lt\n        /* \"#utility.yul\":10092:10110   */\n      dup2\n        /* \"#utility.yul\":10089:10127   */\n      sub\n        /* \"#utility.yul\":10086:10170   */\n      tag_360\n      jumpi\n        /* \"#utility.yul\":10142:10160   */\n      tag_361\n      tag_209\n      jump\t// in\n    tag_361:\n        /* \"#utility.yul\":10086:10170   */\n    tag_360:\n        /* \"#utility.yul\":9907:10176   */\n      pop\n        /* \"#utility.yul\":9856:10176   */\n      swap2\n      swap1\n      pop\n      jump\t// out\n        /* \"#utility.yul\":10182:10354   */\n    tag_210:\n        /* \"#utility.yul\":10322:10346   */\n      0x4e6f742074686520636f6e7472616374206f776e657200000000000000000000\n        /* \"#utility.yul\":10318:10319   */\n      0x00\n        /* \"#utility.yul\":10310:10316   */\n      dup3\n        /* \"#utility.yul\":10306:10320   */\n      add\n        /* \"#utility.yul\":10299:10347   */\n      mstore\n        /* \"#utility.yul\":10182:10354   */\n      pop\n      jump\t// out\n        /* \"#utility.yul\":10360:10726   */\n    tag_211:\n        /* \"#utility.yul\":10502:10505   */\n      0x00\n        /* \"#utility.yul\":10523:10590   */\n      tag_364\n        /* \"#utility.yul\":10587:10589   */\n      0x16\n        /* \"#utility.yul\":10582:10585   */\n      dup4\n        /* \"#utility.yul\":10523:10590   */\n      tag_184\n      jump\t// in\n    tag_364:\n        /* \"#utility.yul\":10516:10590   */\n      swap2\n      pop\n        /* \"#utility.yul\":10599:10692   */\n      tag_365\n        /* \"#utility.yul\":10688:10691   */\n      dup3\n        /* \"#utility.yul\":10599:10692   */\n      tag_210\n      jump\t// in\n    tag_365:\n        /* \"#utility.yul\":10717:10719   */\n      0x20\n        /* \"#utility.yul\":10712:10715   */\n      dup3\n        /* \"#utility.yul\":10708:10720   */\n      add\n        /* \"#utility.yul\":10701:10720   */\n      swap1\n      pop\n        /* \"#utility.yul\":10360:10726   */\n      swap2\n      swap1\n      pop\n      jump\t// out\n        /* \"#utility.yul\":10732:11151   */\n    tag_76:\n        /* \"#utility.yul\":10898:10902   */\n      0x00\n        /* \"#utility.yul\":10936:10938   */\n      0x20\n        /* \"#utility.yul\":10925:10934   */\n      dup3\n        /* \"#utility.yul\":10921:10939   */\n      add\n        /* \"#utility.yul\":10913:10939   */\n      swap1\n      pop\n        /* \"#utility.yul\":10985:10994   */\n      dup2\n        /* \"#utility.yul\":10979:10983   */\n      dup2\n        /* \"#utility.yul\":10975:10995   */\n      sub\n        /* \"#utility.yul\":10971:10972   */\n      0x00\n        /* \"#utility.yul\":10960:10969   */\n      dup4\n        /* \"#utility.yul\":10956:10973   */\n      add\n        /* \"#utility.yul\":10949:10996   */\n      mstore\n        /* \"#utility.yul\":11013:11144   */\n      tag_367\n        /* \"#utility.yul\":11139:11143   */\n      dup2\n        /* \"#utility.yul\":11013:11144   */\n      tag_211\n      jump\t// in\n    tag_367:\n        /* \"#utility.yul\":11005:11144   */\n      swap1\n      pop\n        /* \"#utility.yul\":10732:11151   */\n      swap2\n      swap1\n      pop\n      jump\t// out\n        /* \"#utility.yul\":11157:11337   */\n    tag_212:\n        /* \"#utility.yul\":11205:11282   */\n      0x4e487b7100000000000000000000000000000000000000000000000000000000\n        /* \"#utility.yul\":11202:11203   */\n      0x00\n        /* \"#utility.yul\":11195:11283   */\n      mstore\n        /* \"#utility.yul\":11302:11306   */\n      0x11\n        /* \"#utility.yul\":11299:11300   */\n      0x04\n        /* \"#utility.yul\":11292:11307   */\n      mstore\n        /* \"#utility.yul\":11326:11330   */\n      0x24\n        /* \"#utility.yul\":11323:11324   */\n      0x00\n        /* \"#utility.yul\":11316:11331   */\n      revert\n        /* \"#utility.yul\":11343:11534   */\n    tag_79:\n        /* \"#utility.yul\":11383:11386   */\n      0x00\n        /* \"#utility.yul\":11402:11422   */\n      tag_370\n        /* \"#utility.yul\":11420:11421   */\n      dup3\n        /* \"#utility.yul\":11402:11422   */\n      tag_177\n      jump\t// in\n    tag_370:\n        /* \"#utility.yul\":11397:11422   */\n      swap2\n      pop\n        /* \"#utility.yul\":11436:11456   */\n      tag_371\n        /* \"#utility.yul\":11454:11455   */\n      dup4\n        /* \"#utility.yul\":11436:11456   */\n      tag_177\n      jump\t// in\n    tag_371:\n        /* \"#utility.yul\":11431:11456   */\n      swap3\n      pop\n        /* \"#utility.yul\":11479:11480   */\n      dup3\n        /* \"#utility.yul\":11476:11477   */\n      dup3\n        /* \"#utility.yul\":11472:11481   */\n      add\n        /* \"#utility.yul\":11465:11481   */\n      swap1\n      pop\n        /* \"#utility.yul\":11500:11503   */\n      dup1\n        /* \"#utility.yul\":11497:11498   */\n      dup3\n        /* \"#utility.yul\":11494:11504   */\n      gt\n        /* \"#utility.yul\":11491:11527   */\n      iszero\n      tag_372\n      jumpi\n        /* \"#utility.yul\":11507:11525   */\n      tag_373\n      tag_212\n      jump\t// in\n    tag_373:\n        /* \"#utility.yul\":11491:11527   */\n    tag_372:\n        /* \"#utility.yul\":11343:11534   */\n      swap3\n      swap2\n      pop\n      pop\n      jump\t// out\n        /* \"#utility.yul\":11540:11681   */\n    tag_213:\n        /* \"#utility.yul\":11589:11593   */\n      0x00\n        /* \"#utility.yul\":11612:11615   */\n      dup2\n        /* \"#utility.yul\":11604:11615   */\n      swap1\n      pop\n        /* \"#utility.yul\":11635:11638   */\n      dup2\n        /* \"#utility.yul\":11632:11633   */\n      0x00\n        /* \"#utility.yul\":11625:11639   */\n      mstore\n        /* \"#utility.yul\":11669:11673   */\n      0x20\n        /* \"#utility.yul\":11666:11667   */\n      0x00\n        /* \"#utility.yul\":11656:11674   */\n      keccak256\n        /* \"#utility.yul\":11648:11674   */\n      swap1\n      pop\n        /* \"#utility.yul\":11540:11681   */\n      swap2\n      swap1\n      pop\n      jump\t// out\n        /* \"#utility.yul\":11687:11780   */\n    tag_214:\n        /* \"#utility.yul\":11724:11730   */\n      0x00\n        /* \"#utility.yul\":11771:11773   */\n      0x20\n        /* \"#utility.yul\":11766:11768   */\n      0x1f\n        /* \"#utility.yul\":11759:11764   */\n      dup4\n        /* \"#utility.yul\":11755:11769   */\n      add\n        /* \"#utility.yul\":11751:11774   */\n      div\n        /* \"#utility.yul\":11741:11774   */\n      swap1\n      pop\n        /* \"#utility.yul\":11687:11780   */\n      swap2\n      swap1\n      pop\n      jump\t// out\n        /* \"#utility.yul\":11786:11893   */\n    tag_215:\n        /* \"#utility.yul\":11830:11838   */\n      0x00\n        /* \"#utility.yul\":11880:11885   */\n      dup3\n        /* \"#utility.yul\":11874:11878   */\n      dup3\n        /* \"#utility.yul\":11870:11886   */\n      shl\n        /* \"#utility.yul\":11849:11886   */\n      swap1\n      pop\n        /* \"#utility.yul\":11786:11893   */\n      swap3\n      swap2\n      pop\n      pop\n      jump\t// out\n        /* \"#utility.yul\":11899:12292   */\n    tag_216:\n        /* \"#utility.yul\":11968:11974   */\n      0x00\n        /* \"#utility.yul\":12018:12019   */\n      0x08\n        /* \"#utility.yul\":12006:12016   */\n      dup4\n        /* \"#utility.yul\":12002:12020   */\n      mul\n        /* \"#utility.yul\":12041:12138   */\n      tag_378\n        /* \"#utility.yul\":12071:12137   */\n      0xffffffffffffffffffffffffffffffffffffffffffffffffffffffffffffffff\n        /* \"#utility.yul\":12060:12069   */\n      dup3\n        /* \"#utility.yul\":12041:12138   */\n      tag_215\n      jump\t// in\n    tag_378:\n        /* \"#utility.yul\":12159:12198   */\n      tag_379\n        /* \"#utility.yul\":12189:12197   */\n      dup7\n        /* \"#utility.yul\":12178:12187   */\n      dup4\n        /* \"#utility.yul\":12159:12198   */\n      tag_215\n      jump\t// in\n    tag_379:\n        /* \"#utility.yul\":12147:12198   */\n      swap6\n      pop\n        /* \"#utility.yul\":12231:12235   */\n      dup1\n        /* \"#utility.yul\":12227:12236   */\n      not\n        /* \"#utility.yul\":12220:12225   */\n      dup5\n        /* \"#utility.yul\":12216:12237   */\n      and\n        /* \"#utility.yul\":12207:12237   */\n      swap4\n      pop\n        /* \"#utility.yul\":12280:12284   */\n      dup1\n        /* \"#utility.yul\":12270:12278   */\n      dup7\n        /* \"#utility.yul\":12266:12285   */\n      and\n        /* \"#utility.yul\":12259:12264   */\n      dup5\n        /* \"#utility.yul\":12256:12286   */\n      or\n        /* \"#utility.yul\":12246:12286   */\n      swap3\n      pop\n        /* \"#utility.yul\":11975:12292   */\n      pop\n      pop\n        /* \"#utility.yul\":11899:12292   */\n      swap4\n      swap3\n      pop\n      pop\n      pop\n      jump\t// out\n        /* \"#utility.yul\":12298:12440   */\n    tag_217:\n        /* \"#utility.yul\":12348:12357   */\n      0x00\n        /* \"#utility.yul\":12381:12434   */\n      tag_381\n        /* \"#utility.yul\":12399:12433   */\n      tag_382\n        /* \"#utility.yul\":12408:12432   */\n      tag_383\n        /* \"#utility.yul\":12426:12431   */\n      dup5\n        /* \"#utility.yul\":12408:12432   */\n      tag_177\n      jump\t// in\n    tag_383:\n        /* \"#utility.yul\":12399:12433   */\n      tag_204\n      jump\t// in\n    tag_382:\n        /* \"#utility.yul\":12381:12434   */\n      tag_177\n      jump\t// in\n    tag_381:\n        /* \"#utility.yul\":12368:12434   */\n      swap1\n      pop\n        /* \"#utility.yul\":12298:12440   */\n      swap2\n      swap1\n      pop\n      jump\t// out\n        /* \"#utility.yul\":12446:12521   */\n    tag_218:\n        /* \"#utility.yul\":12489:12492   */\n      0x00\n        /* \"#utility.yul\":12510:12515   */\n      dup2\n        /* \"#utility.yul\":12503:12515   */\n      swap1\n      pop\n        /* \"#utility.yul\":12446:12521   */\n      swap2\n      swap1\n      pop\n      jump\t// out\n        /* \"#utility.yul\":12527:12796   */\n    tag_219:\n        /* \"#utility.yul\":12637:12676   */\n      tag_386\n        /* \"#utility.yul\":12668:12675   */\n      dup4\n        /* \"#utility.yul\":12637:12676   */\n      tag_217\n      jump\t// in\n    tag_386:\n        /* \"#utility.yul\":12698:12789   */\n      tag_387\n        /* \"#utility.yul\":12747:12788   */\n      tag_388\n        /* \"#utility.yul\":12771:12787   */\n      dup3\n        /* \"#utility.yul\":12747:12788   */\n      tag_218\n      jump\t// in\n    tag_388:\n        /* \"#utility.yul\":12739:12745   */\n      dup5\n        /* \"#utility.yul\":12732:12736   */\n      dup5\n        /* \"#utility.yul\":12726:12737   */\n      sload\n        /* \"#utility.yul\":12698:12789   */\n      tag_216\n      jump\t// in\n    tag_387:\n        /* \"#utility.yul\":12692:12696   */\n      dup3\n        /* \"#utility.yul\":12685:12790   */\n      sstore\n        /* \"#utility.yul\":12603:12796   */\n      pop\n        /* \"#utility.yul\":12527:12796   */\n      pop\n      pop\n      pop\n      jump\t// out\n        /* \"#utility.yul\":12802:12875   */\n    tag_220:\n        /* \"#utility.yul\":12847:12850   */\n      0x00\n        /* \"#utility.yul\":12802:12875   */\n      swap1\n      jump\t// out\n        /* \"#utility.yul\":12881:13070   */\n    tag_221:\n        /* \"#utility.yul\":12958:12990   */\n      tag_391\n      tag_220\n      jump\t// in\n    tag_391:\n        /* \"#utility.yul\":12999:13064   */\n      tag_392\n        /* \"#utility.yul\":13057:13063   */\n      dup2\n        /* \"#utility.yul\":13049:13055   */\n      dup5\n        /* \"#utility.yul\":13043:13047   */\n      dup5\n        /* \"#utility.yul\":12999:13064   */\n      tag_219\n      jump\t// in\n    tag_392:\n        /* \"#utility.yul\":12934:13070   */\n      pop\n        /* \"#utility.yul\":12881:13070   */\n      pop\n      pop\n      jump\t// out\n        /* \"#utility.yul\":13076:13262   */\n    tag_222:\n        /* \"#utility.yul\":13136:13256   */\n    tag_394:\n        /* \"#utility.yul\":13153:13156   */\n      dup2\n        /* \"#utility.yul\":13146:13151   */\n      dup2\n        /* \"#utility.yul\":13143:13157   */\n      lt\n        /* \"#utility.yul\":13136:13256   */\n      iszero\n      tag_396\n      jumpi\n        /* \"#utility.yul\":13207:13246   */\n      tag_397\n        /* \"#utility.yul\":13244:13245   */\n      0x00\n        /* \"#utility.yul\":13237:13242   */\n      dup3\n        /* \"#utility.yul\":13207:13246   */\n      tag_221\n      jump\t// in\n    tag_397:\n        /* \"#utility.yul\":13180:13181   */\n      0x01\n        /* \"#utility.yul\":13173:13178   */\n      dup2\n        /* \"#utility.yul\":13169:13182   */\n      add\n        /* \"#utility.yul\":13160:13182   */\n      swap1\n      pop\n        /* \"#utility.yul\":13136:13256   */\n      jump(tag_394)\n    tag_396:\n        /* \"#utility.yul\":13076:13262   */\n      pop\n      pop\n      jump\t// out\n        /* \"#utility.yul\":13268:13811   */\n    tag_223:\n        /* \"#utility.yul\":13369:13371   */\n      0x1f\n        /* \"#utility.yul\":13364:13367   */\n      dup3\n        /* \"#utility.yul\":13361:13372   */\n      gt\n        /* \"#utility.yul\":13358:13804   */\n      iszero\n      tag_399\n      jumpi\n        /* \"#utility.yul\":13403:13441   */\n      tag_400\n        /* \"#utility.yul\":13435:13440   */\n      dup2\n        /* \"#utility.yul\":13403:13441   */\n      tag_213\n      jump\t// in\n    tag_400:\n        /* \"#utility.yul\":13487:13516   */\n      tag_401\n        /* \"#utility.yul\":13505:13515   */\n      dup5\n        /* \"#utility.yul\":13487:13516   */\n      tag_214\n      jump\t// in\n    tag_401:\n        /* \"#utility.yul\":13477:13485   */\n      dup2\n        /* \"#utility.yul\":13473:13517   */\n      add\n        /* \"#utility.yul\":13670:13672   */\n      0x20\n        /* \"#utility.yul\":13658:13668   */\n      dup6\n        /* \"#utility.yul\":13655:13673   */\n      lt\n        /* \"#utility.yul\":13652:13701   */\n      iszero\n      tag_402\n      jumpi\n        /* \"#utility.yul\":13691:13699   */\n      dup2\n        /* \"#utility.yul\":13676:13699   */\n      swap1\n      pop\n        /* \"#utility.yul\":13652:13701   */\n    tag_402:\n        /* \"#utility.yul\":13714:13794   */\n      tag_403\n        /* \"#utility.yul\":13770:13792   */\n      tag_404\n        /* \"#utility.yul\":13788:13791   */\n      dup6\n        /* \"#utility.yul\":13770:13792   */\n      tag_214\n      jump\t// in\n    tag_404:\n        /* \"#utility.yul\":13760:13768   */\n      dup4\n        /* \"#utility.yul\":13756:13793   */\n      add\n        /* \"#utility.yul\":13743:13754   */\n      dup3\n        /* \"#utility.yul\":13714:13794   */\n      tag_222\n      jump\t// in\n    tag_403:\n        /* \"#utility.yul\":13373:13804   */\n      pop\n      pop\n        /* \"#utility.yul\":13358:13804   */\n    tag_399:\n        /* \"#utility.yul\":13268:13811   */\n      pop\n      pop\n      pop\n      jump\t// out\n        /* \"#utility.yul\":13817:13934   */\n    tag_224:\n        /* \"#utility.yul\":13871:13879   */\n      0x00\n        /* \"#utility.yul\":13921:13926   */\n      dup3\n        /* \"#utility.yul\":13915:13919   */\n      dup3\n        /* \"#utility.yul\":13911:13927   */\n      shr\n        /* \"#utility.yul\":13890:13927   */\n      swap1\n      pop\n        /* \"#utility.yul\":13817:13934   */\n      swap3\n      swap2\n      pop\n      pop\n      jump\t// out\n        /* \"#utility.yul\":13940:14109   */\n    tag_225:\n        /* \"#utility.yul\":13984:13990   */\n      0x00\n        /* \"#utility.yul\":14017:14068   */\n      tag_407\n        /* \"#utility.yul\":14065:14066   */\n      0x00\n        /* \"#utility.yul\":14061:14067   */\n      not\n        /* \"#utility.yul\":14053:14058   */\n      dup5\n        /* \"#utility.yul\":14050:14051   */\n      0x08\n        /* \"#utility.yul\":14046:14059   */\n      mul\n        /* \"#utility.yul\":14017:14068   */\n      tag_224\n      jump\t// in\n    tag_407:\n        /* \"#utility.yul\":14013:14069   */\n      not\n        /* \"#utility.yul\":14098:14102   */\n      dup1\n        /* \"#utility.yul\":14092:14096   */\n      dup4\n        /* \"#utility.yul\":14088:14103   */\n      and\n        /* \"#utility.yul\":14078:14103   */\n      swap2\n      pop\n        /* \"#utility.yul\":13991:14109   */\n      pop\n        /* \"#utility.yul\":13940:14109   */\n      swap3\n      swap2\n      pop\n      pop\n      jump\t// out\n        /* \"#utility.yul\":14114:14409   */\n    tag_226:\n        /* \"#utility.yul\":14190:14194   */\n      0x00\n        /* \"#utility.yul\":14336:14365   */\n      tag_409\n        /* \"#utility.yul\":14361:14364   */\n      dup4\n        /* \"#utility.yul\":14355:14359   */\n      dup4\n        /* \"#utility.yul\":14336:14365   */\n      tag_225\n      jump\t// in\n    tag_409:\n        /* \"#utility.yul\":14328:14365   */\n      swap2\n      pop\n        /* \"#utility.yul\":14398:14401   */\n      dup3\n        /* \"#utility.yul\":14395:14396   */\n      0x02\n        /* \"#utility.yul\":14391:14402   */\n      mul\n        /* \"#utility.yul\":14385:14389   */\n      dup3\n        /* \"#utility.yul\":14382:14403   */\n      or\n        /* \"#utility.yul\":14374:14403   */\n      swap1\n      pop\n        /* \"#utility.yul\":14114:14409   */\n      swap3\n      swap2\n      pop\n      pop\n      jump\t// out\n        /* \"#utility.yul\":14414:15809   */\n    tag_82:\n        /* \"#utility.yul\":14531:14568   */\n      tag_411\n        /* \"#utility.yul\":14564:14567   */\n      dup3\n        /* \"#utility.yul\":14531:14568   */\n      tag_183\n      jump\t// in\n    tag_411:\n        /* \"#utility.yul\":14633:14651   */\n      0xffffffffffffffff\n        /* \"#utility.yul\":14625:14631   */\n      dup2\n        /* \"#utility.yul\":14622:14652   */\n      gt\n        /* \"#utility.yul\":14619:14675   */\n      iszero\n      tag_412\n      jumpi\n        /* \"#utility.yul\":14655:14673   */\n      tag_413\n      tag_195\n      jump\t// in\n    tag_413:\n        /* \"#utility.yul\":14619:14675   */\n    tag_412:\n        /* \"#utility.yul\":14699:14737   */\n      tag_414\n        /* \"#utility.yul\":14731:14735   */\n      dup3\n        /* \"#utility.yul\":14725:14736   */\n      sload\n        /* \"#utility.yul\":14699:14737   */\n      tag_68\n      jump\t// in\n    tag_414:\n        /* \"#utility.yul\":14784:14851   */\n      tag_415\n        /* \"#utility.yul\":14844:14850   */\n      dup3\n        /* \"#utility.yul\":14836:14842   */\n      dup3\n        /* \"#utility.yul\":14830:14834   */\n      dup6\n        /* \"#utility.yul\":14784:14851   */\n      tag_223\n      jump\t// in\n    tag_415:\n        /* \"#utility.yul\":14878:14879   */\n      0x00\n        /* \"#utility.yul\":14902:14906   */\n      0x20\n        /* \"#utility.yul\":14889:14906   */\n      swap1\n      pop\n        /* \"#utility.yul\":14934:14936   */\n      0x1f\n        /* \"#utility.yul\":14926:14932   */\n      dup4\n        /* \"#utility.yul\":14923:14937   */\n      gt\n        /* \"#utility.yul\":14951:14952   */\n      0x01\n        /* \"#utility.yul\":14946:15564   */\n      dup2\n      eq\n      tag_417\n      jumpi\n        /* \"#utility.yul\":15608:15609   */\n      0x00\n        /* \"#utility.yul\":15625:15631   */\n      dup5\n        /* \"#utility.yul\":15622:15699   */\n      iszero\n      tag_418\n      jumpi\n        /* \"#utility.yul\":15674:15683   */\n      dup3\n        /* \"#utility.yul\":15669:15672   */\n      dup8\n        /* \"#utility.yul\":15665:15684   */\n      add\n        /* \"#utility.yul\":15659:15685   */\n      mload\n        /* \"#utility.yul\":15650:15685   */\n      swap1\n      pop\n        /* \"#utility.yul\":15622:15699   */\n    tag_418:\n        /* \"#utility.yul\":15725:15792   */\n      tag_419\n        /* \"#utility.yul\":15785:15791   */\n      dup6\n        /* \"#utility.yul\":15778:15783   */\n      dup3\n        /* \"#utility.yul\":15725:15792   */\n      tag_226\n      jump\t// in\n    tag_419:\n        /* \"#utility.yul\":15719:15723   */\n      dup7\n        /* \"#utility.yul\":15712:15793   */\n      sstore\n        /* \"#utility.yul\":15581:15803   */\n      pop\n        /* \"#utility.yul\":14916:15803   */\n      jump(tag_416)\n        /* \"#utility.yul\":14946:15564   */\n    tag_417:\n        /* \"#utility.yul\":14998:15002   */\n      0x1f\n        /* \"#utility.yul\":14994:15003   */\n      not\n        /* \"#utility.yul\":14986:14992   */\n      dup5\n        /* \"#utility.yul\":14982:15004   */\n      and\n        /* \"#utility.yul\":15032:15069   */\n      tag_420\n        /* \"#utility.yul\":15064:15068   */\n      dup7\n        /* \"#utility.yul\":15032:15069   */\n      tag_213\n      jump\t// in\n    tag_420:\n        /* \"#utility.yul\":15091:15092   */\n      0x00\n        /* \"#utility.yul\":15105:15313   */\n    tag_421:\n        /* \"#utility.yul\":15119:15126   */\n      dup3\n        /* \"#utility.yul\":15116:15117   */\n      dup2\n        /* \"#utility.yul\":15113:15127   */\n      lt\n        /* \"#utility.yul\":15105:15313   */\n      iszero\n      tag_423\n      jumpi\n        /* \"#utility.yul\":15198:15207   */\n      dup5\n        /* \"#utility.yul\":15193:15196   */\n      dup10\n        /* \"#utility.yul\":15189:15208   */\n      add\n        /* \"#utility.yul\":15183:15209   */\n      mload\n        /* \"#utility.yul\":15175:15181   */\n      dup3\n        /* \"#utility.yul\":15168:15210   */\n      sstore\n        /* \"#utility.yul\":15249:15250   */\n      0x01\n        /* \"#utility.yul\":15241:15247   */\n      dup3\n        /* \"#utility.yul\":15237:15251   */\n      add\n        /* \"#utility.yul\":15227:15251   */\n      swap2\n      pop\n        /* \"#utility.yul\":15296:15298   */\n      0x20\n        /* \"#utility.yul\":15285:15294   */\n      dup6\n        /* \"#utility.yul\":15281:15299   */\n      add\n        /* \"#utility.yul\":15268:15299   */\n      swap5\n      pop\n        /* \"#utility.yul\":15142:15146   */\n      0x20\n        /* \"#utility.yul\":15139:15140   */\n      dup2\n        /* \"#utility.yul\":15135:15147   */\n      add\n        /* \"#utility.yul\":15130:15147   */\n      swap1\n      pop\n        /* \"#utility.yul\":15105:15313   */\n      jump(tag_421)\n    tag_423:\n        /* \"#utility.yul\":15341:15347   */\n      dup7\n        /* \"#utility.yul\":15332:15339   */\n      dup4\n        /* \"#utility.yul\":15329:15348   */\n      lt\n        /* \"#utility.yul\":15326:15505   */\n      iszero\n      tag_424\n      jumpi\n        /* \"#utility.yul\":15399:15408   */\n      dup5\n        /* \"#utility.yul\":15394:15397   */\n      dup10\n        /* \"#utility.yul\":15390:15409   */\n      add\n        /* \"#utility.yul\":15384:15410   */\n      mload\n        /* \"#utility.yul\":15442:15490   */\n      tag_425\n        /* \"#utility.yul\":15484:15488   */\n      0x1f\n        /* \"#utility.yul\":15476:15482   */\n      dup10\n        /* \"#utility.yul\":15472:15489   */\n      and\n        /* \"#utility.yul\":15461:15470   */\n      dup3\n        /* \"#utility.yul\":15442:15490   */\n      tag_225\n      jump\t// in\n    tag_425:\n        /* \"#utility.yul\":15434:15440   */\n      dup4\n        /* \"#utility.yul\":15427:15491   */\n      sstore\n        /* \"#utility.yul\":15349:15505   */\n      pop\n        /* \"#utility.yul\":15326:15505   */\n    tag_424:\n        /* \"#utility.yul\":15551:15552   */\n      0x01\n        /* \"#utility.yul\":15547:15548   */\n      0x02\n        /* \"#utility.yul\":15539:15545   */\n      dup9\n        /* \"#utility.yul\":15535:15549   */\n      mul\n        /* \"#utility.yul\":15531:15553   */\n      add\n        /* \"#utility.yul\":15525:15529   */\n      dup9\n        /* \"#utility.yul\":15518:15554   */\n      sstore\n        /* \"#utility.yul\":14953:15564   */\n      pop\n      pop\n      pop\n        /* \"#utility.yul\":14916:15803   */\n    tag_416:\n      pop\n        /* \"#utility.yul\":14506:15809   */\n      pop\n      pop\n      pop\n        /* \"#utility.yul\":14414:15809   */\n      pop\n      pop\n      jump\t// out\n        /* \"#utility.yul\":15815:16348   */\n    tag_84:\n        /* \"#utility.yul\":15984:15988   */\n      0x00\n        /* \"#utility.yul\":16022:16024   */\n      0x60\n        /* \"#utility.yul\":16011:16020   */\n      dup3\n        /* \"#utility.yul\":16007:16025   */\n      add\n        /* \"#utility.yul\":15999:16025   */\n      swap1\n      pop\n        /* \"#utility.yul\":16035:16106   */\n      tag_427\n        /* \"#utility.yul\":16103:16104   */\n      0x00\n        /* \"#utility.yul\":16092:16101   */\n      dup4\n        /* \"#utility.yul\":16088:16105   */\n      add\n        /* \"#utility.yul\":16079:16085   */\n      dup7\n        /* \"#utility.yul\":16035:16106   */\n      tag_188\n      jump\t// in\n    tag_427:\n        /* \"#utility.yul\":16116:16188   */\n      tag_428\n        /* \"#utility.yul\":16184:16186   */\n      0x20\n        /* \"#utility.yul\":16173:16182   */\n      dup4\n        /* \"#utility.yul\":16169:16187   */\n      add\n        /* \"#utility.yul\":16160:16166   */\n      dup6\n        /* \"#utility.yul\":16116:16188   */\n      tag_182\n      jump\t// in\n    tag_428:\n        /* \"#utility.yul\":16235:16244   */\n      dup2\n        /* \"#utility.yul\":16229:16233   */\n      dup2\n        /* \"#utility.yul\":16225:16245   */\n      sub\n        /* \"#utility.yul\":16220:16222   */\n      0x40\n        /* \"#utility.yul\":16209:16218   */\n      dup4\n        /* \"#utility.yul\":16205:16223   */\n      add\n        /* \"#utility.yul\":16198:16246   */\n      mstore\n        /* \"#utility.yul\":16263:16341   */\n      tag_429\n        /* \"#utility.yul\":16336:16340   */\n      dup2\n        /* \"#utility.yul\":16327:16333   */\n      dup5\n        /* \"#utility.yul\":16263:16341   */\n      tag_187\n      jump\t// in\n    tag_429:\n        /* \"#utility.yul\":16255:16341   */\n      swap1\n      pop\n        /* \"#utility.yul\":15815:16348   */\n      swap5\n      swap4\n      pop\n      pop\n      pop\n      pop\n      jump\t// out\n        /* \"#utility.yul\":16354:16587   */\n    tag_86:\n        /* \"#utility.yul\":16393:16396   */\n      0x00\n        /* \"#utility.yul\":16416:16440   */\n      tag_431\n        /* \"#utility.yul\":16434:16439   */\n      dup3\n        /* \"#utility.yul\":16416:16440   */\n      tag_177\n      jump\t// in\n    tag_431:\n        /* \"#utility.yul\":16407:16440   */\n      swap2\n      pop\n        /* \"#utility.yul\":16462:16528   */\n      0xffffffffffffffffffffffffffffffffffffffffffffffffffffffffffffffff\n        /* \"#utility.yul\":16455:16460   */\n      dup3\n        /* \"#utility.yul\":16452:16529   */\n      sub\n        /* \"#utility.yul\":16449:16552   */\n      tag_432\n      jumpi\n        /* \"#utility.yul\":16532:16550   */\n      tag_433\n      tag_212\n      jump\t// in\n    tag_433:\n        /* \"#utility.yul\":16449:16552   */\n    tag_432:\n        /* \"#utility.yul\":16579:16580   */\n      0x01\n        /* \"#utility.yul\":16572:16577   */\n      dup3\n        /* \"#utility.yul\":16568:16581   */\n      add\n        /* \"#utility.yul\":16561:16581   */\n      swap1\n      pop\n        /* \"#utility.yul\":16354:16587   */\n      swap2\n      swap1\n      pop\n      jump\t// out\n        /* \"#utility.yul\":16593:16773   */\n    tag_93:\n        /* \"#utility.yul\":16641:16718   */\n      0x4e487b7100000000000000000000000000000000000000000000000000000000\n        /* \"#utility.yul\":16638:16639   */\n      0x00\n        /* \"#utility.yul\":16631:16719   */\n      mstore\n        /* \"#utility.yul\":16738:16742   */\n      0x32\n        /* \"#utility.yul\":16735:16736   */\n      0x04\n        /* \"#utility.yul\":16728:16743   */\n      mstore\n        /* \"#utility.yul\":16762:16766   */\n      0x24\n        /* \"#utility.yul\":16759:16760   */\n      0x00\n        /* \"#utility.yul\":16752:16767   */\n      revert\n        /* \"#utility.yul\":16779:16955   */\n    tag_227:\n        /* \"#utility.yul\":16919:16947   */\n      0x50726f706f73616c20616c72656164792066696e616c697a6564000000000000\n        /* \"#utility.yul\":16915:16916   */\n      0x00\n        /* \"#utility.yul\":16907:16913   */\n      dup3\n        /* \"#utility.yul\":16903:16917   */\n      add\n        /* \"#utility.yul\":16896:16948   */\n      mstore\n        /* \"#utility.yul\":16779:16955   */\n      pop\n      jump\t// out\n        /* \"#utility.yul\":16961:17327   */\n    tag_228:\n        /* \"#utility.yul\":17103:17106   */\n      0x00\n        /* \"#utility.yul\":17124:17191   */\n      tag_437\n        /* \"#utility.yul\":17188:17190   */\n      0x1a\n        /* \"#utility.yul\":17183:17186   */\n      dup4\n        /* \"#utility.yul\":17124:17191   */\n      tag_184\n      jump\t// in\n    tag_437:\n        /* \"#utility.yul\":17117:17191   */\n      swap2\n      pop\n        /* \"#utility.yul\":17200:17293   */\n      tag_438\n        /* \"#utility.yul\":17289:17292   */\n      dup3\n        /* \"#utility.yul\":17200:17293   */\n      tag_227\n      jump\t// in\n    tag_438:\n        /* \"#utility.yul\":17318:17320   */\n      0x20\n        /* \"#utility.yul\":17313:17316   */\n      dup3\n        /* \"#utility.yul\":17309:17321   */\n      add\n        /* \"#utility.yul\":17302:17321   */\n      swap1\n      pop\n        /* \"#utility.yul\":16961:17327   */\n      swap2\n      swap1\n      pop\n      jump\t// out\n        /* \"#utility.yul\":17333:17752   */\n    tag_97:\n        /* \"#utility.yul\":17499:17503   */\n      0x00\n        /* \"#utility.yul\":17537:17539   */\n      0x20\n        /* \"#utility.yul\":17526:17535   */\n      dup3\n        /* \"#utility.yul\":17522:17540   */\n      add\n        /* \"#utility.yul\":17514:17540   */\n      swap1\n      pop\n        /* \"#utility.yul\":17586:17595   */\n      dup2\n        /* \"#utility.yul\":17580:17584   */\n      dup2\n        /* \"#utility.yul\":17576:17596   */\n      sub\n        /* \"#utility.yul\":17572:17573   */\n      0x00\n        /* \"#utility.yul\":17561:17570   */\n      dup4\n        /* \"#utility.yul\":17557:17574   */\n      add\n        /* \"#utility.yul\":17550:17597   */\n      mstore\n        /* \"#utility.yul\":17614:17745   */\n      tag_440\n        /* \"#utility.yul\":17740:17744   */\n      dup2\n        /* \"#utility.yul\":17614:17745   */\n      tag_228\n      jump\t// in\n    tag_440:\n        /* \"#utility.yul\":17606:17745   */\n      swap1\n      pop\n        /* \"#utility.yul\":17333:17752   */\n      swap2\n      swap1\n      pop\n      jump\t// out\n        /* \"#utility.yul\":17758:17930   */\n    tag_229:\n        /* \"#utility.yul\":17898:17922   */\n      0x566f74696e6720706572696f64206e6f74206f76657200000000000000000000\n        /* \"#utility.yul\":17894:17895   */\n      0x00\n        /* \"#utility.yul\":17886:17892   */\n      dup3\n        /* \"#utility.yul\":17882:17896   */\n      add\n        /* \"#utility.yul\":17875:17923   */\n      mstore\n        /* \"#utility.yul\":17758:17930   */\n      pop\n      jump\t// out\n        /* \"#utility.yul\":17936:18302   */\n    tag_230:\n        /* \"#utility.yul\":18078:18081   */\n      0x00\n        /* \"#utility.yul\":18099:18166   */\n      tag_443\n        /* \"#utility.yul\":18163:18165   */\n      0x16\n        /* \"#utility.yul\":18158:18161   */\n      dup4\n        /* \"#utility.yul\":18099:18166   */\n      tag_184\n      jump\t// in\n    tag_443:\n        /* \"#utility.yul\":18092:18166   */\n      swap2\n      pop\n        /* \"#utility.yul\":18175:18268   */\n      tag_444\n        /* \"#utility.yul\":18264:18267   */\n      dup3\n        /* \"#utility.yul\":18175:18268   */\n      tag_229\n      jump\t// in\n    tag_444:\n        /* \"#utility.yul\":18293:18295   */\n      0x20\n        /* \"#utility.yul\":18288:18291   */\n      dup3\n        /* \"#utility.yul\":18284:18296   */\n      add\n        /* \"#utility.yul\":18277:18296   */\n      swap1\n      pop\n        /* \"#utility.yul\":17936:18302   */\n      swap2\n      swap1\n      pop\n      jump\t// out\n        /* \"#utility.yul\":18308:18727   */\n    tag_103:\n        /* \"#utility.yul\":18474:18478   */\n      0x00\n        /* \"#utility.yul\":18512:18514   */\n      0x20\n        /* \"#utility.yul\":18501:18510   */\n      dup3\n        /* \"#utility.yul\":18497:18515   */\n      add\n        /* \"#utility.yul\":18489:18515   */\n      swap1\n      pop\n        /* \"#utility.yul\":18561:18570   */\n      dup2\n        /* \"#utility.yul\":18555:18559   */\n      dup2\n        /* \"#utility.yul\":18551:18571   */\n      sub\n        /* \"#utility.yul\":18547:18548   */\n      0x00\n        /* \"#utility.yul\":18536:18545   */\n      dup4\n        /* \"#utility.yul\":18532:18549   */\n      add\n        /* \"#utility.yul\":18525:18572   */\n      mstore\n        /* \"#utility.yul\":18589:18720   */\n      tag_446\n        /* \"#utility.yul\":18715:18719   */\n      dup2\n        /* \"#utility.yul\":18589:18720   */\n      tag_230\n      jump\t// in\n    tag_446:\n        /* \"#utility.yul\":18581:18720   */\n      swap1\n      pop\n        /* \"#utility.yul\":18308:18727   */\n      swap2\n      swap1\n      pop\n      jump\t// out\n        /* \"#utility.yul\":18733:18953   */\n    tag_231:\n        /* \"#utility.yul\":18873:18907   */\n      0x4e6f7420656e6f75676820766f74657320746f20706173732070726f706f7361\n        /* \"#utility.yul\":18869:18870   */\n      0x00\n        /* \"#utility.yul\":18861:18867   */\n      dup3\n        /* \"#utility.yul\":18857:18871   */\n      add\n        /* \"#utility.yul\":18850:18908   */\n      mstore\n        /* \"#utility.yul\":18942:18945   */\n      0x6c00000000000000000000000000000000000000000000000000000000000000\n        /* \"#utility.yul\":18937:18939   */\n      0x20\n        /* \"#utility.yul\":18929:18935   */\n      dup3\n        /* \"#utility.yul\":18925:18940   */\n      add\n        /* \"#utility.yul\":18918:18946   */\n      mstore\n        /* \"#utility.yul\":18733:18953   */\n      pop\n      jump\t// out\n        /* \"#utility.yul\":18959:19325   */\n    tag_232:\n        /* \"#utility.yul\":19101:19104   */\n      0x00\n        /* \"#utility.yul\":19122:19189   */\n      tag_449\n        /* \"#utility.yul\":19186:19188   */\n      0x21\n        /* \"#utility.yul\":19181:19184   */\n      dup4\n        /* \"#utility.yul\":19122:19189   */\n      tag_184\n      jump\t// in\n    tag_449:\n        /* \"#utility.yul\":19115:19189   */\n      swap2\n      pop\n        /* \"#utility.yul\":19198:19291   */\n      tag_450\n        /* \"#utility.yul\":19287:19290   */\n      dup3\n        /* \"#utility.yul\":19198:19291   */\n      tag_231\n      jump\t// in\n    tag_450:\n        /* \"#utility.yul\":19316:19318   */\n      0x40\n        /* \"#utility.yul\":19311:19314   */\n      dup3\n        /* \"#utility.yul\":19307:19319   */\n      add\n        /* \"#utility.yul\":19300:19319   */\n      swap1\n      pop\n        /* \"#utility.yul\":18959:19325   */\n      swap2\n      swap1\n      pop\n      jump\t// out\n        /* \"#utility.yul\":19331:19750   */\n    tag_113:\n        /* \"#utility.yul\":19497:19501   */\n      0x00\n        /* \"#utility.yul\":19535:19537   */\n      0x20\n        /* \"#utility.yul\":19524:19533   */\n      dup3\n        /* \"#utility.yul\":19520:19538   */\n      add\n        /* \"#utility.yul\":19512:19538   */\n      swap1\n      pop\n        /* \"#utility.yul\":19584:19593   */\n      dup2\n        /* \"#utility.yul\":19578:19582   */\n      dup2\n        /* \"#utility.yul\":19574:19594   */\n      sub\n        /* \"#utility.yul\":19570:19571   */\n      0x00\n        /* \"#utility.yul\":19559:19568   */\n      dup4\n        /* \"#utility.yul\":19555:19572   */\n      add\n        /* \"#utility.yul\":19548:19595   */\n      mstore\n        /* \"#utility.yul\":19612:19743   */\n      tag_452\n        /* \"#utility.yul\":19738:19742   */\n      dup2\n        /* \"#utility.yul\":19612:19743   */\n      tag_232\n      jump\t// in\n    tag_452:\n        /* \"#utility.yul\":19604:19743   */\n      swap1\n      pop\n        /* \"#utility.yul\":19331:19750   */\n      swap2\n      swap1\n      pop\n      jump\t// out\n        /* \"#utility.yul\":19756:19928   */\n    tag_233:\n        /* \"#utility.yul\":19896:19920   */\n      0x50726f706f73616c206973206e6f742061637469766500000000000000000000\n        /* \"#utility.yul\":19892:19893   */\n      0x00\n        /* \"#utility.yul\":19884:19890   */\n      dup3\n        /* \"#utility.yul\":19880:19894   */\n      add\n        /* \"#utility.yul\":19873:19921   */\n      mstore\n        /* \"#utility.yul\":19756:19928   */\n      pop\n      jump\t// out\n        /* \"#utility.yul\":19934:20300   */\n    tag_234:\n        /* \"#utility.yul\":20076:20079   */\n      0x00\n        /* \"#utility.yul\":20097:20164   */\n      tag_455\n        /* \"#utility.yul\":20161:20163   */\n      0x16\n        /* \"#utility.yul\":20156:20159   */\n      dup4\n        /* \"#utility.yul\":20097:20164   */\n      tag_184\n      jump\t// in\n    tag_455:\n        /* \"#utility.yul\":20090:20164   */\n      swap2\n      pop\n        /* \"#utility.yul\":20173:20266   */\n      tag_456\n        /* \"#utility.yul\":20262:20265   */\n      dup3\n        /* \"#utility.yul\":20173:20266   */\n      tag_233\n      jump\t// in\n    tag_456:\n        /* \"#utility.yul\":20291:20293   */\n      0x20\n        /* \"#utility.yul\":20286:20289   */\n      dup3\n        /* \"#utility.yul\":20282:20294   */\n      add\n        /* \"#utility.yul\":20275:20294   */\n      swap1\n      pop\n        /* \"#utility.yul\":19934:20300   */\n      swap2\n      swap1\n      pop\n      jump\t// out\n        /* \"#utility.yul\":20306:20725   */\n    tag_139:\n        /* \"#utility.yul\":20472:20476   */\n      0x00\n        /* \"#utility.yul\":20510:20512   */\n      0x20\n        /* \"#utility.yul\":20499:20508   */\n      dup3\n        /* \"#utility.yul\":20495:20513   */\n      add\n        /* \"#utility.yul\":20487:20513   */\n      swap1\n      pop\n        /* \"#utility.yul\":20559:20568   */\n      dup2\n        /* \"#utility.yul\":20553:20557   */\n      dup2\n        /* \"#utility.yul\":20549:20569   */\n      sub\n        /* \"#utility.yul\":20545:20546   */\n      0x00\n        /* \"#utility.yul\":20534:20543   */\n      dup4\n        /* \"#utility.yul\":20530:20547   */\n      add\n        /* \"#utility.yul\":20523:20570   */\n      mstore\n        /* \"#utility.yul\":20587:20718   */\n      tag_458\n        /* \"#utility.yul\":20713:20717   */\n      dup2\n        /* \"#utility.yul\":20587:20718   */\n      tag_234\n      jump\t// in\n    tag_458:\n        /* \"#utility.yul\":20579:20718   */\n      swap1\n      pop\n        /* \"#utility.yul\":20306:20725   */\n      swap2\n      swap1\n      pop\n      jump\t// out\n        /* \"#utility.yul\":20731:20904   */\n    tag_235:\n        /* \"#utility.yul\":20871:20896   */\n      0x566f74696e6720706572696f642068617320656e646564000000000000000000\n        /* \"#utility.yul\":20867:20868   */\n      0x00\n        /* \"#utility.yul\":20859:20865   */\n      dup3\n        /* \"#utility.yul\":20855:20869   */\n      add\n        /* \"#utility.yul\":20848:20897   */\n      mstore\n        /* \"#utility.yul\":20731:20904   */\n      pop\n      jump\t// out\n        /* \"#utility.yul\":20910:21276   */\n    tag_236:\n        /* \"#utility.yul\":21052:21055   */\n      0x00\n        /* \"#utility.yul\":21073:21140   */\n      tag_461\n        /* \"#utility.yul\":21137:21139   */\n      0x17\n        /* \"#utility.yul\":21132:21135   */\n      dup4\n        /* \"#utility.yul\":21073:21140   */\n      tag_184\n      jump\t// in\n    tag_461:\n        /* \"#utility.yul\":21066:21140   */\n      swap2\n      pop\n        /* \"#utility.yul\":21149:21242   */\n      tag_462\n        /* \"#utility.yul\":21238:21241   */\n      dup3\n        /* \"#utility.yul\":21149:21242   */\n      tag_235\n      jump\t// in\n    tag_462:\n        /* \"#utility.yul\":21267:21269   */\n      0x20\n        /* \"#utility.yul\":21262:21265   */\n      dup3\n        /* \"#utility.yul\":21258:21270   */\n      add\n        /* \"#utility.yul\":21251:21270   */\n      swap1\n      pop\n        /* \"#utility.yul\":20910:21276   */\n      swap2\n      swap1\n      pop\n      jump\t// out\n        /* \"#utility.yul\":21282:21701   */\n    tag_145:\n        /* \"#utility.yul\":21448:21452   */\n      0x00\n        /* \"#utility.yul\":21486:21488   */\n      0x20\n        /* \"#utility.yul\":21475:21484   */\n      dup3\n        /* \"#utility.yul\":21471:21489   */\n      add\n        /* \"#utility.yul\":21463:21489   */\n      swap1\n      pop\n        /* \"#utility.yul\":21535:21544   */\n      dup2\n        /* \"#utility.yul\":21529:21533   */\n      dup2\n        /* \"#utility.yul\":21525:21545   */\n      sub\n        /* \"#utility.yul\":21521:21522   */\n      0x00\n        /* \"#utility.yul\":21510:21519   */\n      dup4\n        /* \"#utility.yul\":21506:21523   */\n      add\n        /* \"#utility.yul\":21499:21546   */\n      mstore\n        /* \"#utility.yul\":21563:21694   */\n      tag_464\n        /* \"#utility.yul\":21689:21693   */\n      dup2\n        /* \"#utility.yul\":21563:21694   */\n      tag_236\n      jump\t// in\n    tag_464:\n        /* \"#utility.yul\":21555:21694   */\n      swap1\n      pop\n        /* \"#utility.yul\":21282:21701   */\n      swap2\n      swap1\n      pop\n      jump\t// out\n        /* \"#utility.yul\":21707:21870   */\n    tag_237:\n        /* \"#utility.yul\":21847:21862   */\n      0x416c726561647920766f74656400000000000000000000000000000000000000\n        /* \"#utility.yul\":21843:21844   */\n      0x00\n        /* \"#utility.yul\":21835:21841   */\n      dup3\n        /* \"#utility.yul\":21831:21845   */\n      add\n        /* \"#utility.yul\":21824:21863   */\n      mstore\n        /* \"#utility.yul\":21707:21870   */\n      pop\n      jump\t// out\n        /* \"#utility.yul\":21876:22242   */\n    tag_238:\n        /* \"#utility.yul\":22018:22021   */\n      0x00\n        /* \"#utility.yul\":22039:22106   */\n      tag_467\n        /* \"#utility.yul\":22103:22105   */\n      0x0d\n        /* \"#utility.yul\":22098:22101   */\n      dup4\n        /* \"#utility.yul\":22039:22106   */\n      tag_184\n      jump\t// in\n    tag_467:\n        /* \"#utility.yul\":22032:22106   */\n      swap2\n      pop\n        /* \"#utility.yul\":22115:22208   */\n      tag_468\n        /* \"#utility.yul\":22204:22207   */\n      dup3\n        /* \"#utility.yul\":22115:22208   */\n      tag_237\n      jump\t// in\n    tag_468:\n        /* \"#utility.yul\":22233:22235   */\n      0x20\n        /* \"#utility.yul\":22228:22231   */\n      dup3\n        /* \"#utility.yul\":22224:22236   */\n      add\n        /* \"#utility.yul\":22217:22236   */\n      swap1\n      pop\n        /* \"#utility.yul\":21876:22242   */\n      swap2\n      swap1\n      pop\n      jump\t// out\n        /* \"#utility.yul\":22248:22667   */\n    tag_148:\n        /* \"#utility.yul\":22414:22418   */\n      0x00\n        /* \"#utility.yul\":22452:22454   */\n      0x20\n        /* \"#utility.yul\":22441:22450   */\n      dup3\n        /* \"#utility.yul\":22437:22455   */\n      add\n        /* \"#utility.yul\":22429:22455   */\n      swap1\n      pop\n        /* \"#utility.yul\":22501:22510   */\n      dup2\n        /* \"#utility.yul\":22495:22499   */\n      dup2\n        /* \"#utility.yul\":22491:22511   */\n      sub\n        /* \"#utility.yul\":22487:22488   */\n      0x00\n        /* \"#utility.yul\":22476:22485   */\n      dup4\n        /* \"#utility.yul\":22472:22489   */\n      add\n        /* \"#utility.yul\":22465:22512   */\n      mstore\n        /* \"#utility.yul\":22529:22660   */\n      tag_470\n        /* \"#utility.yul\":22655:22659   */\n      dup2\n        /* \"#utility.yul\":22529:22660   */\n      tag_238\n      jump\t// in\n    tag_470:\n        /* \"#utility.yul\":22521:22660   */\n      swap1\n      pop\n        /* \"#utility.yul\":22248:22667   */\n      swap2\n      swap1\n      pop\n      jump\t// out\n        /* \"#utility.yul\":22673:22816   */\n    tag_239:\n        /* \"#utility.yul\":22730:22735   */\n      0x00\n        /* \"#utility.yul\":22761:22767   */\n      dup2\n        /* \"#utility.yul\":22755:22768   */\n      mload\n        /* \"#utility.yul\":22746:22768   */\n      swap1\n      pop\n        /* \"#utility.yul\":22777:22810   */\n      tag_472\n        /* \"#utility.yul\":22804:22809   */\n      dup2\n        /* \"#utility.yul\":22777:22810   */\n      tag_178\n      jump\t// in\n    tag_472:\n        /* \"#utility.yul\":22673:22816   */\n      swap3\n      swap2\n      pop\n      pop\n      jump\t// out\n        /* \"#utility.yul\":22822:23173   */\n    tag_153:\n        /* \"#utility.yul\":22892:22898   */\n      0x00\n        /* \"#utility.yul\":22941:22943   */\n      0x20\n        /* \"#utility.yul\":22929:22938   */\n      dup3\n        /* \"#utility.yul\":22920:22927   */\n      dup5\n        /* \"#utility.yul\":22916:22939   */\n      sub\n        /* \"#utility.yul\":22912:22944   */\n      slt\n        /* \"#utility.yul\":22909:23028   */\n      iszero\n      tag_474\n      jumpi\n        /* \"#utility.yul\":22947:23026   */\n      tag_475\n      tag_175\n      jump\t// in\n    tag_475:\n        /* \"#utility.yul\":22909:23028   */\n    tag_474:\n        /* \"#utility.yul\":23067:23068   */\n      0x00\n        /* \"#utility.yul\":23092:23156   */\n      tag_476\n        /* \"#utility.yul\":23148:23155   */\n      dup5\n        /* \"#utility.yul\":23139:23145   */\n      dup3\n        /* \"#utility.yul\":23128:23137   */\n      dup6\n        /* \"#utility.yul\":23124:23146   */\n      add\n        /* \"#utility.yul\":23092:23156   */\n      tag_239\n      jump\t// in\n    tag_476:\n        /* \"#utility.yul\":23082:23156   */\n      swap2\n      pop\n        /* \"#utility.yul\":23038:23166   */\n      pop\n        /* \"#utility.yul\":22822:23173   */\n      swap3\n      swap2\n      pop\n      pop\n      jump\t// out\n        /* \"#utility.yul\":23179:23353   */\n    tag_240:\n        /* \"#utility.yul\":23319:23345   */\n      0x4d75737420686f6c6420746f6b656e7320746f20766f74650000000000000000\n        /* \"#utility.yul\":23315:23316   */\n      0x00\n        /* \"#utility.yul\":23307:23313   */\n      dup3\n        /* \"#utility.yul\":23303:23317   */\n      add\n        /* \"#utility.yul\":23296:23346   */\n      mstore\n        /* \"#utility.yul\":23179:23353   */\n      pop\n      jump\t// out\n        /* \"#utility.yul\":23359:23725   */\n    tag_241:\n        /* \"#utility.yul\":23501:23504   */\n      0x00\n        /* \"#utility.yul\":23522:23589   */\n      tag_479\n        /* \"#utility.yul\":23586:23588   */\n      0x18\n        /* \"#utility.yul\":23581:23584   */\n      dup4\n        /* \"#utility.yul\":23522:23589   */\n      tag_184\n      jump\t// in\n    tag_479:\n        /* \"#utility.yul\":23515:23589   */\n      swap2\n      pop\n        /* \"#utility.yul\":23598:23691   */\n      tag_480\n        /* \"#utility.yul\":23687:23690   */\n      dup3\n        /* \"#utility.yul\":23598:23691   */\n      tag_240\n      jump\t// in\n    tag_480:\n        /* \"#utility.yul\":23716:23718   */\n      0x20\n        /* \"#utility.yul\":23711:23714   */\n      dup3\n        /* \"#utility.yul\":23707:23719   */\n      add\n        /* \"#utility.yul\":23700:23719   */\n      swap1\n      pop\n        /* \"#utility.yul\":23359:23725   */\n      swap2\n      swap1\n      pop\n      jump\t// out\n        /* \"#utility.yul\":23731:24150   */\n    tag_156:\n        /* \"#utility.yul\":23897:23901   */\n      0x00\n        /* \"#utility.yul\":23935:23937   */\n      0x20\n        /* \"#utility.yul\":23924:23933   */\n      dup3\n        /* \"#utility.yul\":23920:23938   */\n      add\n        /* \"#utility.yul\":23912:23938   */\n      swap1\n      pop\n        /* \"#utility.yul\":23984:23993   */\n      dup2\n        /* \"#utility.yul\":23978:23982   */\n      dup2\n        /* \"#utility.yul\":23974:23994   */\n      sub\n        /* \"#utility.yul\":23970:23971   */\n      0x00\n        /* \"#utility.yul\":23959:23968   */\n      dup4\n        /* \"#utility.yul\":23955:23972   */\n      add\n        /* \"#utility.yul\":23948:23995   */\n      mstore\n        /* \"#utility.yul\":24012:24143   */\n      tag_482\n        /* \"#utility.yul\":24138:24142   */\n      dup2\n        /* \"#utility.yul\":24012:24143   */\n      tag_241\n      jump\t// in\n    tag_482:\n        /* \"#utility.yul\":24004:24143   */\n      swap1\n      pop\n        /* \"#utility.yul\":23731:24150   */\n      swap2\n      swap1\n      pop\n      jump\t// out\n        /* \"#utility.yul\":24156:24586   */\n    tag_168:\n        /* \"#utility.yul\":24299:24303   */\n      0x00\n        /* \"#utility.yul\":24337:24339   */\n      0x60\n        /* \"#utility.yul\":24326:24335   */\n      dup3\n        /* \"#utility.yul\":24322:24340   */\n      add\n        /* \"#utility.yul\":24314:24340   */\n      swap1\n      pop\n        /* \"#utility.yul\":24350:24421   */\n      tag_484\n        /* \"#utility.yul\":24418:24419   */\n      0x00\n        /* \"#utility.yul\":24407:24416   */\n      dup4\n        /* \"#utility.yul\":24403:24420   */\n      add\n        /* \"#utility.yul\":24394:24400   */\n      dup7\n        /* \"#utility.yul\":24350:24421   */\n      tag_188\n      jump\t// in\n    tag_484:\n        /* \"#utility.yul\":24431:24503   */\n      tag_485\n        /* \"#utility.yul\":24499:24501   */\n      0x20\n        /* \"#utility.yul\":24488:24497   */\n      dup4\n        /* \"#utility.yul\":24484:24502   */\n      add\n        /* \"#utility.yul\":24475:24481   */\n      dup6\n        /* \"#utility.yul\":24431:24503   */\n      tag_182\n      jump\t// in\n    tag_485:\n        /* \"#utility.yul\":24513:24579   */\n      tag_486\n        /* \"#utility.yul\":24575:24577   */\n      0x40\n        /* \"#utility.yul\":24564:24573   */\n      dup4\n        /* \"#utility.yul\":24560:24578   */\n      add\n        /* \"#utility.yul\":24551:24557   */\n      dup5\n        /* \"#utility.yul\":24513:24579   */\n      tag_190\n      jump\t// in\n    tag_486:\n        /* \"#utility.yul\":24156:24586   */\n      swap5\n      swap4\n      pop\n      pop\n      pop\n      pop\n      jump\t// out\n\n    auxdata: 0xa2646970667358221220d1dea5a72b3fb758cd50b442830aa3aa11cc9aec8a2486b2789dee7c11885b3164736f6c634300081a0033\n}\n",
				"bytecode": {
					"linkReferences": {},
					"object": "608060405262093a80600655683635c9adc5dea00000600755348015610023575f80fd5b50604051611bb6380380611bb683398181016040528101906100459190610128565b335f806101000a81548173ffffffffffffffffffffffffffffffffffffffff021916908373ffffffffffffffffffffffffffffffffffffffff1602179055508060035f6101000a81548173ffffffffffffffffffffffffffffffffffffffff021916908373ffffffffffffffffffffffffffffffffffffffff16021790555050610153565b5f80fd5b5f73ffffffffffffffffffffffffffffffffffffffff82169050919050565b5f6100f7826100ce565b9050919050565b610107816100ed565b8114610111575f80fd5b50565b5f81519050610122816100fe565b92915050565b5f6020828403121561013d5761013c6100ca565b5b5f61014a84828501610114565b91505092915050565b611a56806101605f395ff3fe608060405234801561000f575f80fd5b50600436106100b2575f3560e01c80638da5cb5b1161006f5780638da5cb5b1461018f578063a3ec138d146101ad578063c9d27afe146101dd578063da35c664146101f9578063f2fde38b14610217578063fc0c546a14610233576100b2565b8063013cf08b146100b657806302a251a3146100eb5780631f4f7d291461010957806343859632146101255780635652077c146101555780637b7a91dd14610171575b5f80fd5b6100d060048036038101906100cb9190610dcd565b610251565b6040516100e296959493929190610ed0565b60405180910390f35b6100f3610349565b6040516101009190610f36565b60405180910390f35b610123600480360381019061011e91906110a5565b61034f565b005b61013f600480360381019061013a91906110ff565b610548565b60405161014c919061113d565b60405180910390f35b61016f600480360381019061016a9190610dcd565b610572565b005b610179610883565b6040516101869190610f36565b60405180910390f35b610197610889565b6040516101a49190611156565b60405180910390f35b6101c760048036038101906101c2919061116f565b6108ac565b6040516101d4919061113d565b60405180910390f35b6101f760048036038101906101f291906111c4565b6108c9565b005b610201610c8c565b60405161020e9190610f36565b60405180910390f35b610231600480360381019061022c919061116f565b610c92565b005b61023b610d61565b604051610248919061125d565b60405180910390f35b60018181548110610260575f80fd5b905f5260205f2090600602015f91509050805f015f9054906101000a900473ffffffffffffffffffffffffffffffffffffffff16908060010180546102a4906112a3565b80601f01602080910402602001604051908101604052809291908181526020018280546102d0906112a3565b801561031b5780601f106102f25761010080835404028352916020019161031b565b820191905f5260205f20905b8154815290600101906020018083116102fe57829003601f168201915b505050505090806002015490806003015490806004015f9054906101000a900460ff16908060050154905086565b60065481565b5f8054906101000a900473ffffffffffffffffffffffffffffffffffffffff1673ffffffffffffffffffffffffffffffffffffffff163373ffffffffffffffffffffffffffffffffffffffff16146103dc576040517f08c379a00000000000000000000000000000000000000000000000000000000081526004016103d39061131d565b60405180910390fd5b60016040518060c001604052808473ffffffffffffffffffffffffffffffffffffffff1681526020018381526020015f81526020015f81526020016001151581526020016006544261042e9190611368565b815250908060018154018082558091505060019003905f5260205f2090600602015f909190919091505f820151815f015f6101000a81548173ffffffffffffffffffffffffffffffffffffffff021916908373ffffffffffffffffffffffffffffffffffffffff16021790555060208201518160010190816104b0919061152f565b5060408201518160020155606082015181600301556080820151816004015f6101000a81548160ff02191690831515021790555060a0820151816005015550507f7585f467599d0f008985f231af99293be388626ac16ca59505c2f8f88969cd636002548383604051610525939291906115fe565b60405180910390a160025f81548092919061053f9061163a565b91905055505050565b6005602052815f5260405f20602052805f5260405f205f915091509054906101000a900460ff1681565b5f8054906101000a900473ffffffffffffffffffffffffffffffffffffffff1673ffffffffffffffffffffffffffffffffffffffff163373ffffffffffffffffffffffffffffffffffffffff16146105ff576040517f08c379a00000000000000000000000000000000000000000000000000000000081526004016105f69061131d565b60405180910390fd5b6001818154811061061357610612611681565b5b905f5260205f2090600602016004015f9054906101000a900460ff1661066e576040517f08c379a0000000000000000000000000000000000000000000000000000000008152600401610665906116f8565b60405180910390fd5b6001818154811061068257610681611681565b5b905f5260205f2090600602016005015442116106d3576040517f08c379a00000000000000000000000000000000000000000000000000000000081526004016106ca90611760565b60405180910390fd5b5f600182815481106106e8576106e7611681565b5b905f5260205f209060060201600301546001838154811061070c5761070b611681565b5b905f5260205f209060060201600201546107269190611368565b905060075481101561076d576040517f08c379a0000000000000000000000000000000000000000000000000000000008152600401610764906117ee565b60405180910390fd5b6001828154811061078157610780611681565b5b905f5260205f20906006020160030154600183815481106107a5576107a4611681565b5b905f5260205f209060060201600201541115610844575f600183815481106107d0576107cf611681565b5b905f5260205f2090600602016004015f6101000a81548160ff02191690831515021790555061083f6001838154811061080c5761080b611681565b5b905f5260205f2090600602015f015f9054906101000a900473ffffffffffffffffffffffffffffffffffffffff16610d86565b61087f565b5f6001838154811061085957610858611681565b5b905f5260205f2090600602016004015f6101000a81548160ff0219169083151502179055505b5050565b60075481565b5f8054906101000a900473ffffffffffffffffffffffffffffffffffffffff1681565b6004602052805f5260405f205f915054906101000a900460ff1681565b600182815481106108dd576108dc611681565b5b905f5260205f2090600602016004015f9054906101000a900460ff16610938576040517f08c379a000000000000000000000000000000000000000000000000000000000815260040161092f90611856565b60405180910390fd5b6001828154811061094c5761094b611681565b5b905f5260205f2090600602016005015442111561099e576040517f08c379a0000000000000000000000000000000000000000000000000000000008152600401610995906118be565b60405180910390fd5b60055f8381526020019081526020015f205f3373ffffffffffffffffffffffffffffffffffffffff1673ffffffffffffffffffffffffffffffffffffffff1681526020019081526020015f205f9054906101000a900460ff1615610a37576040517f08c379a0000000000000000000000000000000000000000000000000000000008152600401610a2e90611926565b60405180910390fd5b5f60035f9054906101000a900473ffffffffffffffffffffffffffffffffffffffff1673ffffffffffffffffffffffffffffffffffffffff166370a08231336040518263ffffffff1660e01b8152600401610a929190611156565b602060405180830381865afa158015610aad573d5f803e3d5ffd5b505050506040513d601f19601f82011682018060405250810190610ad19190611958565b90505f8111610b15576040517f08c379a0000000000000000000000000000000000000000000000000000000008152600401610b0c906119cd565b60405180910390fd5b8115610b59578060018481548110610b3057610b2f611681565b5b905f5260205f2090600602016002015f828254610b4d9190611368565b92505081905550610b93565b8060018481548110610b6e57610b6d611681565b5b905f5260205f2090600602016003015f828254610b8b9190611368565b925050819055505b600160055f8581526020019081526020015f205f3373ffffffffffffffffffffffffffffffffffffffff1673ffffffffffffffffffffffffffffffffffffffff1681526020019081526020015f205f6101000a81548160ff021916908315150217905550600160045f3373ffffffffffffffffffffffffffffffffffffffff1673ffffffffffffffffffffffffffffffffffffffff1681526020019081526020015f205f6101000a81548160ff0219169083151502179055507ff2913dbe661ee2acc4a046d8fbcdc792373bda34c41c6086484b5345e5785e5f833384604051610c7f939291906119eb565b60405180910390a1505050565b60025481565b5f8054906101000a900473ffffffffffffffffffffffffffffffffffffffff1673ffffffffffffffffffffffffffffffffffffffff163373ffffffffffffffffffffffffffffffffffffffff1614610d1f576040517f08c379a0000000000000000000000000000000000000000000000000000000008152600401610d169061131d565b60405180910390fd5b805f806101000a81548173ffffffffffffffffffffffffffffffffffffffff021916908373ffffffffffffffffffffffffffffffffffffffff16021790555050565b60035f9054906101000a900473ffffffffffffffffffffffffffffffffffffffff1681565b50565b5f604051905090565b5f80fd5b5f80fd5b5f819050919050565b610dac81610d9a565b8114610db6575f80fd5b50565b5f81359050610dc781610da3565b92915050565b5f60208284031215610de257610de1610d92565b5b5f610def84828501610db9565b91505092915050565b5f73ffffffffffffffffffffffffffffffffffffffff82169050919050565b5f610e2182610df8565b9050919050565b610e3181610e17565b82525050565b5f81519050919050565b5f82825260208201905092915050565b8281835e5f83830152505050565b5f601f19601f8301169050919050565b5f610e7982610e37565b610e838185610e41565b9350610e93818560208601610e51565b610e9c81610e5f565b840191505092915050565b610eb081610d9a565b82525050565b5f8115159050919050565b610eca81610eb6565b82525050565b5f60c082019050610ee35f830189610e28565b8181036020830152610ef58188610e6f565b9050610f046040830187610ea7565b610f116060830186610ea7565b610f1e6080830185610ec1565b610f2b60a0830184610ea7565b979650505050505050565b5f602082019050610f495f830184610ea7565b92915050565b610f5881610e17565b8114610f62575f80fd5b50565b5f81359050610f7381610f4f565b92915050565b5f80fd5b5f80fd5b7f4e487b71000000000000000000000000000000000000000000000000000000005f52604160045260245ffd5b610fb782610e5f565b810181811067ffffffffffffffff82111715610fd657610fd5610f81565b5b80604052505050565b5f610fe8610d89565b9050610ff48282610fae565b919050565b5f67ffffffffffffffff82111561101357611012610f81565b5b61101c82610e5f565b9050602081019050919050565b828183375f83830152505050565b5f61104961104484610ff9565b610fdf565b90508281526020810184848401111561106557611064610f7d565b5b611070848285611029565b509392505050565b5f82601f83011261108c5761108b610f79565b5b813561109c848260208601611037565b91505092915050565b5f80604083850312156110bb576110ba610d92565b5b5f6110c885828601610f65565b925050602083013567ffffffffffffffff8111156110e9576110e8610d96565b5b6110f585828601611078565b9150509250929050565b5f806040838503121561111557611114610d92565b5b5f61112285828601610db9565b925050602061113385828601610f65565b9150509250929050565b5f6020820190506111505f830184610ec1565b92915050565b5f6020820190506111695f830184610e28565b92915050565b5f6020828403121561118457611183610d92565b5b5f61119184828501610f65565b91505092915050565b6111a381610eb6565b81146111ad575f80fd5b50565b5f813590506111be8161119a565b92915050565b5f80604083850312156111da576111d9610d92565b5b5f6111e785828601610db9565b92505060206111f8858286016111b0565b9150509250929050565b5f819050919050565b5f61122561122061121b84610df8565b611202565b610df8565b9050919050565b5f6112368261120b565b9050919050565b5f6112478261122c565b9050919050565b6112578161123d565b82525050565b5f6020820190506112705f83018461124e565b92915050565b7f4e487b71000000000000000000000000000000000000000000000000000000005f52602260045260245ffd5b5f60028204905060018216806112ba57607f821691505b6020821081036112cd576112cc611276565b5b50919050565b7f4e6f742074686520636f6e7472616374206f776e6572000000000000000000005f82015250565b5f611307601683610e41565b9150611312826112d3565b602082019050919050565b5f6020820190508181035f830152611334816112fb565b9050919050565b7f4e487b71000000000000000000000000000000000000000000000000000000005f52601160045260245ffd5b5f61137282610d9a565b915061137d83610d9a565b92508282019050808211156113955761139461133b565b5b92915050565b5f819050815f5260205f209050919050565b5f6020601f8301049050919050565b5f82821b905092915050565b5f600883026113f77fffffffffffffffffffffffffffffffffffffffffffffffffffffffffffffffff826113bc565b61140186836113bc565b95508019841693508086168417925050509392505050565b5f61143361142e61142984610d9a565b611202565b610d9a565b9050919050565b5f819050919050565b61144c83611419565b6114606114588261143a565b8484546113c8565b825550505050565b5f90565b611474611468565b61147f818484611443565b505050565b5b818110156114a2576114975f8261146c565b600181019050611485565b5050565b601f8211156114e7576114b88161139b565b6114c1846113ad565b810160208510156114d0578190505b6114e46114dc856113ad565b830182611484565b50505b505050565b5f82821c905092915050565b5f6115075f19846008026114ec565b1980831691505092915050565b5f61151f83836114f8565b9150826002028217905092915050565b61153882610e37565b67ffffffffffffffff81111561155157611550610f81565b5b61155b82546112a3565b6115668282856114a6565b5f60209050601f831160018114611597575f8415611585578287015190505b61158f8582611514565b8655506115f6565b601f1984166115a58661139b565b5f5b828110156115cc578489015182556001820191506020850194506020810190506115a7565b868310156115e957848901516115e5601f8916826114f8565b8355505b6001600288020188555050505b505050505050565b5f6060820190506116115f830186610ea7565b61161e6020830185610e28565b81810360408301526116308184610e6f565b9050949350505050565b5f61164482610d9a565b91507fffffffffffffffffffffffffffffffffffffffffffffffffffffffffffffffff82036116765761167561133b565b5b600182019050919050565b7f4e487b71000000000000000000000000000000000000000000000000000000005f52603260045260245ffd5b7f50726f706f73616c20616c72656164792066696e616c697a65640000000000005f82015250565b5f6116e2601a83610e41565b91506116ed826116ae565b602082019050919050565b5f6020820190508181035f83015261170f816116d6565b9050919050565b7f566f74696e6720706572696f64206e6f74206f766572000000000000000000005f82015250565b5f61174a601683610e41565b915061175582611716565b602082019050919050565b5f6020820190508181035f8301526117778161173e565b9050919050565b7f4e6f7420656e6f75676820766f74657320746f20706173732070726f706f73615f8201527f6c00000000000000000000000000000000000000000000000000000000000000602082015250565b5f6117d8602183610e41565b91506117e38261177e565b604082019050919050565b5f6020820190508181035f830152611805816117cc565b9050919050565b7f50726f706f73616c206973206e6f7420616374697665000000000000000000005f82015250565b5f611840601683610e41565b915061184b8261180c565b602082019050919050565b5f6020820190508181035f83015261186d81611834565b9050919050565b7f566f74696e6720706572696f642068617320656e6465640000000000000000005f82015250565b5f6118a8601783610e41565b91506118b382611874565b602082019050919050565b5f6020820190508181035f8301526118d58161189c565b9050919050565b7f416c726561647920766f746564000000000000000000000000000000000000005f82015250565b5f611910600d83610e41565b915061191b826118dc565b602082019050919050565b5f6020820190508181035f83015261193d81611904565b9050919050565b5f8151905061195281610da3565b92915050565b5f6020828403121561196d5761196c610d92565b5b5f61197a84828501611944565b91505092915050565b7f4d75737420686f6c6420746f6b656e7320746f20766f746500000000000000005f82015250565b5f6119b7601883610e41565b91506119c282611983565b602082019050919050565b5f6020820190508181035f8301526119e4816119ab565b9050919050565b5f6060820190506119fe5f830186610ea7565b611a0b6020830185610e28565b611a186040830184610ec1565b94935050505056fea2646970667358221220d1dea5a72b3fb758cd50b442830aa3aa11cc9aec8a2486b2789dee7c11885b3164736f6c634300081a0033",
					"opcodes": "PUSH1 0x80 PUSH1 0x40 MSTORE PUSH3 0x93A80 PUSH1 0x6 SSTORE PUSH9 0x3635C9ADC5DEA00000 PUSH1 0x7 SSTORE CALLVALUE DUP1 ISZERO PUSH2 0x23 JUMPI PUSH0 DUP1 REVERT JUMPDEST POP PUSH1 0x40 MLOAD PUSH2 0x1BB6 CODESIZE SUB DUP1 PUSH2 0x1BB6 DUP4 CODECOPY DUP2 DUP2 ADD PUSH1 0x40 MSTORE DUP2 ADD SWAP1 PUSH2 0x45 SWAP2 SWAP1 PUSH2 0x128 JUMP JUMPDEST CALLER PUSH0 DUP1 PUSH2 0x100 EXP DUP2 SLOAD DUP2 PUSH20 0xFFFFFFFFFFFFFFFFFFFFFFFFFFFFFFFFFFFFFFFF MUL NOT AND SWAP1 DUP4 PUSH20 0xFFFFFFFFFFFFFFFFFFFFFFFFFFFFFFFFFFFFFFFF AND MUL OR SWAP1 SSTORE POP DUP1 PUSH1 0x3 PUSH0 PUSH2 0x100 EXP DUP2 SLOAD DUP2 PUSH20 0xFFFFFFFFFFFFFFFFFFFFFFFFFFFFFFFFFFFFFFFF MUL NOT AND SWAP1 DUP4 PUSH20 0xFFFFFFFFFFFFFFFFFFFFFFFFFFFFFFFFFFFFFFFF AND MUL OR SWAP1 SSTORE POP POP PUSH2 0x153 JUMP JUMPDEST PUSH0 DUP1 REVERT JUMPDEST PUSH0 PUSH20 0xFFFFFFFFFFFFFFFFFFFFFFFFFFFFFFFFFFFFFFFF DUP3 AND SWAP1 POP SWAP2 SWAP1 POP JUMP JUMPDEST PUSH0 PUSH2 0xF7 DUP3 PUSH2 0xCE JUMP JUMPDEST SWAP1 POP SWAP2 SWAP1 POP JUMP JUMPDEST PUSH2 0x107 DUP2 PUSH2 0xED JUMP JUMPDEST DUP2 EQ PUSH2 0x111 JUMPI PUSH0 DUP1 REVERT JUMPDEST POP JUMP JUMPDEST PUSH0 DUP2 MLOAD SWAP1 POP PUSH2 0x122 DUP2 PUSH2 0xFE JUMP JUMPDEST SWAP3 SWAP2 POP POP JUMP JUMPDEST PUSH0 PUSH1 0x20 DUP3 DUP5 SUB SLT ISZERO PUSH2 0x13D JUMPI PUSH2 0x13C PUSH2 0xCA JUMP JUMPDEST JUMPDEST PUSH0 PUSH2 0x14A DUP5 DUP3 DUP6 ADD PUSH2 0x114 JUMP JUMPDEST SWAP2 POP POP SWAP3 SWAP2 POP POP JUMP JUMPDEST PUSH2 0x1A56 DUP1 PUSH2 0x160 PUSH0 CODECOPY PUSH0 RETURN INVALID PUSH1 0x80 PUSH1 0x40 MSTORE CALLVALUE DUP1 ISZERO PUSH2 0xF JUMPI PUSH0 DUP1 REVERT JUMPDEST POP PUSH1 0x4 CALLDATASIZE LT PUSH2 0xB2 JUMPI PUSH0 CALLDATALOAD PUSH1 0xE0 SHR DUP1 PUSH4 0x8DA5CB5B GT PUSH2 0x6F JUMPI DUP1 PUSH4 0x8DA5CB5B EQ PUSH2 0x18F JUMPI DUP1 PUSH4 0xA3EC138D EQ PUSH2 0x1AD JUMPI DUP1 PUSH4 0xC9D27AFE EQ PUSH2 0x1DD JUMPI DUP1 PUSH4 0xDA35C664 EQ PUSH2 0x1F9 JUMPI DUP1 PUSH4 0xF2FDE38B EQ PUSH2 0x217 JUMPI DUP1 PUSH4 0xFC0C546A EQ PUSH2 0x233 JUMPI PUSH2 0xB2 JUMP JUMPDEST DUP1 PUSH4 0x13CF08B EQ PUSH2 0xB6 JUMPI DUP1 PUSH4 0x2A251A3 EQ PUSH2 0xEB JUMPI DUP1 PUSH4 0x1F4F7D29 EQ PUSH2 0x109 JUMPI DUP1 PUSH4 0x43859632 EQ PUSH2 0x125 JUMPI DUP1 PUSH4 0x5652077C EQ PUSH2 0x155 JUMPI DUP1 PUSH4 0x7B7A91DD EQ PUSH2 0x171 JUMPI JUMPDEST PUSH0 DUP1 REVERT JUMPDEST PUSH2 0xD0 PUSH1 0x4 DUP1 CALLDATASIZE SUB DUP2 ADD SWAP1 PUSH2 0xCB SWAP2 SWAP1 PUSH2 0xDCD JUMP JUMPDEST PUSH2 0x251 JUMP JUMPDEST PUSH1 0x40 MLOAD PUSH2 0xE2 SWAP7 SWAP6 SWAP5 SWAP4 SWAP3 SWAP2 SWAP1 PUSH2 0xED0 JUMP JUMPDEST PUSH1 0x40 MLOAD DUP1 SWAP2 SUB SWAP1 RETURN JUMPDEST PUSH2 0xF3 PUSH2 0x349 JUMP JUMPDEST PUSH1 0x40 MLOAD PUSH2 0x100 SWAP2 SWAP1 PUSH2 0xF36 JUMP JUMPDEST PUSH1 0x40 MLOAD DUP1 SWAP2 SUB SWAP1 RETURN JUMPDEST PUSH2 0x123 PUSH1 0x4 DUP1 CALLDATASIZE SUB DUP2 ADD SWAP1 PUSH2 0x11E SWAP2 SWAP1 PUSH2 0x10A5 JUMP JUMPDEST PUSH2 0x34F JUMP JUMPDEST STOP JUMPDEST PUSH2 0x13F PUSH1 0x4 DUP1 CALLDATASIZE SUB DUP2 ADD SWAP1 PUSH2 0x13A SWAP2 SWAP1 PUSH2 0x10FF JUMP JUMPDEST PUSH2 0x548 JUMP JUMPDEST PUSH1 0x40 MLOAD PUSH2 0x14C SWAP2 SWAP1 PUSH2 0x113D JUMP JUMPDEST PUSH1 0x40 MLOAD DUP1 SWAP2 SUB SWAP1 RETURN JUMPDEST PUSH2 0x16F PUSH1 0x4 DUP1 CALLDATASIZE SUB DUP2 ADD SWAP1 PUSH2 0x16A SWAP2 SWAP1 PUSH2 0xDCD JUMP JUMPDEST PUSH2 0x572 JUMP JUMPDEST STOP JUMPDEST PUSH2 0x179 PUSH2 0x883 JUMP JUMPDEST PUSH1 0x40 MLOAD PUSH2 0x186 SWAP2 SWAP1 PUSH2 0xF36 JUMP JUMPDEST PUSH1 0x40 MLOAD DUP1 SWAP2 SUB SWAP1 RETURN JUMPDEST PUSH2 0x197 PUSH2 0x889 JUMP JUMPDEST PUSH1 0x40 MLOAD PUSH2 0x1A4 SWAP2 SWAP1 PUSH2 0x1156 JUMP JUMPDEST PUSH1 0x40 MLOAD DUP1 SWAP2 SUB SWAP1 RETURN JUMPDEST PUSH2 0x1C7 PUSH1 0x4 DUP1 CALLDATASIZE SUB DUP2 ADD SWAP1 PUSH2 0x1C2 SWAP2 SWAP1 PUSH2 0x116F JUMP JUMPDEST PUSH2 0x8AC JUMP JUMPDEST PUSH1 0x40 MLOAD PUSH2 0x1D4 SWAP2 SWAP1 PUSH2 0x113D JUMP JUMPDEST PUSH1 0x40 MLOAD DUP1 SWAP2 SUB SWAP1 RETURN JUMPDEST PUSH2 0x1F7 PUSH1 0x4 DUP1 CALLDATASIZE SUB DUP2 ADD SWAP1 PUSH2 0x1F2 SWAP2 SWAP1 PUSH2 0x11C4 JUMP JUMPDEST PUSH2 0x8C9 JUMP JUMPDEST STOP JUMPDEST PUSH2 0x201 PUSH2 0xC8C JUMP JUMPDEST PUSH1 0x40 MLOAD PUSH2 0x20E SWAP2 SWAP1 PUSH2 0xF36 JUMP JUMPDEST PUSH1 0x40 MLOAD DUP1 SWAP2 SUB SWAP1 RETURN JUMPDEST PUSH2 0x231 PUSH1 0x4 DUP1 CALLDATASIZE SUB DUP2 ADD SWAP1 PUSH2 0x22C SWAP2 SWAP1 PUSH2 0x116F JUMP JUMPDEST PUSH2 0xC92 JUMP JUMPDEST STOP JUMPDEST PUSH2 0x23B PUSH2 0xD61 JUMP JUMPDEST PUSH1 0x40 MLOAD PUSH2 0x248 SWAP2 SWAP1 PUSH2 0x125D JUMP JUMPDEST PUSH1 0x40 MLOAD DUP1 SWAP2 SUB SWAP1 RETURN JUMPDEST PUSH1 0x1 DUP2 DUP2 SLOAD DUP2 LT PUSH2 0x260 JUMPI PUSH0 DUP1 REVERT JUMPDEST SWAP1 PUSH0 MSTORE PUSH1 0x20 PUSH0 KECCAK256 SWAP1 PUSH1 0x6 MUL ADD PUSH0 SWAP2 POP SWAP1 POP DUP1 PUSH0 ADD PUSH0 SWAP1 SLOAD SWAP1 PUSH2 0x100 EXP SWAP1 DIV PUSH20 0xFFFFFFFFFFFFFFFFFFFFFFFFFFFFFFFFFFFFFFFF AND SWAP1 DUP1 PUSH1 0x1 ADD DUP1 SLOAD PUSH2 0x2A4 SWAP1 PUSH2 0x12A3 JUMP JUMPDEST DUP1 PUSH1 0x1F ADD PUSH1 0x20 DUP1 SWAP2 DIV MUL PUSH1 0x20 ADD PUSH1 0x40 MLOAD SWAP1 DUP2 ADD PUSH1 0x40 MSTORE DUP1 SWAP3 SWAP2 SWAP1 DUP2 DUP2 MSTORE PUSH1 0x20 ADD DUP3 DUP1 SLOAD PUSH2 0x2D0 SWAP1 PUSH2 0x12A3 JUMP JUMPDEST DUP1 ISZERO PUSH2 0x31B JUMPI DUP1 PUSH1 0x1F LT PUSH2 0x2F2 JUMPI PUSH2 0x100 DUP1 DUP4 SLOAD DIV MUL DUP4 MSTORE SWAP2 PUSH1 0x20 ADD SWAP2 PUSH2 0x31B JUMP JUMPDEST DUP3 ADD SWAP2 SWAP1 PUSH0 MSTORE PUSH1 0x20 PUSH0 KECCAK256 SWAP1 JUMPDEST DUP2 SLOAD DUP2 MSTORE SWAP1 PUSH1 0x1 ADD SWAP1 PUSH1 0x20 ADD DUP1 DUP4 GT PUSH2 0x2FE JUMPI DUP3 SWAP1 SUB PUSH1 0x1F AND DUP3 ADD SWAP2 JUMPDEST POP POP POP POP POP SWAP1 DUP1 PUSH1 0x2 ADD SLOAD SWAP1 DUP1 PUSH1 0x3 ADD SLOAD SWAP1 DUP1 PUSH1 0x4 ADD PUSH0 SWAP1 SLOAD SWAP1 PUSH2 0x100 EXP SWAP1 DIV PUSH1 0xFF AND SWAP1 DUP1 PUSH1 0x5 ADD SLOAD SWAP1 POP DUP7 JUMP JUMPDEST PUSH1 0x6 SLOAD DUP2 JUMP JUMPDEST PUSH0 DUP1 SLOAD SWAP1 PUSH2 0x100 EXP SWAP1 DIV PUSH20 0xFFFFFFFFFFFFFFFFFFFFFFFFFFFFFFFFFFFFFFFF AND PUSH20 0xFFFFFFFFFFFFFFFFFFFFFFFFFFFFFFFFFFFFFFFF AND CALLER PUSH20 0xFFFFFFFFFFFFFFFFFFFFFFFFFFFFFFFFFFFFFFFF AND EQ PUSH2 0x3DC JUMPI PUSH1 0x40 MLOAD PUSH32 0x8C379A000000000000000000000000000000000000000000000000000000000 DUP2 MSTORE PUSH1 0x4 ADD PUSH2 0x3D3 SWAP1 PUSH2 0x131D JUMP JUMPDEST PUSH1 0x40 MLOAD DUP1 SWAP2 SUB SWAP1 REVERT JUMPDEST PUSH1 0x1 PUSH1 0x40 MLOAD DUP1 PUSH1 0xC0 ADD PUSH1 0x40 MSTORE DUP1 DUP5 PUSH20 0xFFFFFFFFFFFFFFFFFFFFFFFFFFFFFFFFFFFFFFFF AND DUP2 MSTORE PUSH1 0x20 ADD DUP4 DUP2 MSTORE PUSH1 0x20 ADD PUSH0 DUP2 MSTORE PUSH1 0x20 ADD PUSH0 DUP2 MSTORE PUSH1 0x20 ADD PUSH1 0x1 ISZERO ISZERO DUP2 MSTORE PUSH1 0x20 ADD PUSH1 0x6 SLOAD TIMESTAMP PUSH2 0x42E SWAP2 SWAP1 PUSH2 0x1368 JUMP JUMPDEST DUP2 MSTORE POP SWAP1 DUP1 PUSH1 0x1 DUP2 SLOAD ADD DUP1 DUP3 SSTORE DUP1 SWAP2 POP POP PUSH1 0x1 SWAP1 SUB SWAP1 PUSH0 MSTORE PUSH1 0x20 PUSH0 KECCAK256 SWAP1 PUSH1 0x6 MUL ADD PUSH0 SWAP1 SWAP2 SWAP1 SWAP2 SWAP1 SWAP2 POP PUSH0 DUP3 ADD MLOAD DUP2 PUSH0 ADD PUSH0 PUSH2 0x100 EXP DUP2 SLOAD DUP2 PUSH20 0xFFFFFFFFFFFFFFFFFFFFFFFFFFFFFFFFFFFFFFFF MUL NOT AND SWAP1 DUP4 PUSH20 0xFFFFFFFFFFFFFFFFFFFFFFFFFFFFFFFFFFFFFFFF AND MUL OR SWAP1 SSTORE POP PUSH1 0x20 DUP3 ADD MLOAD DUP2 PUSH1 0x1 ADD SWAP1 DUP2 PUSH2 0x4B0 SWAP2 SWAP1 PUSH2 0x152F JUMP JUMPDEST POP PUSH1 0x40 DUP3 ADD MLOAD DUP2 PUSH1 0x2 ADD SSTORE PUSH1 0x60 DUP3 ADD MLOAD DUP2 PUSH1 0x3 ADD SSTORE PUSH1 0x80 DUP3 ADD MLOAD DUP2 PUSH1 0x4 ADD PUSH0 PUSH2 0x100 EXP DUP2 SLOAD DUP2 PUSH1 0xFF MUL NOT AND SWAP1 DUP4 ISZERO ISZERO MUL OR SWAP1 SSTORE POP PUSH1 0xA0 DUP3 ADD MLOAD DUP2 PUSH1 0x5 ADD SSTORE POP POP PUSH32 0x7585F467599D0F008985F231AF99293BE388626AC16CA59505C2F8F88969CD63 PUSH1 0x2 SLOAD DUP4 DUP4 PUSH1 0x40 MLOAD PUSH2 0x525 SWAP4 SWAP3 SWAP2 SWAP1 PUSH2 0x15FE JUMP JUMPDEST PUSH1 0x40 MLOAD DUP1 SWAP2 SUB SWAP1 LOG1 PUSH1 0x2 PUSH0 DUP2 SLOAD DUP1 SWAP3 SWAP2 SWAP1 PUSH2 0x53F SWAP1 PUSH2 0x163A JUMP JUMPDEST SWAP2 SWAP1 POP SSTORE POP POP POP JUMP JUMPDEST PUSH1 0x5 PUSH1 0x20 MSTORE DUP2 PUSH0 MSTORE PUSH1 0x40 PUSH0 KECCAK256 PUSH1 0x20 MSTORE DUP1 PUSH0 MSTORE PUSH1 0x40 PUSH0 KECCAK256 PUSH0 SWAP2 POP SWAP2 POP SWAP1 SLOAD SWAP1 PUSH2 0x100 EXP SWAP1 DIV PUSH1 0xFF AND DUP2 JUMP JUMPDEST PUSH0 DUP1 SLOAD SWAP1 PUSH2 0x100 EXP SWAP1 DIV PUSH20 0xFFFFFFFFFFFFFFFFFFFFFFFFFFFFFFFFFFFFFFFF AND PUSH20 0xFFFFFFFFFFFFFFFFFFFFFFFFFFFFFFFFFFFFFFFF AND CALLER PUSH20 0xFFFFFFFFFFFFFFFFFFFFFFFFFFFFFFFFFFFFFFFF AND EQ PUSH2 0x5FF JUMPI PUSH1 0x40 MLOAD PUSH32 0x8C379A000000000000000000000000000000000000000000000000000000000 DUP2 MSTORE PUSH1 0x4 ADD PUSH2 0x5F6 SWAP1 PUSH2 0x131D JUMP JUMPDEST PUSH1 0x40 MLOAD DUP1 SWAP2 SUB SWAP1 REVERT JUMPDEST PUSH1 0x1 DUP2 DUP2 SLOAD DUP2 LT PUSH2 0x613 JUMPI PUSH2 0x612 PUSH2 0x1681 JUMP JUMPDEST JUMPDEST SWAP1 PUSH0 MSTORE PUSH1 0x20 PUSH0 KECCAK256 SWAP1 PUSH1 0x6 MUL ADD PUSH1 0x4 ADD PUSH0 SWAP1 SLOAD SWAP1 PUSH2 0x100 EXP SWAP1 DIV PUSH1 0xFF AND PUSH2 0x66E JUMPI PUSH1 0x40 MLOAD PUSH32 0x8C379A000000000000000000000000000000000000000000000000000000000 DUP2 MSTORE PUSH1 0x4 ADD PUSH2 0x665 SWAP1 PUSH2 0x16F8 JUMP JUMPDEST PUSH1 0x40 MLOAD DUP1 SWAP2 SUB SWAP1 REVERT JUMPDEST PUSH1 0x1 DUP2 DUP2 SLOAD DUP2 LT PUSH2 0x682 JUMPI PUSH2 0x681 PUSH2 0x1681 JUMP JUMPDEST JUMPDEST SWAP1 PUSH0 MSTORE PUSH1 0x20 PUSH0 KECCAK256 SWAP1 PUSH1 0x6 MUL ADD PUSH1 0x5 ADD SLOAD TIMESTAMP GT PUSH2 0x6D3 JUMPI PUSH1 0x40 MLOAD PUSH32 0x8C379A000000000000000000000000000000000000000000000000000000000 DUP2 MSTORE PUSH1 0x4 ADD PUSH2 0x6CA SWAP1 PUSH2 0x1760 JUMP JUMPDEST PUSH1 0x40 MLOAD DUP1 SWAP2 SUB SWAP1 REVERT JUMPDEST PUSH0 PUSH1 0x1 DUP3 DUP2 SLOAD DUP2 LT PUSH2 0x6E8 JUMPI PUSH2 0x6E7 PUSH2 0x1681 JUMP JUMPDEST JUMPDEST SWAP1 PUSH0 MSTORE PUSH1 0x20 PUSH0 KECCAK256 SWAP1 PUSH1 0x6 MUL ADD PUSH1 0x3 ADD SLOAD PUSH1 0x1 DUP4 DUP2 SLOAD DUP2 LT PUSH2 0x70C JUMPI PUSH2 0x70B PUSH2 0x1681 JUMP JUMPDEST JUMPDEST SWAP1 PUSH0 MSTORE PUSH1 0x20 PUSH0 KECCAK256 SWAP1 PUSH1 0x6 MUL ADD PUSH1 0x2 ADD SLOAD PUSH2 0x726 SWAP2 SWAP1 PUSH2 0x1368 JUMP JUMPDEST SWAP1 POP PUSH1 0x7 SLOAD DUP2 LT ISZERO PUSH2 0x76D JUMPI PUSH1 0x40 MLOAD PUSH32 0x8C379A000000000000000000000000000000000000000000000000000000000 DUP2 MSTORE PUSH1 0x4 ADD PUSH2 0x764 SWAP1 PUSH2 0x17EE JUMP JUMPDEST PUSH1 0x40 MLOAD DUP1 SWAP2 SUB SWAP1 REVERT JUMPDEST PUSH1 0x1 DUP3 DUP2 SLOAD DUP2 LT PUSH2 0x781 JUMPI PUSH2 0x780 PUSH2 0x1681 JUMP JUMPDEST JUMPDEST SWAP1 PUSH0 MSTORE PUSH1 0x20 PUSH0 KECCAK256 SWAP1 PUSH1 0x6 MUL ADD PUSH1 0x3 ADD SLOAD PUSH1 0x1 DUP4 DUP2 SLOAD DUP2 LT PUSH2 0x7A5 JUMPI PUSH2 0x7A4 PUSH2 0x1681 JUMP JUMPDEST JUMPDEST SWAP1 PUSH0 MSTORE PUSH1 0x20 PUSH0 KECCAK256 SWAP1 PUSH1 0x6 MUL ADD PUSH1 0x2 ADD SLOAD GT ISZERO PUSH2 0x844 JUMPI PUSH0 PUSH1 0x1 DUP4 DUP2 SLOAD DUP2 LT PUSH2 0x7D0 JUMPI PUSH2 0x7CF PUSH2 0x1681 JUMP JUMPDEST JUMPDEST SWAP1 PUSH0 MSTORE PUSH1 0x20 PUSH0 KECCAK256 SWAP1 PUSH1 0x6 MUL ADD PUSH1 0x4 ADD PUSH0 PUSH2 0x100 EXP DUP2 SLOAD DUP2 PUSH1 0xFF MUL NOT AND SWAP1 DUP4 ISZERO ISZERO MUL OR SWAP1 SSTORE POP PUSH2 0x83F PUSH1 0x1 DUP4 DUP2 SLOAD DUP2 LT PUSH2 0x80C JUMPI PUSH2 0x80B PUSH2 0x1681 JUMP JUMPDEST JUMPDEST SWAP1 PUSH0 MSTORE PUSH1 0x20 PUSH0 KECCAK256 SWAP1 PUSH1 0x6 MUL ADD PUSH0 ADD PUSH0 SWAP1 SLOAD SWAP1 PUSH2 0x100 EXP SWAP1 DIV PUSH20 0xFFFFFFFFFFFFFFFFFFFFFFFFFFFFFFFFFFFFFFFF AND PUSH2 0xD86 JUMP JUMPDEST PUSH2 0x87F JUMP JUMPDEST PUSH0 PUSH1 0x1 DUP4 DUP2 SLOAD DUP2 LT PUSH2 0x859 JUMPI PUSH2 0x858 PUSH2 0x1681 JUMP JUMPDEST JUMPDEST SWAP1 PUSH0 MSTORE PUSH1 0x20 PUSH0 KECCAK256 SWAP1 PUSH1 0x6 MUL ADD PUSH1 0x4 ADD PUSH0 PUSH2 0x100 EXP DUP2 SLOAD DUP2 PUSH1 0xFF MUL NOT AND SWAP1 DUP4 ISZERO ISZERO MUL OR SWAP1 SSTORE POP JUMPDEST POP POP JUMP JUMPDEST PUSH1 0x7 SLOAD DUP2 JUMP JUMPDEST PUSH0 DUP1 SLOAD SWAP1 PUSH2 0x100 EXP SWAP1 DIV PUSH20 0xFFFFFFFFFFFFFFFFFFFFFFFFFFFFFFFFFFFFFFFF AND DUP2 JUMP JUMPDEST PUSH1 0x4 PUSH1 0x20 MSTORE DUP1 PUSH0 MSTORE PUSH1 0x40 PUSH0 KECCAK256 PUSH0 SWAP2 POP SLOAD SWAP1 PUSH2 0x100 EXP SWAP1 DIV PUSH1 0xFF AND DUP2 JUMP JUMPDEST PUSH1 0x1 DUP3 DUP2 SLOAD DUP2 LT PUSH2 0x8DD JUMPI PUSH2 0x8DC PUSH2 0x1681 JUMP JUMPDEST JUMPDEST SWAP1 PUSH0 MSTORE PUSH1 0x20 PUSH0 KECCAK256 SWAP1 PUSH1 0x6 MUL ADD PUSH1 0x4 ADD PUSH0 SWAP1 SLOAD SWAP1 PUSH2 0x100 EXP SWAP1 DIV PUSH1 0xFF AND PUSH2 0x938 JUMPI PUSH1 0x40 MLOAD PUSH32 0x8C379A000000000000000000000000000000000000000000000000000000000 DUP2 MSTORE PUSH1 0x4 ADD PUSH2 0x92F SWAP1 PUSH2 0x1856 JUMP JUMPDEST PUSH1 0x40 MLOAD DUP1 SWAP2 SUB SWAP1 REVERT JUMPDEST PUSH1 0x1 DUP3 DUP2 SLOAD DUP2 LT PUSH2 0x94C JUMPI PUSH2 0x94B PUSH2 0x1681 JUMP JUMPDEST JUMPDEST SWAP1 PUSH0 MSTORE PUSH1 0x20 PUSH0 KECCAK256 SWAP1 PUSH1 0x6 MUL ADD PUSH1 0x5 ADD SLOAD TIMESTAMP GT ISZERO PUSH2 0x99E JUMPI PUSH1 0x40 MLOAD PUSH32 0x8C379A000000000000000000000000000000000000000000000000000000000 DUP2 MSTORE PUSH1 0x4 ADD PUSH2 0x995 SWAP1 PUSH2 0x18BE JUMP JUMPDEST PUSH1 0x40 MLOAD DUP1 SWAP2 SUB SWAP1 REVERT JUMPDEST PUSH1 0x5 PUSH0 DUP4 DUP2 MSTORE PUSH1 0x20 ADD SWAP1 DUP2 MSTORE PUSH1 0x20 ADD PUSH0 KECCAK256 PUSH0 CALLER PUSH20 0xFFFFFFFFFFFFFFFFFFFFFFFFFFFFFFFFFFFFFFFF AND PUSH20 0xFFFFFFFFFFFFFFFFFFFFFFFFFFFFFFFFFFFFFFFF AND DUP2 MSTORE PUSH1 0x20 ADD SWAP1 DUP2 MSTORE PUSH1 0x20 ADD PUSH0 KECCAK256 PUSH0 SWAP1 SLOAD SWAP1 PUSH2 0x100 EXP SWAP1 DIV PUSH1 0xFF AND ISZERO PUSH2 0xA37 JUMPI PUSH1 0x40 MLOAD PUSH32 0x8C379A000000000000000000000000000000000000000000000000000000000 DUP2 MSTORE PUSH1 0x4 ADD PUSH2 0xA2E SWAP1 PUSH2 0x1926 JUMP JUMPDEST PUSH1 0x40 MLOAD DUP1 SWAP2 SUB SWAP1 REVERT JUMPDEST PUSH0 PUSH1 0x3 PUSH0 SWAP1 SLOAD SWAP1 PUSH2 0x100 EXP SWAP1 DIV PUSH20 0xFFFFFFFFFFFFFFFFFFFFFFFFFFFFFFFFFFFFFFFF AND PUSH20 0xFFFFFFFFFFFFFFFFFFFFFFFFFFFFFFFFFFFFFFFF AND PUSH4 0x70A08231 CALLER PUSH1 0x40 MLOAD DUP3 PUSH4 0xFFFFFFFF AND PUSH1 0xE0 SHL DUP2 MSTORE PUSH1 0x4 ADD PUSH2 0xA92 SWAP2 SWAP1 PUSH2 0x1156 JUMP JUMPDEST PUSH1 0x20 PUSH1 0x40 MLOAD DUP1 DUP4 SUB DUP2 DUP7 GAS STATICCALL ISZERO DUP1 ISZERO PUSH2 0xAAD JUMPI RETURNDATASIZE PUSH0 DUP1 RETURNDATACOPY RETURNDATASIZE PUSH0 REVERT JUMPDEST POP POP POP POP PUSH1 0x40 MLOAD RETURNDATASIZE PUSH1 0x1F NOT PUSH1 0x1F DUP3 ADD AND DUP3 ADD DUP1 PUSH1 0x40 MSTORE POP DUP2 ADD SWAP1 PUSH2 0xAD1 SWAP2 SWAP1 PUSH2 0x1958 JUMP JUMPDEST SWAP1 POP PUSH0 DUP2 GT PUSH2 0xB15 JUMPI PUSH1 0x40 MLOAD PUSH32 0x8C379A000000000000000000000000000000000000000000000000000000000 DUP2 MSTORE PUSH1 0x4 ADD PUSH2 0xB0C SWAP1 PUSH2 0x19CD JUMP JUMPDEST PUSH1 0x40 MLOAD DUP1 SWAP2 SUB SWAP1 REVERT JUMPDEST DUP2 ISZERO PUSH2 0xB59 JUMPI DUP1 PUSH1 0x1 DUP5 DUP2 SLOAD DUP2 LT PUSH2 0xB30 JUMPI PUSH2 0xB2F PUSH2 0x1681 JUMP JUMPDEST JUMPDEST SWAP1 PUSH0 MSTORE PUSH1 0x20 PUSH0 KECCAK256 SWAP1 PUSH1 0x6 MUL ADD PUSH1 0x2 ADD PUSH0 DUP3 DUP3 SLOAD PUSH2 0xB4D SWAP2 SWAP1 PUSH2 0x1368 JUMP JUMPDEST SWAP3 POP POP DUP2 SWAP1 SSTORE POP PUSH2 0xB93 JUMP JUMPDEST DUP1 PUSH1 0x1 DUP5 DUP2 SLOAD DUP2 LT PUSH2 0xB6E JUMPI PUSH2 0xB6D PUSH2 0x1681 JUMP JUMPDEST JUMPDEST SWAP1 PUSH0 MSTORE PUSH1 0x20 PUSH0 KECCAK256 SWAP1 PUSH1 0x6 MUL ADD PUSH1 0x3 ADD PUSH0 DUP3 DUP3 SLOAD PUSH2 0xB8B SWAP2 SWAP1 PUSH2 0x1368 JUMP JUMPDEST SWAP3 POP POP DUP2 SWAP1 SSTORE POP JUMPDEST PUSH1 0x1 PUSH1 0x5 PUSH0 DUP6 DUP2 MSTORE PUSH1 0x20 ADD SWAP1 DUP2 MSTORE PUSH1 0x20 ADD PUSH0 KECCAK256 PUSH0 CALLER PUSH20 0xFFFFFFFFFFFFFFFFFFFFFFFFFFFFFFFFFFFFFFFF AND PUSH20 0xFFFFFFFFFFFFFFFFFFFFFFFFFFFFFFFFFFFFFFFF AND DUP2 MSTORE PUSH1 0x20 ADD SWAP1 DUP2 MSTORE PUSH1 0x20 ADD PUSH0 KECCAK256 PUSH0 PUSH2 0x100 EXP DUP2 SLOAD DUP2 PUSH1 0xFF MUL NOT AND SWAP1 DUP4 ISZERO ISZERO MUL OR SWAP1 SSTORE POP PUSH1 0x1 PUSH1 0x4 PUSH0 CALLER PUSH20 0xFFFFFFFFFFFFFFFFFFFFFFFFFFFFFFFFFFFFFFFF AND PUSH20 0xFFFFFFFFFFFFFFFFFFFFFFFFFFFFFFFFFFFFFFFF AND DUP2 MSTORE PUSH1 0x20 ADD SWAP1 DUP2 MSTORE PUSH1 0x20 ADD PUSH0 KECCAK256 PUSH0 PUSH2 0x100 EXP DUP2 SLOAD DUP2 PUSH1 0xFF MUL NOT AND SWAP1 DUP4 ISZERO ISZERO MUL OR SWAP1 SSTORE POP PUSH32 0xF2913DBE661EE2ACC4A046D8FBCDC792373BDA34C41C6086484B5345E5785E5F DUP4 CALLER DUP5 PUSH1 0x40 MLOAD PUSH2 0xC7F SWAP4 SWAP3 SWAP2 SWAP1 PUSH2 0x19EB JUMP JUMPDEST PUSH1 0x40 MLOAD DUP1 SWAP2 SUB SWAP1 LOG1 POP POP POP JUMP JUMPDEST PUSH1 0x2 SLOAD DUP2 JUMP JUMPDEST PUSH0 DUP1 SLOAD SWAP1 PUSH2 0x100 EXP SWAP1 DIV PUSH20 0xFFFFFFFFFFFFFFFFFFFFFFFFFFFFFFFFFFFFFFFF AND PUSH20 0xFFFFFFFFFFFFFFFFFFFFFFFFFFFFFFFFFFFFFFFF AND CALLER PUSH20 0xFFFFFFFFFFFFFFFFFFFFFFFFFFFFFFFFFFFFFFFF AND EQ PUSH2 0xD1F JUMPI PUSH1 0x40 MLOAD PUSH32 0x8C379A000000000000000000000000000000000000000000000000000000000 DUP2 MSTORE PUSH1 0x4 ADD PUSH2 0xD16 SWAP1 PUSH2 0x131D JUMP JUMPDEST PUSH1 0x40 MLOAD DUP1 SWAP2 SUB SWAP1 REVERT JUMPDEST DUP1 PUSH0 DUP1 PUSH2 0x100 EXP DUP2 SLOAD DUP2 PUSH20 0xFFFFFFFFFFFFFFFFFFFFFFFFFFFFFFFFFFFFFFFF MUL NOT AND SWAP1 DUP4 PUSH20 0xFFFFFFFFFFFFFFFFFFFFFFFFFFFFFFFFFFFFFFFF AND MUL OR SWAP1 SSTORE POP POP JUMP JUMPDEST PUSH1 0x3 PUSH0 SWAP1 SLOAD SWAP1 PUSH2 0x100 EXP SWAP1 DIV PUSH20 0xFFFFFFFFFFFFFFFFFFFFFFFFFFFFFFFFFFFFFFFF AND DUP2 JUMP JUMPDEST POP JUMP JUMPDEST PUSH0 PUSH1 0x40 MLOAD SWAP1 POP SWAP1 JUMP JUMPDEST PUSH0 DUP1 REVERT JUMPDEST PUSH0 DUP1 REVERT JUMPDEST PUSH0 DUP2 SWAP1 POP SWAP2 SWAP1 POP JUMP JUMPDEST PUSH2 0xDAC DUP2 PUSH2 0xD9A JUMP JUMPDEST DUP2 EQ PUSH2 0xDB6 JUMPI PUSH0 DUP1 REVERT JUMPDEST POP JUMP JUMPDEST PUSH0 DUP2 CALLDATALOAD SWAP1 POP PUSH2 0xDC7 DUP2 PUSH2 0xDA3 JUMP JUMPDEST SWAP3 SWAP2 POP POP JUMP JUMPDEST PUSH0 PUSH1 0x20 DUP3 DUP5 SUB SLT ISZERO PUSH2 0xDE2 JUMPI PUSH2 0xDE1 PUSH2 0xD92 JUMP JUMPDEST JUMPDEST PUSH0 PUSH2 0xDEF DUP5 DUP3 DUP6 ADD PUSH2 0xDB9 JUMP JUMPDEST SWAP2 POP POP SWAP3 SWAP2 POP POP JUMP JUMPDEST PUSH0 PUSH20 0xFFFFFFFFFFFFFFFFFFFFFFFFFFFFFFFFFFFFFFFF DUP3 AND SWAP1 POP SWAP2 SWAP1 POP JUMP JUMPDEST PUSH0 PUSH2 0xE21 DUP3 PUSH2 0xDF8 JUMP JUMPDEST SWAP1 POP SWAP2 SWAP1 POP JUMP JUMPDEST PUSH2 0xE31 DUP2 PUSH2 0xE17 JUMP JUMPDEST DUP3 MSTORE POP POP JUMP JUMPDEST PUSH0 DUP2 MLOAD SWAP1 POP SWAP2 SWAP1 POP JUMP JUMPDEST PUSH0 DUP3 DUP3 MSTORE PUSH1 0x20 DUP3 ADD SWAP1 POP SWAP3 SWAP2 POP POP JUMP JUMPDEST DUP3 DUP2 DUP4 MCOPY PUSH0 DUP4 DUP4 ADD MSTORE POP POP POP JUMP JUMPDEST PUSH0 PUSH1 0x1F NOT PUSH1 0x1F DUP4 ADD AND SWAP1 POP SWAP2 SWAP1 POP JUMP JUMPDEST PUSH0 PUSH2 0xE79 DUP3 PUSH2 0xE37 JUMP JUMPDEST PUSH2 0xE83 DUP2 DUP6 PUSH2 0xE41 JUMP JUMPDEST SWAP4 POP PUSH2 0xE93 DUP2 DUP6 PUSH1 0x20 DUP7 ADD PUSH2 0xE51 JUMP JUMPDEST PUSH2 0xE9C DUP2 PUSH2 0xE5F JUMP JUMPDEST DUP5 ADD SWAP2 POP POP SWAP3 SWAP2 POP POP JUMP JUMPDEST PUSH2 0xEB0 DUP2 PUSH2 0xD9A JUMP JUMPDEST DUP3 MSTORE POP POP JUMP JUMPDEST PUSH0 DUP2 ISZERO ISZERO SWAP1 POP SWAP2 SWAP1 POP JUMP JUMPDEST PUSH2 0xECA DUP2 PUSH2 0xEB6 JUMP JUMPDEST DUP3 MSTORE POP POP JUMP JUMPDEST PUSH0 PUSH1 0xC0 DUP3 ADD SWAP1 POP PUSH2 0xEE3 PUSH0 DUP4 ADD DUP10 PUSH2 0xE28 JUMP JUMPDEST DUP2 DUP2 SUB PUSH1 0x20 DUP4 ADD MSTORE PUSH2 0xEF5 DUP2 DUP9 PUSH2 0xE6F JUMP JUMPDEST SWAP1 POP PUSH2 0xF04 PUSH1 0x40 DUP4 ADD DUP8 PUSH2 0xEA7 JUMP JUMPDEST PUSH2 0xF11 PUSH1 0x60 DUP4 ADD DUP7 PUSH2 0xEA7 JUMP JUMPDEST PUSH2 0xF1E PUSH1 0x80 DUP4 ADD DUP6 PUSH2 0xEC1 JUMP JUMPDEST PUSH2 0xF2B PUSH1 0xA0 DUP4 ADD DUP5 PUSH2 0xEA7 JUMP JUMPDEST SWAP8 SWAP7 POP POP POP POP POP POP POP JUMP JUMPDEST PUSH0 PUSH1 0x20 DUP3 ADD SWAP1 POP PUSH2 0xF49 PUSH0 DUP4 ADD DUP5 PUSH2 0xEA7 JUMP JUMPDEST SWAP3 SWAP2 POP POP JUMP JUMPDEST PUSH2 0xF58 DUP2 PUSH2 0xE17 JUMP JUMPDEST DUP2 EQ PUSH2 0xF62 JUMPI PUSH0 DUP1 REVERT JUMPDEST POP JUMP JUMPDEST PUSH0 DUP2 CALLDATALOAD SWAP1 POP PUSH2 0xF73 DUP2 PUSH2 0xF4F JUMP JUMPDEST SWAP3 SWAP2 POP POP JUMP JUMPDEST PUSH0 DUP1 REVERT JUMPDEST PUSH0 DUP1 REVERT JUMPDEST PUSH32 0x4E487B7100000000000000000000000000000000000000000000000000000000 PUSH0 MSTORE PUSH1 0x41 PUSH1 0x4 MSTORE PUSH1 0x24 PUSH0 REVERT JUMPDEST PUSH2 0xFB7 DUP3 PUSH2 0xE5F JUMP JUMPDEST DUP2 ADD DUP2 DUP2 LT PUSH8 0xFFFFFFFFFFFFFFFF DUP3 GT OR ISZERO PUSH2 0xFD6 JUMPI PUSH2 0xFD5 PUSH2 0xF81 JUMP JUMPDEST JUMPDEST DUP1 PUSH1 0x40 MSTORE POP POP POP JUMP JUMPDEST PUSH0 PUSH2 0xFE8 PUSH2 0xD89 JUMP JUMPDEST SWAP1 POP PUSH2 0xFF4 DUP3 DUP3 PUSH2 0xFAE JUMP JUMPDEST SWAP2 SWAP1 POP JUMP JUMPDEST PUSH0 PUSH8 0xFFFFFFFFFFFFFFFF DUP3 GT ISZERO PUSH2 0x1013 JUMPI PUSH2 0x1012 PUSH2 0xF81 JUMP JUMPDEST JUMPDEST PUSH2 0x101C DUP3 PUSH2 0xE5F JUMP JUMPDEST SWAP1 POP PUSH1 0x20 DUP2 ADD SWAP1 POP SWAP2 SWAP1 POP JUMP JUMPDEST DUP3 DUP2 DUP4 CALLDATACOPY PUSH0 DUP4 DUP4 ADD MSTORE POP POP POP JUMP JUMPDEST PUSH0 PUSH2 0x1049 PUSH2 0x1044 DUP5 PUSH2 0xFF9 JUMP JUMPDEST PUSH2 0xFDF JUMP JUMPDEST SWAP1 POP DUP3 DUP2 MSTORE PUSH1 0x20 DUP2 ADD DUP5 DUP5 DUP5 ADD GT ISZERO PUSH2 0x1065 JUMPI PUSH2 0x1064 PUSH2 0xF7D JUMP JUMPDEST JUMPDEST PUSH2 0x1070 DUP5 DUP3 DUP6 PUSH2 0x1029 JUMP JUMPDEST POP SWAP4 SWAP3 POP POP POP JUMP JUMPDEST PUSH0 DUP3 PUSH1 0x1F DUP4 ADD SLT PUSH2 0x108C JUMPI PUSH2 0x108B PUSH2 0xF79 JUMP JUMPDEST JUMPDEST DUP2 CALLDATALOAD PUSH2 0x109C DUP5 DUP3 PUSH1 0x20 DUP7 ADD PUSH2 0x1037 JUMP JUMPDEST SWAP2 POP POP SWAP3 SWAP2 POP POP JUMP JUMPDEST PUSH0 DUP1 PUSH1 0x40 DUP4 DUP6 SUB SLT ISZERO PUSH2 0x10BB JUMPI PUSH2 0x10BA PUSH2 0xD92 JUMP JUMPDEST JUMPDEST PUSH0 PUSH2 0x10C8 DUP6 DUP3 DUP7 ADD PUSH2 0xF65 JUMP JUMPDEST SWAP3 POP POP PUSH1 0x20 DUP4 ADD CALLDATALOAD PUSH8 0xFFFFFFFFFFFFFFFF DUP2 GT ISZERO PUSH2 0x10E9 JUMPI PUSH2 0x10E8 PUSH2 0xD96 JUMP JUMPDEST JUMPDEST PUSH2 0x10F5 DUP6 DUP3 DUP7 ADD PUSH2 0x1078 JUMP JUMPDEST SWAP2 POP POP SWAP3 POP SWAP3 SWAP1 POP JUMP JUMPDEST PUSH0 DUP1 PUSH1 0x40 DUP4 DUP6 SUB SLT ISZERO PUSH2 0x1115 JUMPI PUSH2 0x1114 PUSH2 0xD92 JUMP JUMPDEST JUMPDEST PUSH0 PUSH2 0x1122 DUP6 DUP3 DUP7 ADD PUSH2 0xDB9 JUMP JUMPDEST SWAP3 POP POP PUSH1 0x20 PUSH2 0x1133 DUP6 DUP3 DUP7 ADD PUSH2 0xF65 JUMP JUMPDEST SWAP2 POP POP SWAP3 POP SWAP3 SWAP1 POP JUMP JUMPDEST PUSH0 PUSH1 0x20 DUP3 ADD SWAP1 POP PUSH2 0x1150 PUSH0 DUP4 ADD DUP5 PUSH2 0xEC1 JUMP JUMPDEST SWAP3 SWAP2 POP POP JUMP JUMPDEST PUSH0 PUSH1 0x20 DUP3 ADD SWAP1 POP PUSH2 0x1169 PUSH0 DUP4 ADD DUP5 PUSH2 0xE28 JUMP JUMPDEST SWAP3 SWAP2 POP POP JUMP JUMPDEST PUSH0 PUSH1 0x20 DUP3 DUP5 SUB SLT ISZERO PUSH2 0x1184 JUMPI PUSH2 0x1183 PUSH2 0xD92 JUMP JUMPDEST JUMPDEST PUSH0 PUSH2 0x1191 DUP5 DUP3 DUP6 ADD PUSH2 0xF65 JUMP JUMPDEST SWAP2 POP POP SWAP3 SWAP2 POP POP JUMP JUMPDEST PUSH2 0x11A3 DUP2 PUSH2 0xEB6 JUMP JUMPDEST DUP2 EQ PUSH2 0x11AD JUMPI PUSH0 DUP1 REVERT JUMPDEST POP JUMP JUMPDEST PUSH0 DUP2 CALLDATALOAD SWAP1 POP PUSH2 0x11BE DUP2 PUSH2 0x119A JUMP JUMPDEST SWAP3 SWAP2 POP POP JUMP JUMPDEST PUSH0 DUP1 PUSH1 0x40 DUP4 DUP6 SUB SLT ISZERO PUSH2 0x11DA JUMPI PUSH2 0x11D9 PUSH2 0xD92 JUMP JUMPDEST JUMPDEST PUSH0 PUSH2 0x11E7 DUP6 DUP3 DUP7 ADD PUSH2 0xDB9 JUMP JUMPDEST SWAP3 POP POP PUSH1 0x20 PUSH2 0x11F8 DUP6 DUP3 DUP7 ADD PUSH2 0x11B0 JUMP JUMPDEST SWAP2 POP POP SWAP3 POP SWAP3 SWAP1 POP JUMP JUMPDEST PUSH0 DUP2 SWAP1 POP SWAP2 SWAP1 POP JUMP JUMPDEST PUSH0 PUSH2 0x1225 PUSH2 0x1220 PUSH2 0x121B DUP5 PUSH2 0xDF8 JUMP JUMPDEST PUSH2 0x1202 JUMP JUMPDEST PUSH2 0xDF8 JUMP JUMPDEST SWAP1 POP SWAP2 SWAP1 POP JUMP JUMPDEST PUSH0 PUSH2 0x1236 DUP3 PUSH2 0x120B JUMP JUMPDEST SWAP1 POP SWAP2 SWAP1 POP JUMP JUMPDEST PUSH0 PUSH2 0x1247 DUP3 PUSH2 0x122C JUMP JUMPDEST SWAP1 POP SWAP2 SWAP1 POP JUMP JUMPDEST PUSH2 0x1257 DUP2 PUSH2 0x123D JUMP JUMPDEST DUP3 MSTORE POP POP JUMP JUMPDEST PUSH0 PUSH1 0x20 DUP3 ADD SWAP1 POP PUSH2 0x1270 PUSH0 DUP4 ADD DUP5 PUSH2 0x124E JUMP JUMPDEST SWAP3 SWAP2 POP POP JUMP JUMPDEST PUSH32 0x4E487B7100000000000000000000000000000000000000000000000000000000 PUSH0 MSTORE PUSH1 0x22 PUSH1 0x4 MSTORE PUSH1 0x24 PUSH0 REVERT JUMPDEST PUSH0 PUSH1 0x2 DUP3 DIV SWAP1 POP PUSH1 0x1 DUP3 AND DUP1 PUSH2 0x12BA JUMPI PUSH1 0x7F DUP3 AND SWAP2 POP JUMPDEST PUSH1 0x20 DUP3 LT DUP2 SUB PUSH2 0x12CD JUMPI PUSH2 0x12CC PUSH2 0x1276 JUMP JUMPDEST JUMPDEST POP SWAP2 SWAP1 POP JUMP JUMPDEST PUSH32 0x4E6F742074686520636F6E7472616374206F776E657200000000000000000000 PUSH0 DUP3 ADD MSTORE POP JUMP JUMPDEST PUSH0 PUSH2 0x1307 PUSH1 0x16 DUP4 PUSH2 0xE41 JUMP JUMPDEST SWAP2 POP PUSH2 0x1312 DUP3 PUSH2 0x12D3 JUMP JUMPDEST PUSH1 0x20 DUP3 ADD SWAP1 POP SWAP2 SWAP1 POP JUMP JUMPDEST PUSH0 PUSH1 0x20 DUP3 ADD SWAP1 POP DUP2 DUP2 SUB PUSH0 DUP4 ADD MSTORE PUSH2 0x1334 DUP2 PUSH2 0x12FB JUMP JUMPDEST SWAP1 POP SWAP2 SWAP1 POP JUMP JUMPDEST PUSH32 0x4E487B7100000000000000000000000000000000000000000000000000000000 PUSH0 MSTORE PUSH1 0x11 PUSH1 0x4 MSTORE PUSH1 0x24 PUSH0 REVERT JUMPDEST PUSH0 PUSH2 0x1372 DUP3 PUSH2 0xD9A JUMP JUMPDEST SWAP2 POP PUSH2 0x137D DUP4 PUSH2 0xD9A JUMP JUMPDEST SWAP3 POP DUP3 DUP3 ADD SWAP1 POP DUP1 DUP3 GT ISZERO PUSH2 0x1395 JUMPI PUSH2 0x1394 PUSH2 0x133B JUMP JUMPDEST JUMPDEST SWAP3 SWAP2 POP POP JUMP JUMPDEST PUSH0 DUP2 SWAP1 POP DUP2 PUSH0 MSTORE PUSH1 0x20 PUSH0 KECCAK256 SWAP1 POP SWAP2 SWAP1 POP JUMP JUMPDEST PUSH0 PUSH1 0x20 PUSH1 0x1F DUP4 ADD DIV SWAP1 POP SWAP2 SWAP1 POP JUMP JUMPDEST PUSH0 DUP3 DUP3 SHL SWAP1 POP SWAP3 SWAP2 POP POP JUMP JUMPDEST PUSH0 PUSH1 0x8 DUP4 MUL PUSH2 0x13F7 PUSH32 0xFFFFFFFFFFFFFFFFFFFFFFFFFFFFFFFFFFFFFFFFFFFFFFFFFFFFFFFFFFFFFFFF DUP3 PUSH2 0x13BC JUMP JUMPDEST PUSH2 0x1401 DUP7 DUP4 PUSH2 0x13BC JUMP JUMPDEST SWAP6 POP DUP1 NOT DUP5 AND SWAP4 POP DUP1 DUP7 AND DUP5 OR SWAP3 POP POP POP SWAP4 SWAP3 POP POP POP JUMP JUMPDEST PUSH0 PUSH2 0x1433 PUSH2 0x142E PUSH2 0x1429 DUP5 PUSH2 0xD9A JUMP JUMPDEST PUSH2 0x1202 JUMP JUMPDEST PUSH2 0xD9A JUMP JUMPDEST SWAP1 POP SWAP2 SWAP1 POP JUMP JUMPDEST PUSH0 DUP2 SWAP1 POP SWAP2 SWAP1 POP JUMP JUMPDEST PUSH2 0x144C DUP4 PUSH2 0x1419 JUMP JUMPDEST PUSH2 0x1460 PUSH2 0x1458 DUP3 PUSH2 0x143A JUMP JUMPDEST DUP5 DUP5 SLOAD PUSH2 0x13C8 JUMP JUMPDEST DUP3 SSTORE POP POP POP POP JUMP JUMPDEST PUSH0 SWAP1 JUMP JUMPDEST PUSH2 0x1474 PUSH2 0x1468 JUMP JUMPDEST PUSH2 0x147F DUP2 DUP5 DUP5 PUSH2 0x1443 JUMP JUMPDEST POP POP POP JUMP JUMPDEST JUMPDEST DUP2 DUP2 LT ISZERO PUSH2 0x14A2 JUMPI PUSH2 0x1497 PUSH0 DUP3 PUSH2 0x146C JUMP JUMPDEST PUSH1 0x1 DUP2 ADD SWAP1 POP PUSH2 0x1485 JUMP JUMPDEST POP POP JUMP JUMPDEST PUSH1 0x1F DUP3 GT ISZERO PUSH2 0x14E7 JUMPI PUSH2 0x14B8 DUP2 PUSH2 0x139B JUMP JUMPDEST PUSH2 0x14C1 DUP5 PUSH2 0x13AD JUMP JUMPDEST DUP2 ADD PUSH1 0x20 DUP6 LT ISZERO PUSH2 0x14D0 JUMPI DUP2 SWAP1 POP JUMPDEST PUSH2 0x14E4 PUSH2 0x14DC DUP6 PUSH2 0x13AD JUMP JUMPDEST DUP4 ADD DUP3 PUSH2 0x1484 JUMP JUMPDEST POP POP JUMPDEST POP POP POP JUMP JUMPDEST PUSH0 DUP3 DUP3 SHR SWAP1 POP SWAP3 SWAP2 POP POP JUMP JUMPDEST PUSH0 PUSH2 0x1507 PUSH0 NOT DUP5 PUSH1 0x8 MUL PUSH2 0x14EC JUMP JUMPDEST NOT DUP1 DUP4 AND SWAP2 POP POP SWAP3 SWAP2 POP POP JUMP JUMPDEST PUSH0 PUSH2 0x151F DUP4 DUP4 PUSH2 0x14F8 JUMP JUMPDEST SWAP2 POP DUP3 PUSH1 0x2 MUL DUP3 OR SWAP1 POP SWAP3 SWAP2 POP POP JUMP JUMPDEST PUSH2 0x1538 DUP3 PUSH2 0xE37 JUMP JUMPDEST PUSH8 0xFFFFFFFFFFFFFFFF DUP2 GT ISZERO PUSH2 0x1551 JUMPI PUSH2 0x1550 PUSH2 0xF81 JUMP JUMPDEST JUMPDEST PUSH2 0x155B DUP3 SLOAD PUSH2 0x12A3 JUMP JUMPDEST PUSH2 0x1566 DUP3 DUP3 DUP6 PUSH2 0x14A6 JUMP JUMPDEST PUSH0 PUSH1 0x20 SWAP1 POP PUSH1 0x1F DUP4 GT PUSH1 0x1 DUP2 EQ PUSH2 0x1597 JUMPI PUSH0 DUP5 ISZERO PUSH2 0x1585 JUMPI DUP3 DUP8 ADD MLOAD SWAP1 POP JUMPDEST PUSH2 0x158F DUP6 DUP3 PUSH2 0x1514 JUMP JUMPDEST DUP7 SSTORE POP PUSH2 0x15F6 JUMP JUMPDEST PUSH1 0x1F NOT DUP5 AND PUSH2 0x15A5 DUP7 PUSH2 0x139B JUMP JUMPDEST PUSH0 JUMPDEST DUP3 DUP2 LT ISZERO PUSH2 0x15CC JUMPI DUP5 DUP10 ADD MLOAD DUP3 SSTORE PUSH1 0x1 DUP3 ADD SWAP2 POP PUSH1 0x20 DUP6 ADD SWAP5 POP PUSH1 0x20 DUP2 ADD SWAP1 POP PUSH2 0x15A7 JUMP JUMPDEST DUP7 DUP4 LT ISZERO PUSH2 0x15E9 JUMPI DUP5 DUP10 ADD MLOAD PUSH2 0x15E5 PUSH1 0x1F DUP10 AND DUP3 PUSH2 0x14F8 JUMP JUMPDEST DUP4 SSTORE POP JUMPDEST PUSH1 0x1 PUSH1 0x2 DUP9 MUL ADD DUP9 SSTORE POP POP POP JUMPDEST POP POP POP POP POP POP JUMP JUMPDEST PUSH0 PUSH1 0x60 DUP3 ADD SWAP1 POP PUSH2 0x1611 PUSH0 DUP4 ADD DUP7 PUSH2 0xEA7 JUMP JUMPDEST PUSH2 0x161E PUSH1 0x20 DUP4 ADD DUP6 PUSH2 0xE28 JUMP JUMPDEST DUP2 DUP2 SUB PUSH1 0x40 DUP4 ADD MSTORE PUSH2 0x1630 DUP2 DUP5 PUSH2 0xE6F JUMP JUMPDEST SWAP1 POP SWAP5 SWAP4 POP POP POP POP JUMP JUMPDEST PUSH0 PUSH2 0x1644 DUP3 PUSH2 0xD9A JUMP JUMPDEST SWAP2 POP PUSH32 0xFFFFFFFFFFFFFFFFFFFFFFFFFFFFFFFFFFFFFFFFFFFFFFFFFFFFFFFFFFFFFFFF DUP3 SUB PUSH2 0x1676 JUMPI PUSH2 0x1675 PUSH2 0x133B JUMP JUMPDEST JUMPDEST PUSH1 0x1 DUP3 ADD SWAP1 POP SWAP2 SWAP1 POP JUMP JUMPDEST PUSH32 0x4E487B7100000000000000000000000000000000000000000000000000000000 PUSH0 MSTORE PUSH1 0x32 PUSH1 0x4 MSTORE PUSH1 0x24 PUSH0 REVERT JUMPDEST PUSH32 0x50726F706F73616C20616C72656164792066696E616C697A6564000000000000 PUSH0 DUP3 ADD MSTORE POP JUMP JUMPDEST PUSH0 PUSH2 0x16E2 PUSH1 0x1A DUP4 PUSH2 0xE41 JUMP JUMPDEST SWAP2 POP PUSH2 0x16ED DUP3 PUSH2 0x16AE JUMP JUMPDEST PUSH1 0x20 DUP3 ADD SWAP1 POP SWAP2 SWAP1 POP JUMP JUMPDEST PUSH0 PUSH1 0x20 DUP3 ADD SWAP1 POP DUP2 DUP2 SUB PUSH0 DUP4 ADD MSTORE PUSH2 0x170F DUP2 PUSH2 0x16D6 JUMP JUMPDEST SWAP1 POP SWAP2 SWAP1 POP JUMP JUMPDEST PUSH32 0x566F74696E6720706572696F64206E6F74206F76657200000000000000000000 PUSH0 DUP3 ADD MSTORE POP JUMP JUMPDEST PUSH0 PUSH2 0x174A PUSH1 0x16 DUP4 PUSH2 0xE41 JUMP JUMPDEST SWAP2 POP PUSH2 0x1755 DUP3 PUSH2 0x1716 JUMP JUMPDEST PUSH1 0x20 DUP3 ADD SWAP1 POP SWAP2 SWAP1 POP JUMP JUMPDEST PUSH0 PUSH1 0x20 DUP3 ADD SWAP1 POP DUP2 DUP2 SUB PUSH0 DUP4 ADD MSTORE PUSH2 0x1777 DUP2 PUSH2 0x173E JUMP JUMPDEST SWAP1 POP SWAP2 SWAP1 POP JUMP JUMPDEST PUSH32 0x4E6F7420656E6F75676820766F74657320746F20706173732070726F706F7361 PUSH0 DUP3 ADD MSTORE PUSH32 0x6C00000000000000000000000000000000000000000000000000000000000000 PUSH1 0x20 DUP3 ADD MSTORE POP JUMP JUMPDEST PUSH0 PUSH2 0x17D8 PUSH1 0x21 DUP4 PUSH2 0xE41 JUMP JUMPDEST SWAP2 POP PUSH2 0x17E3 DUP3 PUSH2 0x177E JUMP JUMPDEST PUSH1 0x40 DUP3 ADD SWAP1 POP SWAP2 SWAP1 POP JUMP JUMPDEST PUSH0 PUSH1 0x20 DUP3 ADD SWAP1 POP DUP2 DUP2 SUB PUSH0 DUP4 ADD MSTORE PUSH2 0x1805 DUP2 PUSH2 0x17CC JUMP JUMPDEST SWAP1 POP SWAP2 SWAP1 POP JUMP JUMPDEST PUSH32 0x50726F706F73616C206973206E6F742061637469766500000000000000000000 PUSH0 DUP3 ADD MSTORE POP JUMP JUMPDEST PUSH0 PUSH2 0x1840 PUSH1 0x16 DUP4 PUSH2 0xE41 JUMP JUMPDEST SWAP2 POP PUSH2 0x184B DUP3 PUSH2 0x180C JUMP JUMPDEST PUSH1 0x20 DUP3 ADD SWAP1 POP SWAP2 SWAP1 POP JUMP JUMPDEST PUSH0 PUSH1 0x20 DUP3 ADD SWAP1 POP DUP2 DUP2 SUB PUSH0 DUP4 ADD MSTORE PUSH2 0x186D DUP2 PUSH2 0x1834 JUMP JUMPDEST SWAP1 POP SWAP2 SWAP1 POP JUMP JUMPDEST PUSH32 0x566F74696E6720706572696F642068617320656E646564000000000000000000 PUSH0 DUP3 ADD MSTORE POP JUMP JUMPDEST PUSH0 PUSH2 0x18A8 PUSH1 0x17 DUP4 PUSH2 0xE41 JUMP JUMPDEST SWAP2 POP PUSH2 0x18B3 DUP3 PUSH2 0x1874 JUMP JUMPDEST PUSH1 0x20 DUP3 ADD SWAP1 POP SWAP2 SWAP1 POP JUMP JUMPDEST PUSH0 PUSH1 0x20 DUP3 ADD SWAP1 POP DUP2 DUP2 SUB PUSH0 DUP4 ADD MSTORE PUSH2 0x18D5 DUP2 PUSH2 0x189C JUMP JUMPDEST SWAP1 POP SWAP2 SWAP1 POP JUMP JUMPDEST PUSH32 0x416C726561647920766F74656400000000000000000000000000000000000000 PUSH0 DUP3 ADD MSTORE POP JUMP JUMPDEST PUSH0 PUSH2 0x1910 PUSH1 0xD DUP4 PUSH2 0xE41 JUMP JUMPDEST SWAP2 POP PUSH2 0x191B DUP3 PUSH2 0x18DC JUMP JUMPDEST PUSH1 0x20 DUP3 ADD SWAP1 POP SWAP2 SWAP1 POP JUMP JUMPDEST PUSH0 PUSH1 0x20 DUP3 ADD SWAP1 POP DUP2 DUP2 SUB PUSH0 DUP4 ADD MSTORE PUSH2 0x193D DUP2 PUSH2 0x1904 JUMP JUMPDEST SWAP1 POP SWAP2 SWAP1 POP JUMP JUMPDEST PUSH0 DUP2 MLOAD SWAP1 POP PUSH2 0x1952 DUP2 PUSH2 0xDA3 JUMP JUMPDEST SWAP3 SWAP2 POP POP JUMP JUMPDEST PUSH0 PUSH1 0x20 DUP3 DUP5 SUB SLT ISZERO PUSH2 0x196D JUMPI PUSH2 0x196C PUSH2 0xD92 JUMP JUMPDEST JUMPDEST PUSH0 PUSH2 0x197A DUP5 DUP3 DUP6 ADD PUSH2 0x1944 JUMP JUMPDEST SWAP2 POP POP SWAP3 SWAP2 POP POP JUMP JUMPDEST PUSH32 0x4D75737420686F6C6420746F6B656E7320746F20766F74650000000000000000 PUSH0 DUP3 ADD MSTORE POP JUMP JUMPDEST PUSH0 PUSH2 0x19B7 PUSH1 0x18 DUP4 PUSH2 0xE41 JUMP JUMPDEST SWAP2 POP PUSH2 0x19C2 DUP3 PUSH2 0x1983 JUMP JUMPDEST PUSH1 0x20 DUP3 ADD SWAP1 POP SWAP2 SWAP1 POP JUMP JUMPDEST PUSH0 PUSH1 0x20 DUP3 ADD SWAP1 POP DUP2 DUP2 SUB PUSH0 DUP4 ADD MSTORE PUSH2 0x19E4 DUP2 PUSH2 0x19AB JUMP JUMPDEST SWAP1 POP SWAP2 SWAP1 POP JUMP JUMPDEST PUSH0 PUSH1 0x60 DUP3 ADD SWAP1 POP PUSH2 0x19FE PUSH0 DUP4 ADD DUP7 PUSH2 0xEA7 JUMP JUMPDEST PUSH2 0x1A0B PUSH1 0x20 DUP4 ADD DUP6 PUSH2 0xE28 JUMP JUMPDEST PUSH2 0x1A18 PUSH1 0x40 DUP4 ADD DUP5 PUSH2 0xEC1 JUMP JUMPDEST SWAP5 SWAP4 POP POP POP POP JUMP INVALID LOG2 PUSH5 0x6970667358 0x22 SLT KECCAK256 0xD1 0xDE 0xA5 0xA7 0x2B EXTCODEHASH 0xB7 PC 0xCD POP 0xB4 TIMESTAMP DUP4 EXP LOG3 0xAA GT 0xCC SWAP11 0xEC DUP11 0x24 DUP7 0xB2 PUSH25 0x9DEE7C11885B3164736F6C634300081A003300000000000000 "
				},
				"gasEstimates": {
					"creation": {
						"codeDepositCost": "1348400",
						"executionCost": "infinite",
						"totalCost": "infinite"
					},
					"external": {
						"createProposal(address,string)": "infinite",
						"finalizeProposal(uint256)": "infinite",
						"hasVoted(uint256,address)": "3138",
						"owner()": "2505",
						"proposalCount()": "2491",
						"proposals(uint256)": "infinite",
						"quorumThreshold()": "2536",
						"token()": "infinite",
						"transferOwnership(address)": "26969",
						"vote(uint256,bool)": "infinite",
						"voters(address)": "2855",
						"votingPeriod()": "2448"
					},
					"internal": {
						"investInProject(address)": "11"
					}
				},
				"methodIdentifiers": {
					"createProposal(address,string)": "1f4f7d29",
					"finalizeProposal(uint256)": "5652077c",
					"hasVoted(uint256,address)": "43859632",
					"owner()": "8da5cb5b",
					"proposalCount()": "da35c664",
					"proposals(uint256)": "013cf08b",
					"quorumThreshold()": "7b7a91dd",
					"token()": "fc0c546a",
					"transferOwnership(address)": "f2fde38b",
					"vote(uint256,bool)": "c9d27afe",
					"voters(address)": "a3ec138d",
					"votingPeriod()": "02a251a3"
				}
			},
			"storageLayout": {
				"storage": [
					{
						"astId": 40,
						"contract": "Decentralized Autonomous Venture Capital Fund (DAVC)/sol1.sol:Governance",
						"label": "owner",
						"offset": 0,
						"slot": "0",
						"type": "t_address"
					},
					{
						"astId": 93,
						"contract": "Decentralized Autonomous Venture Capital Fund (DAVC)/sol1.sol:Governance",
						"label": "proposals",
						"offset": 0,
						"slot": "1",
						"type": "t_array(t_struct(Proposal)89_storage)dyn_storage"
					},
					{
						"astId": 95,
						"contract": "Decentralized Autonomous Venture Capital Fund (DAVC)/sol1.sol:Governance",
						"label": "proposalCount",
						"offset": 0,
						"slot": "2",
						"type": "t_uint256"
					},
					{
						"astId": 98,
						"contract": "Decentralized Autonomous Venture Capital Fund (DAVC)/sol1.sol:Governance",
						"label": "token",
						"offset": 0,
						"slot": "3",
						"type": "t_contract(IERC20)38"
					},
					{
						"astId": 102,
						"contract": "Decentralized Autonomous Venture Capital Fund (DAVC)/sol1.sol:Governance",
						"label": "voters",
						"offset": 0,
						"slot": "4",
						"type": "t_mapping(t_address,t_bool)"
					},
					{
						"astId": 108,
						"contract": "Decentralized Autonomous Venture Capital Fund (DAVC)/sol1.sol:Governance",
						"label": "hasVoted",
						"offset": 0,
						"slot": "5",
						"type": "t_mapping(t_uint256,t_mapping(t_address,t_bool))"
					},
					{
						"astId": 111,
						"contract": "Decentralized Autonomous Venture Capital Fund (DAVC)/sol1.sol:Governance",
						"label": "votingPeriod",
						"offset": 0,
						"slot": "6",
						"type": "t_uint256"
					},
					{
						"astId": 118,
						"contract": "Decentralized Autonomous Venture Capital Fund (DAVC)/sol1.sol:Governance",
						"label": "quorumThreshold",
						"offset": 0,
						"slot": "7",
						"type": "t_uint256"
					}
				],
				"types": {
					"t_address": {
						"encoding": "inplace",
						"label": "address",
						"numberOfBytes": "20"
					},
					"t_array(t_struct(Proposal)89_storage)dyn_storage": {
						"base": "t_struct(Proposal)89_storage",
						"encoding": "dynamic_array",
						"label": "struct Governance.Proposal[]",
						"numberOfBytes": "32"
					},
					"t_bool": {
						"encoding": "inplace",
						"label": "bool",
						"numberOfBytes": "1"
					},
					"t_contract(IERC20)38": {
						"encoding": "inplace",
						"label": "contract IERC20",
						"numberOfBytes": "20"
					},
					"t_mapping(t_address,t_bool)": {
						"encoding": "mapping",
						"key": "t_address",
						"label": "mapping(address => bool)",
						"numberOfBytes": "32",
						"value": "t_bool"
					},
					"t_mapping(t_uint256,t_mapping(t_address,t_bool))": {
						"encoding": "mapping",
						"key": "t_uint256",
						"label": "mapping(uint256 => mapping(address => bool))",
						"numberOfBytes": "32",
						"value": "t_mapping(t_address,t_bool)"
					},
					"t_string_storage": {
						"encoding": "bytes",
						"label": "string",
						"numberOfBytes": "32"
					},
					"t_struct(Proposal)89_storage": {
						"encoding": "inplace",
						"label": "struct Governance.Proposal",
						"members": [
							{
								"astId": 78,
								"contract": "Decentralized Autonomous Venture Capital Fund (DAVC)/sol1.sol:Governance",
								"label": "projectAddress",
								"offset": 0,
								"slot": "0",
								"type": "t_address"
							},
							{
								"astId": 80,
								"contract": "Decentralized Autonomous Venture Capital Fund (DAVC)/sol1.sol:Governance",
								"label": "projectDescription",
								"offset": 0,
								"slot": "1",
								"type": "t_string_storage"
							},
							{
								"astId": 82,
								"contract": "Decentralized Autonomous Venture Capital Fund (DAVC)/sol1.sol:Governance",
								"label": "votesFor",
								"offset": 0,
								"slot": "2",
								"type": "t_uint256"
							},
							{
								"astId": 84,
								"contract": "Decentralized Autonomous Venture Capital Fund (DAVC)/sol1.sol:Governance",
								"label": "votesAgainst",
								"offset": 0,
								"slot": "3",
								"type": "t_uint256"
							},
							{
								"astId": 86,
								"contract": "Decentralized Autonomous Venture Capital Fund (DAVC)/sol1.sol:Governance",
								"label": "active",
								"offset": 0,
								"slot": "4",
								"type": "t_bool"
							},
							{
								"astId": 88,
								"contract": "Decentralized Autonomous Venture Capital Fund (DAVC)/sol1.sol:Governance",
								"label": "deadline",
								"offset": 0,
								"slot": "5",
								"type": "t_uint256"
							}
						],
						"numberOfBytes": "192"
					},
					"t_uint256": {
						"encoding": "inplace",
						"label": "uint256",
						"numberOfBytes": "32"
					}
				}
			},
			"userdoc": {
				"kind": "user",
				"methods": {},
				"version": 1
			}
		}
	}
}